{"abi":[{"type":"constructor","inputs":[{"name":"_token","type":"address","internalType":"contract IERC20"}],"stateMutability":"nonpayable"},{"type":"function","name":"balances","inputs":[{"name":"","type":"address","internalType":"address"}],"outputs":[{"name":"","type":"uint256","internalType":"uint256"}],"stateMutability":"view"},{"type":"function","name":"deposit","inputs":[{"name":"amount","type":"uint256","internalType":"uint256"}],"outputs":[],"stateMutability":"nonpayable"},{"type":"function","name":"token","inputs":[],"outputs":[{"name":"","type":"address","internalType":"contract IERC20"}],"stateMutability":"view"},{"type":"function","name":"withdraw","inputs":[{"name":"amount","type":"uint256","internalType":"uint256"}],"outputs":[],"stateMutability":"nonpayable"}],"bytecode":{"object":"0x608060405234801561000f575f80fd5b50604051610774380380610774833981810160405281019061003191906100e5565b805f806101000a81548173ffffffffffffffffffffffffffffffffffffffff021916908373ffffffffffffffffffffffffffffffffffffffff16021790555050610110565b5f80fd5b5f73ffffffffffffffffffffffffffffffffffffffff82169050919050565b5f6100a38261007a565b9050919050565b5f6100b482610099565b9050919050565b6100c4816100aa565b81146100ce575f80fd5b50565b5f815190506100df816100bb565b92915050565b5f602082840312156100fa576100f9610076565b5b5f610107848285016100d1565b91505092915050565b6106578061011d5f395ff3fe608060405234801561000f575f80fd5b506004361061004a575f3560e01c806327e235e31461004e5780632e1a7d4d1461007e578063b6b55f251461009a578063fc0c546a146100b6575b5f80fd5b6100686004803603810190610063919061039e565b6100d4565b60405161007591906103e1565b60405180910390f35b61009860048036038101906100939190610424565b6100e9565b005b6100b460048036038101906100af9190610424565b610223565b005b6100be61031d565b6040516100cb91906104aa565b60405180910390f35b6001602052805f5260405f205f915090505481565b8060015f3373ffffffffffffffffffffffffffffffffffffffff1673ffffffffffffffffffffffffffffffffffffffff1681526020019081526020015f20541015610132575f80fd5b8060015f3373ffffffffffffffffffffffffffffffffffffffff1673ffffffffffffffffffffffffffffffffffffffff1681526020019081526020015f205f82825461017e91906104f0565b925050819055505f8054906101000a900473ffffffffffffffffffffffffffffffffffffffff1673ffffffffffffffffffffffffffffffffffffffff1663a9059cbb33836040518363ffffffff1660e01b81526004016101df929190610532565b6020604051808303815f875af11580156101fb573d5f803e3d5ffd5b505050506040513d601f19601f8201168201806040525081019061021f919061058e565b5050565b5f8054906101000a900473ffffffffffffffffffffffffffffffffffffffff1673ffffffffffffffffffffffffffffffffffffffff166323b872dd3330846040518463ffffffff1660e01b815260040161027f939291906105b9565b6020604051808303815f875af115801561029b573d5f803e3d5ffd5b505050506040513d601f19601f820116820180604052508101906102bf919061058e565b6102c7575f80fd5b8060015f3373ffffffffffffffffffffffffffffffffffffffff1673ffffffffffffffffffffffffffffffffffffffff1681526020019081526020015f205f82825461031391906105ee565b9250508190555050565b5f8054906101000a900473ffffffffffffffffffffffffffffffffffffffff1681565b5f80fd5b5f73ffffffffffffffffffffffffffffffffffffffff82169050919050565b5f61036d82610344565b9050919050565b61037d81610363565b8114610387575f80fd5b50565b5f8135905061039881610374565b92915050565b5f602082840312156103b3576103b2610340565b5b5f6103c08482850161038a565b91505092915050565b5f819050919050565b6103db816103c9565b82525050565b5f6020820190506103f45f8301846103d2565b92915050565b610403816103c9565b811461040d575f80fd5b50565b5f8135905061041e816103fa565b92915050565b5f6020828403121561043957610438610340565b5b5f61044684828501610410565b91505092915050565b5f819050919050565b5f61047261046d61046884610344565b61044f565b610344565b9050919050565b5f61048382610458565b9050919050565b5f61049482610479565b9050919050565b6104a48161048a565b82525050565b5f6020820190506104bd5f83018461049b565b92915050565b7f4e487b71000000000000000000000000000000000000000000000000000000005f52601160045260245ffd5b5f6104fa826103c9565b9150610505836103c9565b925082820390508181111561051d5761051c6104c3565b5b92915050565b61052c81610363565b82525050565b5f6040820190506105455f830185610523565b61055260208301846103d2565b9392505050565b5f8115159050919050565b61056d81610559565b8114610577575f80fd5b50565b5f8151905061058881610564565b92915050565b5f602082840312156105a3576105a2610340565b5b5f6105b08482850161057a565b91505092915050565b5f6060820190506105cc5f830186610523565b6105d96020830185610523565b6105e660408301846103d2565b949350505050565b5f6105f8826103c9565b9150610603836103c9565b925082820190508082111561061b5761061a6104c3565b5b9291505056fea264697066735822122063f1de5bb4d29dd010c318e58a1e5e58789c75447d7626108f0b3ba8ad75373864736f6c634300081a0033","linkReferences":{}},"methodIdentifiers":{"balances(address)":"27e235e3","deposit(uint256)":"b6b55f25","token()":"fc0c546a","withdraw(uint256)":"2e1a7d4d"},"id":0}