{"src/UnsafeTokenVault.sol":{"UnsafeTokenVault":{"abi":[{"type":"constructor","inputs":[{"name":"_token","type":"address","internalType":"contract IERC20"}],"stateMutability":"nonpayable"},{"type":"function","name":"balances","inputs":[{"name":"","type":"address","internalType":"address"}],"outputs":[{"name":"","type":"uint256","internalType":"uint256"}],"stateMutability":"view"},{"type":"function","name":"deposit","inputs":[{"name":"amount","type":"uint256","internalType":"uint256"}],"outputs":[],"stateMutability":"nonpayable"},{"type":"function","name":"token","inputs":[],"outputs":[{"name":"","type":"address","internalType":"contract IERC20"}],"stateMutability":"view"},{"type":"function","name":"withdraw","inputs":[{"name":"amount","type":"uint256","internalType":"uint256"}],"outputs":[],"stateMutability":"nonpayable"}],"userdoc":{},"devdoc":{},"evm":{"bytecode":{"object":"608060405234801561000f575f5ffd5b50604051610777380380610777833981810160405281019061003191906100e5565b805f5f6101000a81548173ffffffffffffffffffffffffffffffffffffffff021916908373ffffffffffffffffffffffffffffffffffffffff16021790555050610110565b5f5ffd5b5f73ffffffffffffffffffffffffffffffffffffffff82169050919050565b5f6100a38261007a565b9050919050565b5f6100b482610099565b9050919050565b6100c4816100aa565b81146100ce575f5ffd5b50565b5f815190506100df816100bb565b92915050565b5f602082840312156100fa576100f9610076565b5b5f610107848285016100d1565b91505092915050565b61065a8061011d5f395ff3fe608060405234801561000f575f5ffd5b506004361061004a575f3560e01c806327e235e31461004e5780632e1a7d4d1461007e578063b6b55f251461009a578063fc0c546a146100b6575b5f5ffd5b610068600480360381019061006391906103a1565b6100d4565b60405161007591906103e4565b60405180910390f35b61009860048036038101906100939190610427565b6100e9565b005b6100b460048036038101906100af9190610427565b610224565b005b6100be61031f565b6040516100cb91906104ad565b60405180910390f35b6001602052805f5260405f205f915090505481565b8060015f3373ffffffffffffffffffffffffffffffffffffffff1673ffffffffffffffffffffffffffffffffffffffff1681526020019081526020015f20541015610132575f5ffd5b8060015f3373ffffffffffffffffffffffffffffffffffffffff1673ffffffffffffffffffffffffffffffffffffffff1681526020019081526020015f205f82825461017e91906104f3565b925050819055505f5f9054906101000a900473ffffffffffffffffffffffffffffffffffffffff1673ffffffffffffffffffffffffffffffffffffffff1663a9059cbb33836040518363ffffffff1660e01b81526004016101e0929190610535565b6020604051808303815f875af11580156101fc573d5f5f3e3d5ffd5b505050506040513d601f19601f820116820180604052508101906102209190610591565b5050565b5f5f9054906101000a900473ffffffffffffffffffffffffffffffffffffffff1673ffffffffffffffffffffffffffffffffffffffff166323b872dd3330846040518463ffffffff1660e01b8152600401610281939291906105bc565b6020604051808303815f875af115801561029d573d5f5f3e3d5ffd5b505050506040513d601f19601f820116820180604052508101906102c19190610591565b6102c9575f5ffd5b8060015f3373ffffffffffffffffffffffffffffffffffffffff1673ffffffffffffffffffffffffffffffffffffffff1681526020019081526020015f205f82825461031591906105f1565b9250508190555050565b5f5f9054906101000a900473ffffffffffffffffffffffffffffffffffffffff1681565b5f5ffd5b5f73ffffffffffffffffffffffffffffffffffffffff82169050919050565b5f61037082610347565b9050919050565b61038081610366565b811461038a575f5ffd5b50565b5f8135905061039b81610377565b92915050565b5f602082840312156103b6576103b5610343565b5b5f6103c38482850161038d565b91505092915050565b5f819050919050565b6103de816103cc565b82525050565b5f6020820190506103f75f8301846103d5565b92915050565b610406816103cc565b8114610410575f5ffd5b50565b5f81359050610421816103fd565b92915050565b5f6020828403121561043c5761043b610343565b5b5f61044984828501610413565b91505092915050565b5f819050919050565b5f61047561047061046b84610347565b610452565b610347565b9050919050565b5f6104868261045b565b9050919050565b5f6104978261047c565b9050919050565b6104a78161048d565b82525050565b5f6020820190506104c05f83018461049e565b92915050565b7f4e487b71000000000000000000000000000000000000000000000000000000005f52601160045260245ffd5b5f6104fd826103cc565b9150610508836103cc565b92508282039050818111156105205761051f6104c6565b5b92915050565b61052f81610366565b82525050565b5f6040820190506105485f830185610526565b61055560208301846103d5565b9392505050565b5f8115159050919050565b6105708161055c565b811461057a575f5ffd5b50565b5f8151905061058b81610567565b92915050565b5f602082840312156105a6576105a5610343565b5b5f6105b38482850161057d565b91505092915050565b5f6060820190506105cf5f830186610526565b6105dc6020830185610526565b6105e960408301846103d5565b949350505050565b5f6105fb826103cc565b9150610606836103cc565b925082820190508082111561061e5761061d6104c6565b5b9291505056fea2646970667358221220814fcaf1b054660241609463c734c5c0fd5e2f96ff95e254380284344991bf8764736f6c63430008210033","linkReferences":{}},"methodIdentifiers":{"balances(address)":"27e235e3","deposit(uint256)":"b6b55f25","token()":"fc0c546a","withdraw(uint256)":"2e1a7d4d"}}}}}