{"abi":[{"type":"receive","stateMutability":"payable"},{"type":"function","name":"acceptOwnership","inputs":[],"outputs":[],"stateMutability":"nonpayable"},{"type":"function","name":"accountCredit","inputs":[{"name":"","type":"address","internalType":"address"}],"outputs":[{"name":"","type":"uint256","internalType":"uint256"}],"stateMutability":"view"},{"type":"function","name":"accrueManagementFee","inputs":[],"outputs":[{"name":"mintedShares","type":"uint256","internalType":"uint256"}],"stateMutability":"nonpayable"},{"type":"function","name":"addStrategy","inputs":[{"name":"strategy","type":"address","internalType":"address"},{"name":"targetBps","type":"uint16","internalType":"uint16"},{"name":"trusted","type":"bool","internalType":"bool"}],"outputs":[],"stateMutability":"nonpayable"},{"type":"function","name":"allocate","inputs":[{"name":"strategy","type":"address","internalType":"address"},{"name":"amount","type":"uint256","internalType":"uint256"},{"name":"data","type":"bytes","internalType":"bytes"}],"outputs":[],"stateMutability":"nonpayable"},{"type":"function","name":"allowance","inputs":[{"name":"","type":"address","internalType":"address"},{"name":"","type":"address","internalType":"address"}],"outputs":[{"name":"","type":"uint256","internalType":"uint256"}],"stateMutability":"view"},{"type":"function","name":"approve","inputs":[{"name":"spender","type":"address","internalType":"address"},{"name":"amount","type":"uint256","internalType":"uint256"}],"outputs":[{"name":"","type":"bool","internalType":"bool"}],"stateMutability":"nonpayable"},{"type":"function","name":"asset","inputs":[],"outputs":[{"name":"","type":"address","internalType":"contract IERC20Like"}],"stateMutability":"view"},{"type":"function","name":"autoRebalance","inputs":[{"name":"calls","type":"bytes[]","internalType":"bytes[]"}],"outputs":[],"stateMutability":"nonpayable"},{"type":"function","name":"balanceOf","inputs":[{"name":"","type":"address","internalType":"address"}],"outputs":[{"name":"","type":"uint256","internalType":"uint256"}],"stateMutability":"view"},{"type":"function","name":"batch","inputs":[{"name":"calls","type":"bytes[]","internalType":"bytes[]"}],"outputs":[{"name":"results","type":"bytes[]","internalType":"bytes[]"}],"stateMutability":"payable"},{"type":"function","name":"claimSignedCredit","inputs":[{"name":"assets","type":"uint256","internalType":"uint256"},{"name":"deadline","type":"uint256","internalType":"uint256"},{"name":"v","type":"uint8","internalType":"uint8"},{"name":"r","type":"bytes32","internalType":"bytes32"},{"name":"s","type":"bytes32","internalType":"bytes32"}],"outputs":[{"name":"shares","type":"uint256","internalType":"uint256"}],"stateMutability":"nonpayable"},{"type":"function","name":"compoundRewards","inputs":[{"name":"rewardTokens","type":"address[]","internalType":"address[]"},{"name":"swapCalls","type":"bytes[]","internalType":"bytes[]"},{"name":"minAssetsOut","type":"uint256","internalType":"uint256"}],"outputs":[],"stateMutability":"nonpayable"},{"type":"function","name":"convertToAssets","inputs":[{"name":"shares","type":"uint256","internalType":"uint256"}],"outputs":[{"name":"","type":"uint256","internalType":"uint256"}],"stateMutability":"view"},{"type":"function","name":"convertToShares","inputs":[{"name":"assets","type":"uint256","internalType":"uint256"}],"outputs":[{"name":"","type":"uint256","internalType":"uint256"}],"stateMutability":"view"},{"type":"function","name":"creditScalar","inputs":[],"outputs":[{"name":"","type":"uint256","internalType":"uint256"}],"stateMutability":"view"},{"type":"function","name":"decimals","inputs":[],"outputs":[{"name":"","type":"uint8","internalType":"uint8"}],"stateMutability":"view"},{"type":"function","name":"deposit","inputs":[{"name":"assets","type":"uint256","internalType":"uint256"},{"name":"receiver","type":"address","internalType":"address"}],"outputs":[{"name":"shares","type":"uint256","internalType":"uint256"}],"stateMutability":"nonpayable"},{"type":"function","name":"depositWithOracle","inputs":[{"name":"assets","type":"uint256","internalType":"uint256"},{"name":"receiver","type":"address","internalType":"address"},{"name":"minShares","type":"uint256","internalType":"uint256"}],"outputs":[{"name":"shares","type":"uint256","internalType":"uint256"}],"stateMutability":"nonpayable"},{"type":"function","name":"donate","inputs":[{"name":"assets","type":"uint256","internalType":"uint256"}],"outputs":[{"name":"newPps","type":"uint256","internalType":"uint256"}],"stateMutability":"nonpayable"},{"type":"function","name":"epochLength","inputs":[],"outputs":[{"name":"","type":"uint256","internalType":"uint256"}],"stateMutability":"view"},{"type":"function","name":"flashFeeBps","inputs":[],"outputs":[{"name":"","type":"uint256","internalType":"uint256"}],"stateMutability":"view"},{"type":"function","name":"flashLoan","inputs":[{"name":"receiver","type":"address","internalType":"address"},{"name":"amount","type":"uint256","internalType":"uint256"},{"name":"data","type":"bytes","internalType":"bytes"}],"outputs":[{"name":"","type":"bool","internalType":"bool"}],"stateMutability":"nonpayable"},{"type":"function","name":"harvest","inputs":[{"name":"strategy","type":"address","internalType":"address"}],"outputs":[{"name":"reported","type":"uint256","internalType":"uint256"},{"name":"keeperRewardShares","type":"uint256","internalType":"uint256"}],"stateMutability":"nonpayable"},{"type":"function","name":"highWaterMark","inputs":[],"outputs":[{"name":"","type":"uint256","internalType":"uint256"}],"stateMutability":"view"},{"type":"function","name":"initialize","inputs":[{"name":"asset_","type":"address","internalType":"address"},{"name":"treasury_","type":"address","internalType":"address"},{"name":"name_","type":"string","internalType":"string"},{"name":"symbol_","type":"string","internalType":"string"}],"outputs":[],"stateMutability":"nonpayable"},{"type":"function","name":"initialized","inputs":[],"outputs":[{"name":"","type":"bool","internalType":"bool"}],"stateMutability":"view"},{"type":"function","name":"keeper","inputs":[],"outputs":[{"name":"","type":"address","internalType":"address"}],"stateMutability":"view"},{"type":"function","name":"lastAccountingUpdate","inputs":[],"outputs":[{"name":"","type":"uint256","internalType":"uint256"}],"stateMutability":"view"},{"type":"function","name":"lastDepositAt","inputs":[{"name":"","type":"address","internalType":"address"}],"outputs":[{"name":"","type":"uint256","internalType":"uint256"}],"stateMutability":"view"},{"type":"function","name":"managementFeeBps","inputs":[],"outputs":[{"name":"","type":"uint256","internalType":"uint256"}],"stateMutability":"view"},{"type":"function","name":"maxTotalAssets","inputs":[],"outputs":[{"name":"","type":"uint256","internalType":"uint256"}],"stateMutability":"view"},{"type":"function","name":"maxWithdraw","inputs":[{"name":"owner_","type":"address","internalType":"address"}],"outputs":[{"name":"","type":"uint256","internalType":"uint256"}],"stateMutability":"view"},{"type":"function","name":"migrateStrategy","inputs":[{"name":"oldStrategy","type":"address","internalType":"address"},{"name":"newStrategy","type":"address","internalType":"address"},{"name":"migrationData","type":"bytes","internalType":"bytes"}],"outputs":[],"stateMutability":"nonpayable"},{"type":"function","name":"mint","inputs":[{"name":"shares","type":"uint256","internalType":"uint256"},{"name":"receiver","type":"address","internalType":"address"}],"outputs":[{"name":"assets","type":"uint256","internalType":"uint256"}],"stateMutability":"nonpayable"},{"type":"function","name":"name","inputs":[],"outputs":[{"name":"","type":"string","internalType":"string"}],"stateMutability":"view"},{"type":"function","name":"nonces","inputs":[{"name":"","type":"address","internalType":"address"}],"outputs":[{"name":"","type":"uint256","internalType":"uint256"}],"stateMutability":"view"},{"type":"function","name":"oracle","inputs":[],"outputs":[{"name":"","type":"address","internalType":"address"}],"stateMutability":"view"},{"type":"function","name":"owner","inputs":[],"outputs":[{"name":"","type":"address","internalType":"address"}],"stateMutability":"view"},{"type":"function","name":"pause","inputs":[{"name":"status","type":"bool","internalType":"bool"}],"outputs":[],"stateMutability":"nonpayable"},{"type":"function","name":"paused","inputs":[],"outputs":[{"name":"","type":"bool","internalType":"bool"}],"stateMutability":"view"},{"type":"function","name":"pendingOwner","inputs":[],"outputs":[{"name":"","type":"address","internalType":"address"}],"stateMutability":"view"},{"type":"function","name":"performanceFeeBps","inputs":[],"outputs":[{"name":"","type":"uint256","internalType":"uint256"}],"stateMutability":"view"},{"type":"function","name":"permit","inputs":[{"name":"owner_","type":"address","internalType":"address"},{"name":"spender","type":"address","internalType":"address"},{"name":"value","type":"uint256","internalType":"uint256"},{"name":"deadline","type":"uint256","internalType":"uint256"},{"name":"v","type":"uint8","internalType":"uint8"},{"name":"r","type":"bytes32","internalType":"bytes32"},{"name":"s","type":"bytes32","internalType":"bytes32"}],"outputs":[],"stateMutability":"nonpayable"},{"type":"function","name":"previewDeposit","inputs":[{"name":"assets","type":"uint256","internalType":"uint256"}],"outputs":[{"name":"","type":"uint256","internalType":"uint256"}],"stateMutability":"view"},{"type":"function","name":"previewMint","inputs":[{"name":"shares","type":"uint256","internalType":"uint256"}],"outputs":[{"name":"","type":"uint256","internalType":"uint256"}],"stateMutability":"view"},{"type":"function","name":"previewRedeem","inputs":[{"name":"shares","type":"uint256","internalType":"uint256"}],"outputs":[{"name":"","type":"uint256","internalType":"uint256"}],"stateMutability":"view"},{"type":"function","name":"previewWithdraw","inputs":[{"name":"assets","type":"uint256","internalType":"uint256"}],"outputs":[{"name":"","type":"uint256","internalType":"uint256"}],"stateMutability":"view"},{"type":"function","name":"pricePerShare","inputs":[],"outputs":[{"name":"","type":"uint256","internalType":"uint256"}],"stateMutability":"view"},{"type":"function","name":"recall","inputs":[{"name":"strategy","type":"address","internalType":"address"},{"name":"amount","type":"uint256","internalType":"uint256"},{"name":"receiver","type":"address","internalType":"address"}],"outputs":[{"name":"returnedAmount","type":"uint256","internalType":"uint256"}],"stateMutability":"nonpayable"},{"type":"function","name":"redeem","inputs":[{"name":"shares","type":"uint256","internalType":"uint256"},{"name":"receiver","type":"address","internalType":"address"},{"name":"owner_","type":"address","internalType":"address"}],"outputs":[{"name":"assets","type":"uint256","internalType":"uint256"}],"stateMutability":"nonpayable"},{"type":"function","name":"rescueNative","inputs":[{"name":"to","type":"address","internalType":"address payable"},{"name":"amount","type":"uint256","internalType":"uint256"}],"outputs":[],"stateMutability":"nonpayable"},{"type":"function","name":"rewardDebt","inputs":[{"name":"","type":"address","internalType":"address"}],"outputs":[{"name":"","type":"uint256","internalType":"uint256"}],"stateMutability":"view"},{"type":"function","name":"setAddresses","inputs":[{"name":"keeper_","type":"address","internalType":"address"},{"name":"treasury_","type":"address","internalType":"address"},{"name":"oracle_","type":"address","internalType":"address"},{"name":"withdrawHook_","type":"address","internalType":"address"}],"outputs":[],"stateMutability":"nonpayable"},{"type":"function","name":"setRiskParameters","inputs":[{"name":"managementFeeBps_","type":"uint256","internalType":"uint256"},{"name":"performanceFeeBps_","type":"uint256","internalType":"uint256"},{"name":"flashFeeBps_","type":"uint256","internalType":"uint256"},{"name":"withdrawDelay_","type":"uint256","internalType":"uint256"},{"name":"maxTotalAssets_","type":"uint256","internalType":"uint256"}],"outputs":[],"stateMutability":"nonpayable"},{"type":"function","name":"setStrategyLimit","inputs":[{"name":"strategy","type":"address","internalType":"address"},{"name":"idleLimit","type":"uint256","internalType":"uint256"}],"outputs":[],"stateMutability":"nonpayable"},{"type":"function","name":"strategies","inputs":[{"name":"","type":"address","internalType":"address"}],"outputs":[{"name":"active","type":"bool","internalType":"bool"},{"name":"trusted","type":"bool","internalType":"bool"},{"name":"targetBps","type":"uint16","internalType":"uint16"},{"name":"lastReport","type":"uint64","internalType":"uint64"},{"name":"debt","type":"uint256","internalType":"uint256"},{"name":"idleLimit","type":"uint256","internalType":"uint256"}],"stateMutability":"view"},{"type":"function","name":"strategiesLength","inputs":[],"outputs":[{"name":"","type":"uint256","internalType":"uint256"}],"stateMutability":"view"},{"type":"function","name":"strategyList","inputs":[{"name":"","type":"uint256","internalType":"uint256"}],"outputs":[{"name":"","type":"address","internalType":"address"}],"stateMutability":"view"},{"type":"function","name":"sweep","inputs":[{"name":"token","type":"address","internalType":"address"},{"name":"to","type":"address","internalType":"address"},{"name":"amount","type":"uint256","internalType":"uint256"}],"outputs":[],"stateMutability":"nonpayable"},{"type":"function","name":"symbol","inputs":[],"outputs":[{"name":"","type":"string","internalType":"string"}],"stateMutability":"view"},{"type":"function","name":"totalAssets","inputs":[],"outputs":[{"name":"","type":"uint256","internalType":"uint256"}],"stateMutability":"view"},{"type":"function","name":"totalManagedDebt","inputs":[],"outputs":[{"name":"","type":"uint256","internalType":"uint256"}],"stateMutability":"view"},{"type":"function","name":"totalSupply","inputs":[],"outputs":[{"name":"","type":"uint256","internalType":"uint256"}],"stateMutability":"view"},{"type":"function","name":"transfer","inputs":[{"name":"to","type":"address","internalType":"address"},{"name":"amount","type":"uint256","internalType":"uint256"}],"outputs":[{"name":"","type":"bool","internalType":"bool"}],"stateMutability":"nonpayable"},{"type":"function","name":"transferFrom","inputs":[{"name":"from","type":"address","internalType":"address"},{"name":"to","type":"address","internalType":"address"},{"name":"amount","type":"uint256","internalType":"uint256"}],"outputs":[{"name":"","type":"bool","internalType":"bool"}],"stateMutability":"nonpayable"},{"type":"function","name":"transferOwnership","inputs":[{"name":"newPendingOwner","type":"address","internalType":"address"}],"outputs":[],"stateMutability":"nonpayable"},{"type":"function","name":"treasury","inputs":[],"outputs":[{"name":"","type":"address","internalType":"address"}],"stateMutability":"view"},{"type":"function","name":"withdraw","inputs":[{"name":"assets","type":"uint256","internalType":"uint256"},{"name":"receiver","type":"address","internalType":"address"},{"name":"owner_","type":"address","internalType":"address"},{"name":"hookData","type":"bytes","internalType":"bytes"}],"outputs":[{"name":"shares","type":"uint256","internalType":"uint256"}],"stateMutability":"nonpayable"},{"type":"function","name":"withdrawDelay","inputs":[],"outputs":[{"name":"","type":"uint256","internalType":"uint256"}],"stateMutability":"view"},{"type":"function","name":"withdrawHook","inputs":[],"outputs":[{"name":"","type":"address","internalType":"address"}],"stateMutability":"view"},{"type":"event","name":"Approval","inputs":[{"name":"owner","type":"address","indexed":true,"internalType":"address"},{"name":"spender","type":"address","indexed":true,"internalType":"address"},{"name":"value","type":"uint256","indexed":false,"internalType":"uint256"}],"anonymous":false},{"type":"event","name":"Deposit","inputs":[{"name":"caller","type":"address","indexed":true,"internalType":"address"},{"name":"owner","type":"address","indexed":true,"internalType":"address"},{"name":"assets","type":"uint256","indexed":false,"internalType":"uint256"},{"name":"shares","type":"uint256","indexed":false,"internalType":"uint256"}],"anonymous":false},{"type":"event","name":"FlashLoan","inputs":[{"name":"borrower","type":"address","indexed":true,"internalType":"address"},{"name":"amount","type":"uint256","indexed":false,"internalType":"uint256"},{"name":"fee","type":"uint256","indexed":false,"internalType":"uint256"}],"anonymous":false},{"type":"event","name":"Paused","inputs":[{"name":"status","type":"bool","indexed":false,"internalType":"bool"}],"anonymous":false},{"type":"event","name":"Rebalanced","inputs":[{"name":"strategy","type":"address","indexed":true,"internalType":"address"},{"name":"amountDelta","type":"int256","indexed":false,"internalType":"int256"}],"anonymous":false},{"type":"event","name":"StrategyAdded","inputs":[{"name":"strategy","type":"address","indexed":true,"internalType":"address"},{"name":"targetBps","type":"uint16","indexed":false,"internalType":"uint16"},{"name":"trusted","type":"bool","indexed":false,"internalType":"bool"}],"anonymous":false},{"type":"event","name":"StrategyReported","inputs":[{"name":"strategy","type":"address","indexed":true,"internalType":"address"},{"name":"oldDebt","type":"uint256","indexed":false,"internalType":"uint256"},{"name":"newDebt","type":"uint256","indexed":false,"internalType":"uint256"},{"name":"keeperRewardShares","type":"uint256","indexed":false,"internalType":"uint256"}],"anonymous":false},{"type":"event","name":"Transfer","inputs":[{"name":"from","type":"address","indexed":true,"internalType":"address"},{"name":"to","type":"address","indexed":true,"internalType":"address"},{"name":"value","type":"uint256","indexed":false,"internalType":"uint256"}],"anonymous":false},{"type":"event","name":"Withdraw","inputs":[{"name":"caller","type":"address","indexed":true,"internalType":"address"},{"name":"receiver","type":"address","indexed":true,"internalType":"address"},{"name":"owner","type":"address","indexed":true,"internalType":"address"},{"name":"assets","type":"uint256","indexed":false,"internalType":"uint256"},{"name":"shares","type":"uint256","indexed":false,"internalType":"uint256"}],"anonymous":false}],"bytecode":{"object":"0x6080604052348015600e575f5ffd5b506190eb8061001c5f395ff3fe608060405260043610610413575f3560e01c80637dc0d1d01161021d578063bcd9ca3d11610122578063e0232b42116100aa578063ef8b30f711610079578063ef8b30f7146110a6578063f14faf6f146110e2578063f2fde38b1461111e578063f34fd6c614611146578063f47e284c146111705761041a565b8063e0232b4214610fee578063e30c39781461102a578063ec0aa00214611054578063ee7ae20d1461107e5761041a565b8063d4766e57116100f1578063d4766e5714610f0e578063d505accf14610f38578063d820f49214610f60578063dbbfaa7a14610f8a578063dd62ed3e14610fb25761041a565b8063bcd9ca3d14610e1e578063c31295d414610e5a578063c6e6f59214610e96578063ce96cb7714610ed25761041a565b8063a39506d4116101a5578063aced166111610174578063aced166114610d2a578063b01a955014610d54578063b3d7f6b914610d7c578063b9d4e87914610db8578063ba08765214610de25761041a565b8063a39506d414610c4c578063a5849ed014610c88578063a7b7e98814610cb2578063a9059cbb14610cee5761041a565b80638da5cb5b116101ec5780638da5cb5b14610b5657806394bf804d14610b8057806395d89b4114610bbc57806399530b0614610be6578063a267526b14610c105761041a565b80637dc0d1d014610a8c5780637ecebe0014610ab6578063801eab0014610af257806382290f0e14610b1a5761041a565b8063313ce567116103235780635873eb9b116102ab57806366dfd4891161027a57806366dfd489146109985780636e553f65146109c25780636f0b6ce0146109fe57806370a0823114610a3a57806379ba509714610a765761041a565b80635873eb9b146108e05780635c975abb1461091c57806361d027b31461094657806362c06767146109705761041a565b80633f74bb89116102f25780633f74bb89146107fe5780634a945f8d146108285780634cdad50614610850578063508ffd381461088c57806357d775f8146108b65761041a565b8063313ce5671461073f5780633813c35a1461076957806338d52e0f1461079357806339ebf823146107bd5761041a565b80630e5c011e116103a65780631c75e369116103755780631c75e369146106595780631e8410da146106815780631e897afb146106ab5780632016a0d2146106db57806323b872dd146107035761041a565b80630e5c011e146105a05780631291f79d146105dd578063158ef93e1461060557806318160ddd1461062f5761041a565b806307a2d13a116103e257806307a2d13a146104c4578063095ea7b3146105005780630a28a4771461053c5780630b9af371146105785761041a565b806301e1d1141461041e57806302329a29146104485780630288a39c1461047057806306fdde031461049a5761041a565b3661041a57005b5f5ffd5b348015610429575f5ffd5b50610432611198565b60405161043f91906168be565b60405180910390f35b348015610453575f5ffd5b5061046e6004803603810190610469919061691d565b611245565b005b34801561047b575f5ffd5b506104846113d5565b60405161049191906168be565b60405180910390f35b3480156104a5575f5ffd5b506104ae6113db565b6040516104bb91906169b8565b60405180910390f35b3480156104cf575f5ffd5b506104ea60048036038101906104e59190616a02565b611466565b6040516104f791906168be565b60405180910390f35b34801561050b575f5ffd5b5061052660048036038101906105219190616a87565b6114a4565b6040516105339190616ad4565b60405180910390f35b348015610547575f5ffd5b50610562600480360381019061055d9190616a02565b611591565b60405161056f91906168be565b60405180910390f35b348015610583575f5ffd5b5061059e60048036038101906105999190616ba3565b6115cf565b005b3480156105ab575f5ffd5b506105c660048036038101906105c19190616c34565b611a4d565b6040516105d4929190616c5f565b60405180910390f35b3480156105e8575f5ffd5b5061060360048036038101906105fe9190616cc1565b611eb8565b005b348015610610575f5ffd5b5061061961203d565b6040516106269190616ad4565b60405180910390f35b34801561063a575f5ffd5b50610643612050565b60405161065091906168be565b60405180910390f35b348015610664575f5ffd5b5061067f600480360381019061067a9190616d54565b612056565b005b34801561068c575f5ffd5b506106956124a1565b6040516106a291906168be565b60405180910390f35b6106c560048036038101906106c09190616dc5565b6124a7565b6040516106d29190616f1d565b60405180910390f35b3480156106e6575f5ffd5b5061070160048036038101906106fc9190617065565b6126f3565b005b34801561070e575f5ffd5b5061072960048036038101906107249190617101565b612954565b6040516107369190616ad4565b60405180910390f35b34801561074a575f5ffd5b50610753612b75565b604051610760919061716c565b60405180910390f35b348015610774575f5ffd5b5061077d612b87565b60405161078a91906168be565b60405180910390f35b34801561079e575f5ffd5b506107a7612b8d565b6040516107b491906171e0565b60405180910390f35b3480156107c8575f5ffd5b506107e360048036038101906107de9190616c34565b612bb3565b6040516107f596959493929190617237565b60405180910390f35b348015610809575f5ffd5b50610812612c23565b60405161081f91906168be565b60405180910390f35b348015610833575f5ffd5b5061084e60048036038101906108499190617296565b612c2f565b005b34801561085b575f5ffd5b5061087660048036038101906108719190616a02565b612e1b565b60405161088391906168be565b60405180910390f35b348015610897575f5ffd5b506108a0612e2c565b6040516108ad91906168be565b60405180910390f35b3480156108c1575f5ffd5b506108ca612e32565b6040516108d791906168be565b60405180910390f35b3480156108eb575f5ffd5b5061090660048036038101906109019190616c34565b612e38565b60405161091391906168be565b60405180910390f35b348015610927575f5ffd5b50610930612e4d565b60405161093d9190616ad4565b60405180910390f35b348015610951575f5ffd5b5061095a612e5f565b6040516109679190617309565b60405180910390f35b34801561097b575f5ffd5b5061099660048036038101906109919190617101565b612e84565b005b3480156109a3575f5ffd5b506109ac613136565b6040516109b991906168be565b60405180910390f35b3480156109cd575f5ffd5b506109e860048036038101906109e39190617322565b61313c565b6040516109f591906168be565b60405180910390f35b348015610a09575f5ffd5b50610a246004803603810190610a1f9190616c34565b613397565b604051610a3191906168be565b60405180910390f35b348015610a45575f5ffd5b50610a606004803603810190610a5b9190616c34565b6133ac565b604051610a6d91906168be565b60405180910390f35b348015610a81575f5ffd5b50610a8a6133c1565b005b348015610a97575f5ffd5b50610aa06134d2565b604051610aad9190617309565b60405180910390f35b348015610ac1575f5ffd5b50610adc6004803603810190610ad79190616c34565b6134f7565b604051610ae991906168be565b60405180910390f35b348015610afd575f5ffd5b50610b186004803603810190610b139190616a87565b61350c565b005b348015610b25575f5ffd5b50610b406004803603810190610b3b9190617360565b613692565b604051610b4d91906168be565b60405180910390f35b348015610b61575f5ffd5b50610b6a6139bc565b604051610b779190617309565b60405180910390f35b348015610b8b575f5ffd5b50610ba66004803603810190610ba19190617322565b6139e1565b604051610bb391906168be565b60405180910390f35b348015610bc7575f5ffd5b50610bd0613b98565b604051610bdd91906169b8565b60405180910390f35b348015610bf1575f5ffd5b50610bfa613c24565b604051610c0791906168be565b60405180910390f35b348015610c1b575f5ffd5b50610c366004803603810190610c319190616a02565b613c6c565b604051610c439190617309565b60405180910390f35b348015610c57575f5ffd5b50610c726004803603810190610c6d919061740d565b613ca7565b604051610c7f91906168be565b60405180910390f35b348015610c93575f5ffd5b50610c9c613f31565b604051610ca991906168be565b60405180910390f35b348015610cbd575f5ffd5b50610cd86004803603810190610cd39190617484565b613f37565b604051610ce591906168be565b60405180910390f35b348015610cf9575f5ffd5b50610d146004803603810190610d0f9190616a87565b61420d565b604051610d219190616ad4565b60405180910390f35b348015610d35575f5ffd5b50610d3e614223565b604051610d4b9190617309565b60405180910390f35b348015610d5f575f5ffd5b50610d7a6004803603810190610d759190617532565b614248565b005b348015610d87575f5ffd5b50610da26004803603810190610d9d9190616a02565b61456e565b604051610daf91906168be565b60405180910390f35b348015610dc3575f5ffd5b50610dcc6145ac565b604051610dd991906168be565b60405180910390f35b348015610ded575f5ffd5b50610e086004803603810190610e039190617582565b6145b2565b604051610e1591906168be565b60405180910390f35b348015610e29575f5ffd5b50610e446004803603810190610e3f91906175d2565b614882565b604051610e5191906168be565b60405180910390f35b348015610e65575f5ffd5b50610e806004803603810190610e7b9190616c34565b614bb5565b604051610e8d91906168be565b60405180910390f35b348015610ea1575f5ffd5b50610ebc6004803603810190610eb79190616a02565b614bca565b604051610ec991906168be565b60405180910390f35b348015610edd575f5ffd5b50610ef86004803603810190610ef39190616c34565b614c08565b604051610f0591906168be565b60405180910390f35b348015610f19575f5ffd5b50610f22614c56565b604051610f2f9190617309565b60405180910390f35b348015610f43575f5ffd5b50610f5e6004803603810190610f599190617622565b614c7b565b005b348015610f6b575f5ffd5b50610f74614f2a565b604051610f8191906168be565b60405180910390f35b348015610f95575f5ffd5b50610fb06004803603810190610fab91906176bf565b614f30565b005b348015610fbd575f5ffd5b50610fd86004803603810190610fd39190617730565b6154c1565b604051610fe591906168be565b60405180910390f35b348015610ff9575f5ffd5b50611014600480360381019061100f9190616d54565b6154e1565b6040516110219190616ad4565b60405180910390f35b348015611035575f5ffd5b5061103e6158ca565b60405161104b9190617309565b60405180910390f35b34801561105f575f5ffd5b506110686158ef565b60405161107591906168be565b60405180910390f35b348015611089575f5ffd5b506110a4600480360381019061109f919061776e565b6158f5565b005b3480156110b1575f5ffd5b506110cc60048036038101906110c79190616a02565b615a63565b6040516110d991906168be565b60405180910390f35b3480156110ed575f5ffd5b5061110860048036038101906111039190616a02565b615a74565b60405161111591906168be565b60405180910390f35b348015611129575f5ffd5b50611144600480360381019061113f9190616c34565b615a8e565b005b348015611151575f5ffd5b5061115a615bb7565b60405161116791906168be565b60405180910390f35b34801561117b575f5ffd5b5061119660048036038101906111919190616dc5565b615c47565b005b5f600a54600260019054906101000a900473ffffffffffffffffffffffffffffffffffffffff1673ffffffffffffffffffffffffffffffffffffffff166370a08231306040518263ffffffff1660e01b81526004016111f79190617309565b602060405180830381865afa158015611212573d5f5f3e3d5ffd5b505050506040513d601f19601f8201168201806040525081019061123691906177f9565b6112409190617851565b905090565b60055f9054906101000a900473ffffffffffffffffffffffffffffffffffffffff1673ffffffffffffffffffffffffffffffffffffffff163373ffffffffffffffffffffffffffffffffffffffff1614806112ec575060035f9054906101000a900473ffffffffffffffffffffffffffffffffffffffff1673ffffffffffffffffffffffffffffffffffffffff163373ffffffffffffffffffffffffffffffffffffffff16145b80611343575060055f9054906101000a900473ffffffffffffffffffffffffffffffffffffffff1673ffffffffffffffffffffffffffffffffffffffff163273ffffffffffffffffffffffffffffffffffffffff16145b611382576040517f08c379a0000000000000000000000000000000000000000000000000000000008152600401611379906178ce565b60405180910390fd5b8060145f6101000a81548160ff0219169083151502179055507f0e2fb031ee032dc02d8011dc50b816eb450cf856abd8261680dac74f72165bd2816040516113ca9190616ad4565b60405180910390a150565b600d5481565b5f80546113e790617919565b80601f016020809104026020016040519081016040528092919081815260200182805461141390617919565b801561145e5780601f106114355761010080835404028352916020019161145e565b820191905f5260205f20905b81548152906001019060200180831161144157829003601f168201915b505050505081565b5f5f60095490505f810361147d578291505061149f565b80611486611198565b846114919190617949565b61149b91906179b7565b9150505b919050565b5f8160165f3373ffffffffffffffffffffffffffffffffffffffff1673ffffffffffffffffffffffffffffffffffffffff1681526020019081526020015f205f8573ffffffffffffffffffffffffffffffffffffffff1673ffffffffffffffffffffffffffffffffffffffff1681526020019081526020015f20819055508273ffffffffffffffffffffffffffffffffffffffff163373ffffffffffffffffffffffffffffffffffffffff167f8c5be1e5ebec7d5bd14f71427d1e84f3dd0314c0f7b2291e5b200ac8c7c3b9258460405161157f91906168be565b60405180910390a36001905092915050565b5f5f60095490505f81036115a857829150506115ca565b6115b0611198565b81846115bc9190617949565b6115c691906179b7565b9150505b919050565b60055f9054906101000a900473ffffffffffffffffffffffffffffffffffffffff1673ffffffffffffffffffffffffffffffffffffffff163373ffffffffffffffffffffffffffffffffffffffff161480611676575060035f9054906101000a900473ffffffffffffffffffffffffffffffffffffffff1673ffffffffffffffffffffffffffffffffffffffff163373ffffffffffffffffffffffffffffffffffffffff16145b806116cd575060055f9054906101000a900473ffffffffffffffffffffffffffffffffffffffff1673ffffffffffffffffffffffffffffffffffffffff163273ffffffffffffffffffffffffffffffffffffffff16145b61170c576040517f08c379a0000000000000000000000000000000000000000000000000000000008152600401611703906178ce565b60405180910390fd5b5f600260019054906101000a900473ffffffffffffffffffffffffffffffffffffffff1673ffffffffffffffffffffffffffffffffffffffff166370a08231306040518263ffffffff1660e01b81526004016117689190617309565b602060405180830381865afa158015611783573d5f5f3e3d5ffd5b505050506040513d601f19601f820116820180604052508101906117a791906177f9565b90505f5f90505b868690508110156118a1575f8787838181106117cd576117cc6179e7565b5b90506020020160208101906117e29190616c34565b73ffffffffffffffffffffffffffffffffffffffff166370a08231306040518263ffffffff1660e01b815260040161181a9190617309565b602060405180830381865afa158015611835573d5f5f3e3d5ffd5b505050506040513d601f19601f8201168201806040525081019061185991906177f9565b90505f811461189557611894888884818110611878576118776179e7565b5b905060200201602081019061188d9190616c34565b3083615f49565b5b508060010190506117ae565b505f5f90505b8484905081101561195d575f5f8686848181106118c7576118c66179e7565b5b90506020028101906118d99190617a20565b8101906118e69190617b20565b915091508173ffffffffffffffffffffffffffffffffffffffff168160405161190f9190617bb4565b5f604051808303815f865af19150503d805f8114611948576040519150601f19603f3d011682016040523d82523d5f602084013e61194d565b606091505b50505050508060010190506118a7565b508181600260019054906101000a900473ffffffffffffffffffffffffffffffffffffffff1673ffffffffffffffffffffffffffffffffffffffff166370a08231306040518263ffffffff1660e01b81526004016119bb9190617309565b602060405180830381865afa1580156119d6573d5f5f3e3d5ffd5b505050506040513d601f19601f820116820180604052508101906119fa91906177f9565b611a049190617bca565b1015611a45576040517f08c379a0000000000000000000000000000000000000000000000000000000008152600401611a3c90617c47565b60405180910390fd5b505050505050565b5f5f60055f9054906101000a900473ffffffffffffffffffffffffffffffffffffffff1673ffffffffffffffffffffffffffffffffffffffff163373ffffffffffffffffffffffffffffffffffffffff161480611af6575060035f9054906101000a900473ffffffffffffffffffffffffffffffffffffffff1673ffffffffffffffffffffffffffffffffffffffff163373ffffffffffffffffffffffffffffffffffffffff16145b80611b4d575060055f9054906101000a900473ffffffffffffffffffffffffffffffffffffffff1673ffffffffffffffffffffffffffffffffffffffff163273ffffffffffffffffffffffffffffffffffffffff16145b611b8c576040517f08c379a0000000000000000000000000000000000000000000000000000000008152600401611b83906178ce565b60405180910390fd5b60145f9054906101000a900460ff1615611bdb576040517f08c379a0000000000000000000000000000000000000000000000000000000008152600401611bd290617caf565b60405180910390fd5b5f601b5f8573ffffffffffffffffffffffffffffffffffffffff1673ffffffffffffffffffffffffffffffffffffffff1681526020019081526020015f209050805f015f9054906101000a900460ff16611c6a576040517f08c379a0000000000000000000000000000000000000000000000000000000008152600401611c6190617d17565b60405180910390fd5b5f816001015490508473ffffffffffffffffffffffffffffffffffffffff1663efbb5cb06040518163ffffffff1660e01b81526004016020604051808303815f875af1158015611cbc573d5f5f3e3d5ffd5b505050506040513d601f19601f82011682018060405250810190611ce091906177f9565b935080841115611dee575f8185611cf79190617bca565b90505f61271060115483611d0b9190617949565b611d1591906179b7565b90505f64496cebb800600c5442611d2c9190617bca565b601054611d37611198565b611d419190617949565b611d4b9190617949565b611d5591906179b7565b90505f611d6c8284611d679190617851565b614bca565b9050600881611d7b91906179b7565b96505f811115611db157611db060065f9054906101000a900473ffffffffffffffffffffffffffffffffffffffff1682616043565b5b5f871115611dc457611dc33388616043565b5b83600a5f828254611dd59190617851565b9250508190555087866001018190555050505050611e20565b5f8482611dfb9190617bca565b905084836001018190555080600a5f828254611e179190617bca565b92505081905550505b611e28613c24565b600b8190555042825f0160046101000a81548167ffffffffffffffff021916908367ffffffffffffffff16021790555042600c819055508473ffffffffffffffffffffffffffffffffffffffff167f6fbdf847c78f04eac7a7a77e1073af6eeec604ee0b495240579dccf57fcf2d88828686604051611ea993929190617d35565b60405180910390a25050915091565b60055f9054906101000a900473ffffffffffffffffffffffffffffffffffffffff1673ffffffffffffffffffffffffffffffffffffffff163373ffffffffffffffffffffffffffffffffffffffff161480611f5f575060035f9054906101000a900473ffffffffffffffffffffffffffffffffffffffff1673ffffffffffffffffffffffffffffffffffffffff163373ffffffffffffffffffffffffffffffffffffffff16145b80611fb6575060055f9054906101000a900473ffffffffffffffffffffffffffffffffffffffff1673ffffffffffffffffffffffffffffffffffffffff163273ffffffffffffffffffffffffffffffffffffffff16145b611ff5576040517f08c379a0000000000000000000000000000000000000000000000000000000008152600401611fec906178ce565b60405180910390fd5b8173ffffffffffffffffffffffffffffffffffffffff166108fc8290811502906040515f60405180830381858888f19350505050158015612038573d5f5f3e3d5ffd5b505050565b601460019054906101000a900460ff1681565b60095481565b60055f9054906101000a900473ffffffffffffffffffffffffffffffffffffffff1673ffffffffffffffffffffffffffffffffffffffff163373ffffffffffffffffffffffffffffffffffffffff1614806120fd575060035f9054906101000a900473ffffffffffffffffffffffffffffffffffffffff1673ffffffffffffffffffffffffffffffffffffffff163373ffffffffffffffffffffffffffffffffffffffff16145b80612154575060055f9054906101000a900473ffffffffffffffffffffffffffffffffffffffff1673ffffffffffffffffffffffffffffffffffffffff163273ffffffffffffffffffffffffffffffffffffffff16145b612193576040517f08c379a000000000000000000000000000000000000000000000000000000000815260040161218a906178ce565b60405180910390fd5b60145f9054906101000a900460ff16156121e2576040517f08c379a00000000000000000000000000000000000000000000000000000000081526004016121d990617caf565b60405180910390fd5b5f601b5f8673ffffffffffffffffffffffffffffffffffffffff1673ffffffffffffffffffffffffffffffffffffffff1681526020019081526020015f209050805f015f9054906101000a900460ff16612271576040517f08c379a000000000000000000000000000000000000000000000000000000000815260040161226890617d17565b60405180910390fd5b600260019054906101000a900473ffffffffffffffffffffffffffffffffffffffff1673ffffffffffffffffffffffffffffffffffffffff166370a08231306040518263ffffffff1660e01b81526004016122cc9190617309565b602060405180830381865afa1580156122e7573d5f5f3e3d5ffd5b505050506040513d601f19601f8201168201806040525081019061230b91906177f9565b84111561234d576040517f08c379a000000000000000000000000000000000000000000000000000000000815260040161234490617db4565b60405180910390fd5b83816001015f8282546123609190617851565b9250508190555083600a5f8282546123789190617851565b92505081905550612389858561610e565b5f8573ffffffffffffffffffffffffffffffffffffffff1684846040516123b1929190617df6565b5f604051808303815f865af19150503d805f81146123ea576040519150601f19603f3d011682016040523d82523d5f602084013e6123ef565b606091505b50509050808061240c5750815f0160019054906101000a900460ff165b61244b576040517f08c379a000000000000000000000000000000000000000000000000000000000815260040161244290617e58565b60405180910390fd5b8573ffffffffffffffffffffffffffffffffffffffff167f0ac6e50dd9423aee4a70f11c10413c95f8808258de937f3d605c46277a1be320866040516124919190617e8e565b60405180910390a2505050505050565b600b5481565b606060035f9054906101000a900473ffffffffffffffffffffffffffffffffffffffff1673ffffffffffffffffffffffffffffffffffffffff163373ffffffffffffffffffffffffffffffffffffffff161480612550575060035f9054906101000a900473ffffffffffffffffffffffffffffffffffffffff1673ffffffffffffffffffffffffffffffffffffffff163273ffffffffffffffffffffffffffffffffffffffff16145b61258f576040517f08c379a000000000000000000000000000000000000000000000000000000000815260040161258690617ef1565b60405180910390fd5b8282905067ffffffffffffffff8111156125ac576125ab616f41565b5b6040519080825280602002602001820160405280156125df57816020015b60608152602001906001900390816125ca5790505b5090505f5f90505b838390508110156126ec575f5f3073ffffffffffffffffffffffffffffffffffffffff1686868581811061261e5761261d6179e7565b5b90506020028101906126309190617a20565b60405161263e929190617df6565b5f60405180830381855af49150503d805f8114612676576040519150601f19603f3d011682016040523d82523d5f602084013e61267b565b606091505b5091509150816126c0576040517f08c379a00000000000000000000000000000000000000000000000000000000081526004016126b790617f59565b60405180910390fd5b808484815181106126d4576126d36179e7565b5b602002602001018190525050508060010190506125e7565b5092915050565b83600260016101000a81548173ffffffffffffffffffffffffffffffffffffffff021916908373ffffffffffffffffffffffffffffffffffffffff1602179055508260065f6101000a81548173ffffffffffffffffffffffffffffffffffffffff021916908373ffffffffffffffffffffffffffffffffffffffff1602179055503360035f6101000a81548173ffffffffffffffffffffffffffffffffffffffff021916908373ffffffffffffffffffffffffffffffffffffffff1602179055503360055f6101000a81548173ffffffffffffffffffffffffffffffffffffffff021916908373ffffffffffffffffffffffffffffffffffffffff160217905550815f9081612802919061811f565b508060019081612812919061811f565b5062015180600d81905550615460600e819055506008600f8190555060326010819055506105dc6011819055507fffffffffffffffffffffffffffffffffffffffffffffffffffffffffffffffff601281905550670de0b6b3a764000060138190555042600c81905550670de0b6b3a7640000600b819055508373ffffffffffffffffffffffffffffffffffffffff1663313ce5676040518163ffffffff1660e01b8152600401602060405180830381865afa9250505080156128f357506040513d601f19601f820116820180604052508101906128f09190618202565b60015b61291757601260025f6101000a81548160ff021916908360ff160217905550612933565b8060025f6101000a81548160ff021916908360ff160217905550505b6001601460016101000a81548160ff02191690831515021790555050505050565b5f5f60165f8673ffffffffffffffffffffffffffffffffffffffff1673ffffffffffffffffffffffffffffffffffffffff1681526020019081526020015f205f3373ffffffffffffffffffffffffffffffffffffffff1673ffffffffffffffffffffffffffffffffffffffff1681526020019081526020015f205490507fffffffffffffffffffffffffffffffffffffffffffffffffffffffffffffffff8114612b5e578281612a049190617bca565b60165f8773ffffffffffffffffffffffffffffffffffffffff1673ffffffffffffffffffffffffffffffffffffffff1681526020019081526020015f205f3373ffffffffffffffffffffffffffffffffffffffff1673ffffffffffffffffffffffffffffffffffffffff1681526020019081526020015f20819055503373ffffffffffffffffffffffffffffffffffffffff168573ffffffffffffffffffffffffffffffffffffffff167f8c5be1e5ebec7d5bd14f71427d1e84f3dd0314c0f7b2291e5b200ac8c7c3b92560165f8973ffffffffffffffffffffffffffffffffffffffff1673ffffffffffffffffffffffffffffffffffffffff1681526020019081526020015f205f3373ffffffffffffffffffffffffffffffffffffffff1673ffffffffffffffffffffffffffffffffffffffff1681526020019081526020015f2054604051612b5591906168be565b60405180910390a35b612b69858585616254565b60019150509392505050565b60025f9054906101000a900460ff1681565b60105481565b600260019054906101000a900473ffffffffffffffffffffffffffffffffffffffff1681565b601b602052805f5260405f205f91509050805f015f9054906101000a900460ff1690805f0160019054906101000a900460ff1690805f0160029054906101000a900461ffff1690805f0160049054906101000a900467ffffffffffffffff16908060010154908060020154905086565b5f601c80549050905090565b60035f9054906101000a900473ffffffffffffffffffffffffffffffffffffffff1673ffffffffffffffffffffffffffffffffffffffff163373ffffffffffffffffffffffffffffffffffffffff161480612cd6575060035f9054906101000a900473ffffffffffffffffffffffffffffffffffffffff1673ffffffffffffffffffffffffffffffffffffffff163273ffffffffffffffffffffffffffffffffffffffff16145b612d15576040517f08c379a0000000000000000000000000000000000000000000000000000000008152600401612d0c90617ef1565b60405180910390fd5b8360055f6101000a81548173ffffffffffffffffffffffffffffffffffffffff021916908373ffffffffffffffffffffffffffffffffffffffff1602179055508260065f6101000a81548173ffffffffffffffffffffffffffffffffffffffff021916908373ffffffffffffffffffffffffffffffffffffffff1602179055508160075f6101000a81548173ffffffffffffffffffffffffffffffffffffffff021916908373ffffffffffffffffffffffffffffffffffffffff1602179055508060085f6101000a81548173ffffffffffffffffffffffffffffffffffffffff021916908373ffffffffffffffffffffffffffffffffffffffff16021790555050505050565b5f612e2582611466565b9050919050565b60135481565b600e5481565b6019602052805f5260405f205f915090505481565b60145f9054906101000a900460ff1681565b60065f9054906101000a900473ffffffffffffffffffffffffffffffffffffffff1681565b60035f9054906101000a900473ffffffffffffffffffffffffffffffffffffffff1673ffffffffffffffffffffffffffffffffffffffff163373ffffffffffffffffffffffffffffffffffffffff161480612f2b575060035f9054906101000a900473ffffffffffffffffffffffffffffffffffffffff1673ffffffffffffffffffffffffffffffffffffffff163273ffffffffffffffffffffffffffffffffffffffff16145b612f6a576040517f08c379a0000000000000000000000000000000000000000000000000000000008152600401612f6190617ef1565b60405180910390fd5b600260019054906101000a900473ffffffffffffffffffffffffffffffffffffffff1673ffffffffffffffffffffffffffffffffffffffff168373ffffffffffffffffffffffffffffffffffffffff16141580612fd2575060145f9054906101000a900460ff165b613011576040517f08c379a000000000000000000000000000000000000000000000000000000000815260040161300890618277565b60405180910390fd5b5f8373ffffffffffffffffffffffffffffffffffffffff1663a9059cbb60e01b8484604051602401613044929190618295565b604051602081830303815290604052907bffffffffffffffffffffffffffffffffffffffffffffffffffffffff19166020820180517bffffffffffffffffffffffffffffffffffffffffffffffffffffffff83818316178352505050506040516130ae9190617bb4565b5f604051808303815f865af19150503d805f81146130e7576040519150601f19603f3d011682016040523d82523d5f602084013e6130ec565b606091505b5050905080613130576040517f08c379a000000000000000000000000000000000000000000000000000000000815260040161312790618306565b60405180910390fd5b50505050565b600f5481565b5f60145f9054906101000a900460ff161561318c576040517f08c379a000000000000000000000000000000000000000000000000000000000815260040161318390617caf565b60405180910390fd5b5f83116131ce576040517f08c379a00000000000000000000000000000000000000000000000000000000081526004016131c59061836e565b60405180910390fd5b601254836131da611198565b6131e49190617851565b1115613225576040517f08c379a000000000000000000000000000000000000000000000000000000000815260040161321c906183d6565b60405180910390fd5b61322e83614bca565b905061323a8282616043565b4260185f8473ffffffffffffffffffffffffffffffffffffffff1673ffffffffffffffffffffffffffffffffffffffff1681526020019081526020015f2081905550670de0b6b3a764000061328d613c24565b60155f8573ffffffffffffffffffffffffffffffffffffffff1673ffffffffffffffffffffffffffffffffffffffff1681526020019081526020015f20546132d59190617949565b6132df91906179b7565b60195f8473ffffffffffffffffffffffffffffffffffffffff1673ffffffffffffffffffffffffffffffffffffffff1681526020019081526020015f208190555061332a338461635b565b8173ffffffffffffffffffffffffffffffffffffffff163373ffffffffffffffffffffffffffffffffffffffff167fdcbc1c05240f31ff3ad067ef1ee35ce4997762752e3a095284754544f4c709d78584604051613389929190616c5f565b60405180910390a392915050565b601a602052805f5260405f205f915090505481565b6015602052805f5260405f205f915090505481565b5f73ffffffffffffffffffffffffffffffffffffffff1660045f9054906101000a900473ffffffffffffffffffffffffffffffffffffffff1673ffffffffffffffffffffffffffffffffffffffff1603613450576040517f08c379a00000000000000000000000000000000000000000000000000000000081526004016134479061843e565b60405180910390fd5b3360035f6101000a81548173ffffffffffffffffffffffffffffffffffffffff021916908373ffffffffffffffffffffffffffffffffffffffff1602179055505f60045f6101000a81548173ffffffffffffffffffffffffffffffffffffffff021916908373ffffffffffffffffffffffffffffffffffffffff160217905550565b60075f9054906101000a900473ffffffffffffffffffffffffffffffffffffffff1681565b6017602052805f5260405f205f915090505481565b60055f9054906101000a900473ffffffffffffffffffffffffffffffffffffffff1673ffffffffffffffffffffffffffffffffffffffff163373ffffffffffffffffffffffffffffffffffffffff1614806135b3575060035f9054906101000a900473ffffffffffffffffffffffffffffffffffffffff1673ffffffffffffffffffffffffffffffffffffffff163373ffffffffffffffffffffffffffffffffffffffff16145b8061360a575060055f9054906101000a900473ffffffffffffffffffffffffffffffffffffffff1673ffffffffffffffffffffffffffffffffffffffff163273ffffffffffffffffffffffffffffffffffffffff16145b613649576040517f08c379a0000000000000000000000000000000000000000000000000000000008152600401613640906178ce565b60405180910390fd5b80601b5f8473ffffffffffffffffffffffffffffffffffffffff1673ffffffffffffffffffffffffffffffffffffffff1681526020019081526020015f20600201819055505050565b5f60145f9054906101000a900460ff16156136e2576040517f08c379a00000000000000000000000000000000000000000000000000000000081526004016136d990617caf565b60405180910390fd5b5f73ffffffffffffffffffffffffffffffffffffffff1660075f9054906101000a900473ffffffffffffffffffffffffffffffffffffffff1673ffffffffffffffffffffffffffffffffffffffff1603613771576040517f08c379a0000000000000000000000000000000000000000000000000000000008152600401613768906184a6565b60405180910390fd5b5f5f60075f9054906101000a900473ffffffffffffffffffffffffffffffffffffffff1673ffffffffffffffffffffffffffffffffffffffff1663aea91078600260019054906101000a900473ffffffffffffffffffffffffffffffffffffffff166040518263ffffffff1660e01b81526004016137ef9190617309565b6040805180830381865afa158015613809573d5f5f3e3d5ffd5b505050506040513d601f19601f8201168201806040525081019061382d91906184c4565b915091505f82118061384b5750611c2081426138499190617bca565b105b61388a576040517f08c379a00000000000000000000000000000000000000000000000000000000081526004016138819061854c565b60405180910390fd5b670de0b6b3a76400008261389d88614bca565b6138a79190617949565b6138b191906179b7565b9250838310156138f6576040517f08c379a00000000000000000000000000000000000000000000000000000000081526004016138ed906185b4565b60405180910390fd5b6139008584616043565b4260185f8773ffffffffffffffffffffffffffffffffffffffff1673ffffffffffffffffffffffffffffffffffffffff1681526020019081526020015f208190555061394c338761635b565b8473ffffffffffffffffffffffffffffffffffffffff163373ffffffffffffffffffffffffffffffffffffffff167fdcbc1c05240f31ff3ad067ef1ee35ce4997762752e3a095284754544f4c709d788866040516139ab929190616c5f565b60405180910390a350509392505050565b60035f9054906101000a900473ffffffffffffffffffffffffffffffffffffffff1681565b5f60145f9054906101000a900460ff1615613a31576040517f08c379a0000000000000000000000000000000000000000000000000000000008152600401613a2890617caf565b60405180910390fd5b5f8311613a73576040517f08c379a0000000000000000000000000000000000000000000000000000000008152600401613a6a9061861c565b60405180910390fd5b613a7c8361456e565b905060125481613a8a611198565b613a949190617851565b1115613ad5576040517f08c379a0000000000000000000000000000000000000000000000000000000008152600401613acc906183d6565b60405180910390fd5b613adf8284616043565b4260185f8473ffffffffffffffffffffffffffffffffffffffff1673ffffffffffffffffffffffffffffffffffffffff1681526020019081526020015f2081905550613b2b338261635b565b8173ffffffffffffffffffffffffffffffffffffffff163373ffffffffffffffffffffffffffffffffffffffff167fdcbc1c05240f31ff3ad067ef1ee35ce4997762752e3a095284754544f4c709d78386604051613b8a929190616c5f565b60405180910390a392915050565b60018054613ba590617919565b80601f0160208091040260200160405190810160405280929190818152602001828054613bd190617919565b8015613c1c5780601f10613bf357610100808354040283529160200191613c1c565b820191905f5260205f20905b815481529060010190602001808311613bff57829003601f168201915b505050505081565b5f5f60095403613c3e57670de0b6b3a76400009050613c69565b600954670de0b6b3a7640000613c52611198565b613c5c9190617949565b613c6691906179b7565b90505b90565b601c8181548110613c7b575f80fd5b905f5260205f20015f915054906101000a900473ffffffffffffffffffffffffffffffffffffffff1681565b5f60145f9054906101000a900460ff1615613cf7576040517f08c379a0000000000000000000000000000000000000000000000000000000008152600401613cee90617caf565b60405180910390fd5b42851015613d3a576040517f08c379a0000000000000000000000000000000000000000000000000000000008152600401613d3190618684565b60405180910390fd5b5f30338888604051602001613d529493929190618707565b6040516020818303038152906040528051906020012090505f6001613d76836164a3565b8787876040515f8152602001604052604051613d959493929190618763565b6020604051602081039080840390855afa158015613db5573d5f5f3e3d5ffd5b50505060206040510351905060035f9054906101000a900473ffffffffffffffffffffffffffffffffffffffff1673ffffffffffffffffffffffffffffffffffffffff168173ffffffffffffffffffffffffffffffffffffffff161480613e68575060055f9054906101000a900473ffffffffffffffffffffffffffffffffffffffff1673ffffffffffffffffffffffffffffffffffffffff168173ffffffffffffffffffffffffffffffffffffffff16145b613ea7576040517f08c379a0000000000000000000000000000000000000000000000000000000008152600401613e9e906187f0565b60405180910390fd5b87601a5f3373ffffffffffffffffffffffffffffffffffffffff1673ffffffffffffffffffffffffffffffffffffffff1681526020019081526020015f205f828254613ef39190617851565b92505081905550613f02613c24565b60135489613f109190617949565b613f1a91906179b7565b9250613f263384616043565b505095945050505050565b600a5481565b5f60145f9054906101000a900460ff1615613f87576040517f08c379a0000000000000000000000000000000000000000000000000000000008152600401613f7e90617caf565b60405180910390fd5b5f8611613fc9576040517f08c379a0000000000000000000000000000000000000000000000000000000008152600401613fc09061836e565b60405180910390fd5b613fd286611591565b9050613fdf8433836164d2565b613fe884616715565b5f73ffffffffffffffffffffffffffffffffffffffff1660085f9054906101000a900473ffffffffffffffffffffffffffffffffffffffff1673ffffffffffffffffffffffffffffffffffffffff16146140ce5760085f9054906101000a900473ffffffffffffffffffffffffffffffffffffffff1673ffffffffffffffffffffffffffffffffffffffff1663694d3f353386898588886040518763ffffffff1660e01b81526004016140a09695949392919061884a565b5f604051808303815f87803b1580156140b7575f5ffd5b505af11580156140c9573d5f5f3e3d5ffd5b505050505b6140d8858761610e565b6140e284826167db565b670de0b6b3a76400006140f3613c24565b60155f8773ffffffffffffffffffffffffffffffffffffffff1673ffffffffffffffffffffffffffffffffffffffff1681526020019081526020015f205461413b9190617949565b61414591906179b7565b60195f8673ffffffffffffffffffffffffffffffffffffffff1673ffffffffffffffffffffffffffffffffffffffff1681526020019081526020015f20819055508373ffffffffffffffffffffffffffffffffffffffff168573ffffffffffffffffffffffffffffffffffffffff163373ffffffffffffffffffffffffffffffffffffffff167ffbde797d201c681b91056529119e0b02407c7bb96a4a2c75c01fc9667232c8db89856040516141fc929190616c5f565b60405180910390a495945050505050565b5f614219338484616254565b6001905092915050565b60055f9054906101000a900473ffffffffffffffffffffffffffffffffffffffff1681565b60035f9054906101000a900473ffffffffffffffffffffffffffffffffffffffff1673ffffffffffffffffffffffffffffffffffffffff163373ffffffffffffffffffffffffffffffffffffffff1614806142ef575060035f9054906101000a900473ffffffffffffffffffffffffffffffffffffffff1673ffffffffffffffffffffffffffffffffffffffff163273ffffffffffffffffffffffffffffffffffffffff16145b61432e576040517f08c379a000000000000000000000000000000000000000000000000000000000815260040161432590617ef1565b60405180910390fd5b5f73ffffffffffffffffffffffffffffffffffffffff168373ffffffffffffffffffffffffffffffffffffffff160361439c576040517f08c379a0000000000000000000000000000000000000000000000000000000008152600401614393906188ee565b60405180910390fd5b6127108261ffff1611156143e5576040517f08c379a00000000000000000000000000000000000000000000000000000000081526004016143dc90618956565b60405180910390fd5b5f601b5f8573ffffffffffffffffffffffffffffffffffffffff1673ffffffffffffffffffffffffffffffffffffffff1681526020019081526020015f209050805f015f9054906101000a900460ff1661449a57601c84908060018154018082558091505060019003905f5260205f20015f9091909190916101000a81548173ffffffffffffffffffffffffffffffffffffffff021916908373ffffffffffffffffffffffffffffffffffffffff1602179055505b6001815f015f6101000a81548160ff02191690831515021790555081815f0160016101000a81548160ff02191690831515021790555082815f0160026101000a81548161ffff021916908361ffff16021790555042815f0160046101000a81548167ffffffffffffffff021916908367ffffffffffffffff1602179055508373ffffffffffffffffffffffffffffffffffffffff167f6ade9b926aca65c360a4d56031d81d51e736159ebb1353a0421ce930d8e83b3a8484604051614560929190618974565b60405180910390a250505050565b5f5f60095490505f810361458557829150506145a7565b8061458e611198565b846145999190617949565b6145a391906179b7565b9150505b919050565b60115481565b5f60145f9054906101000a900460ff1615614602576040517f08c379a00000000000000000000000000000000000000000000000000000000081526004016145f990617caf565b60405180910390fd5b5f8411614644576040517f08c379a000000000000000000000000000000000000000000000000000000000815260040161463b9061861c565b60405180910390fd5b61464f8233866164d2565b61465884611466565b905061466382616715565b5f73ffffffffffffffffffffffffffffffffffffffff1660085f9054906101000a900473ffffffffffffffffffffffffffffffffffffffff1673ffffffffffffffffffffffffffffffffffffffff16146147455760085f9054906101000a900473ffffffffffffffffffffffffffffffffffffffff1673ffffffffffffffffffffffffffffffffffffffff1663694d3f35338484886040518563ffffffff1660e01b815260040161471794939291906189be565b5f604051808303815f87803b15801561472e575f5ffd5b505af1158015614740573d5f5f3e3d5ffd5b505050505b61474f838261610e565b61475982856167db565b670de0b6b3a764000061476a613c24565b60155f8573ffffffffffffffffffffffffffffffffffffffff1673ffffffffffffffffffffffffffffffffffffffff1681526020019081526020015f20546147b29190617949565b6147bc91906179b7565b60195f8473ffffffffffffffffffffffffffffffffffffffff1673ffffffffffffffffffffffffffffffffffffffff1681526020019081526020015f20819055508173ffffffffffffffffffffffffffffffffffffffff168373ffffffffffffffffffffffffffffffffffffffff163373ffffffffffffffffffffffffffffffffffffffff167ffbde797d201c681b91056529119e0b02407c7bb96a4a2c75c01fc9667232c8db8488604051614873929190616c5f565b60405180910390a49392505050565b5f60055f9054906101000a900473ffffffffffffffffffffffffffffffffffffffff1673ffffffffffffffffffffffffffffffffffffffff163373ffffffffffffffffffffffffffffffffffffffff16148061492a575060035f9054906101000a900473ffffffffffffffffffffffffffffffffffffffff1673ffffffffffffffffffffffffffffffffffffffff163373ffffffffffffffffffffffffffffffffffffffff16145b80614981575060055f9054906101000a900473ffffffffffffffffffffffffffffffffffffffff1673ffffffffffffffffffffffffffffffffffffffff163273ffffffffffffffffffffffffffffffffffffffff16145b6149c0576040517f08c379a00000000000000000000000000000000000000000000000000000000081526004016149b7906178ce565b60405180910390fd5b5f601b5f8673ffffffffffffffffffffffffffffffffffffffff1673ffffffffffffffffffffffffffffffffffffffff1681526020019081526020015f209050805f015f9054906101000a900460ff16614a4f576040517f08c379a0000000000000000000000000000000000000000000000000000000008152600401614a4690617d17565b60405180910390fd5b8473ffffffffffffffffffffffffffffffffffffffff1662f714ce85306040518363ffffffff1660e01b8152600401614a89929190618a14565b6020604051808303815f875af1158015614aa5573d5f5f3e3d5ffd5b505050506040513d601f19601f82011682018060405250810190614ac991906177f9565b91508060010154841115614ae5575f8160010181905550614b00565b83816001015f828254614af89190617bca565b925050819055505b83600a5f828254614b119190617bca565b925050819055503073ffffffffffffffffffffffffffffffffffffffff168373ffffffffffffffffffffffffffffffffffffffff1614614b5657614b55838561610e565b5b8473ffffffffffffffffffffffffffffffffffffffff167f0ac6e50dd9423aee4a70f11c10413c95f8808258de937f3d605c46277a1be32085614b9890618a3b565b604051614ba59190617e8e565b60405180910390a2509392505050565b6018602052805f5260405f205f915090505481565b5f5f60095490505f8103614be15782915050614c03565b614be9611198565b8184614bf59190617949565b614bff91906179b7565b9150505b919050565b5f614c4f60155f8473ffffffffffffffffffffffffffffffffffffffff1673ffffffffffffffffffffffffffffffffffffffff1681526020019081526020015f2054611466565b9050919050565b60085f9054906101000a900473ffffffffffffffffffffffffffffffffffffffff1681565b83421115614cbe576040517f08c379a0000000000000000000000000000000000000000000000000000000008152600401614cb590618684565b60405180910390fd5b5f87878787604051602001614cd69493929190618707565b6040516020818303038152906040528051906020012090505f6001614cfa836164a3565b8686866040515f8152602001604052604051614d199493929190618763565b6020604051602081039080840390855afa158015614d39573d5f5f3e3d5ffd5b5050506020604051035190508873ffffffffffffffffffffffffffffffffffffffff168173ffffffffffffffffffffffffffffffffffffffff16148015614dac57505f73ffffffffffffffffffffffffffffffffffffffff168173ffffffffffffffffffffffffffffffffffffffff1614155b614deb576040517f08c379a0000000000000000000000000000000000000000000000000000000008152600401614de2906187f0565b60405180910390fd5b8660165f8b73ffffffffffffffffffffffffffffffffffffffff1673ffffffffffffffffffffffffffffffffffffffff1681526020019081526020015f205f8a73ffffffffffffffffffffffffffffffffffffffff1673ffffffffffffffffffffffffffffffffffffffff1681526020019081526020015f208190555060175f8a73ffffffffffffffffffffffffffffffffffffffff1673ffffffffffffffffffffffffffffffffffffffff1681526020019081526020015f205f815480929190614eb590618a81565b91905055508773ffffffffffffffffffffffffffffffffffffffff168973ffffffffffffffffffffffffffffffffffffffff167f8c5be1e5ebec7d5bd14f71427d1e84f3dd0314c0f7b2291e5b200ac8c7c3b92589604051614f1791906168be565b60405180910390a3505050505050505050565b60125481565b60035f9054906101000a900473ffffffffffffffffffffffffffffffffffffffff1673ffffffffffffffffffffffffffffffffffffffff163373ffffffffffffffffffffffffffffffffffffffff161480614fd7575060035f9054906101000a900473ffffffffffffffffffffffffffffffffffffffff1673ffffffffffffffffffffffffffffffffffffffff163273ffffffffffffffffffffffffffffffffffffffff16145b615016576040517f08c379a000000000000000000000000000000000000000000000000000000000815260040161500d90617ef1565b60405180910390fd5b5f601b5f8673ffffffffffffffffffffffffffffffffffffffff1673ffffffffffffffffffffffffffffffffffffffff1681526020019081526020015f206040518060c00160405290815f82015f9054906101000a900460ff161515151581526020015f820160019054906101000a900460ff161515151581526020015f820160029054906101000a900461ffff1661ffff1661ffff1681526020015f820160049054906101000a900467ffffffffffffffff1667ffffffffffffffff1667ffffffffffffffff168152602001600182015481526020016002820154815250509050805f015161513b576040517f08c379a000000000000000000000000000000000000000000000000000000000815260040161513290618b12565b60405180910390fd5b5f73ffffffffffffffffffffffffffffffffffffffff168473ffffffffffffffffffffffffffffffffffffffff16036151a9576040517f08c379a00000000000000000000000000000000000000000000000000000000081526004016151a090618b7a565b60405180910390fd5b5f8473ffffffffffffffffffffffffffffffffffffffff1684846040516151d1929190617df6565b5f60405180830381855af49150503d805f8114615209576040519150601f19603f3d011682016040523d82523d5f602084013e61520e565b606091505b5050905080615252576040517f08c379a000000000000000000000000000000000000000000000000000000000815260040161524990618be2565b60405180910390fd5b81601b5f8773ffffffffffffffffffffffffffffffffffffffff1673ffffffffffffffffffffffffffffffffffffffff1681526020019081526020015f205f820151815f015f6101000a81548160ff0219169083151502179055506020820151815f0160016101000a81548160ff0219169083151502179055506040820151815f0160026101000a81548161ffff021916908361ffff1602179055506060820151815f0160046101000a81548167ffffffffffffffff021916908367ffffffffffffffff1602179055506080820151816001015560a082015181600201559050505f601b5f8873ffffffffffffffffffffffffffffffffffffffff1673ffffffffffffffffffffffffffffffffffffffff1681526020019081526020015f205f015f6101000a81548160ff0219169083151502179055505f601b5f8873ffffffffffffffffffffffffffffffffffffffff1673ffffffffffffffffffffffffffffffffffffffff1681526020019081526020015f20600101819055505f5f90505b601c805490508110156154b8578673ffffffffffffffffffffffffffffffffffffffff16601c828154811061540b5761540a6179e7565b5b905f5260205f20015f9054906101000a900473ffffffffffffffffffffffffffffffffffffffff1673ffffffffffffffffffffffffffffffffffffffff16036154ad5785601c8281548110615463576154626179e7565b5b905f5260205f20015f6101000a81548173ffffffffffffffffffffffffffffffffffffffff021916908373ffffffffffffffffffffffffffffffffffffffff1602179055506154b8565b8060010190506153d3565b50505050505050565b6016602052815f5260405f20602052805f5260405f205f91509150505481565b5f60145f9054906101000a900460ff1615615531576040517f08c379a000000000000000000000000000000000000000000000000000000000815260040161552890617caf565b60405180910390fd5b5f600260019054906101000a900473ffffffffffffffffffffffffffffffffffffffff1673ffffffffffffffffffffffffffffffffffffffff166370a08231306040518263ffffffff1660e01b815260040161558d9190617309565b602060405180830381865afa1580156155a8573d5f5f3e3d5ffd5b505050506040513d601f19601f820116820180604052508101906155cc91906177f9565b905080851115615611576040517f08c379a000000000000000000000000000000000000000000000000000000000815260040161560890618c4a565b60405180910390fd5b5f612710600f54876156239190617949565b61562d91906179b7565b9050615639878761610e565b7f439148f0bbc682ca079e46d6e2c2f0c1e3b820f1a291b069d8882abf8cf18dd98773ffffffffffffffffffffffffffffffffffffffff166323e30c8b33600260019054906101000a900473ffffffffffffffffffffffffffffffffffffffff168a868b8b6040518763ffffffff1660e01b81526004016156bf9695949392919061884a565b6020604051808303815f875af11580156156db573d5f5f3e3d5ffd5b505050506040513d601f19601f820116820180604052508101906156ff9190618c7c565b1461573f576040517f08c379a000000000000000000000000000000000000000000000000000000000815260040161573690618cf1565b60405180910390fd5b5f600260019054906101000a900473ffffffffffffffffffffffffffffffffffffffff1673ffffffffffffffffffffffffffffffffffffffff166370a08231306040518263ffffffff1660e01b815260040161579b9190617309565b602060405180830381865afa1580156157b6573d5f5f3e3d5ffd5b505050506040513d601f19601f820116820180604052508101906157da91906177f9565b905081836157e89190617851565b81101561582a576040517f08c379a000000000000000000000000000000000000000000000000000000000815260040161582190618d59565b60405180910390fd5b5f61583483614bca565b90505f81111561586a5761586960065f9054906101000a900473ffffffffffffffffffffffffffffffffffffffff1682616043565b5b8873ffffffffffffffffffffffffffffffffffffffff167f31aaad38f00845a242d16ae90d7bd72fc68f0e22581470f9dc0de241210c288689856040516158b2929190616c5f565b60405180910390a26001945050505050949350505050565b60045f9054906101000a900473ffffffffffffffffffffffffffffffffffffffff1681565b600c5481565b60035f9054906101000a900473ffffffffffffffffffffffffffffffffffffffff1673ffffffffffffffffffffffffffffffffffffffff163373ffffffffffffffffffffffffffffffffffffffff16148061599c575060035f9054906101000a900473ffffffffffffffffffffffffffffffffffffffff1673ffffffffffffffffffffffffffffffffffffffff163273ffffffffffffffffffffffffffffffffffffffff16145b6159db576040517f08c379a00000000000000000000000000000000000000000000000000000000081526004016159d290617ef1565b60405180910390fd5b6101f4851115806159ee5750610bb88411155b806159fa575060648311155b615a39576040517f08c379a0000000000000000000000000000000000000000000000000000000008152600401615a3090618dc1565b60405180910390fd5b846010819055508360118190555082600f8190555081600d81905550806012819055505050505050565b5f615a6d82614bca565b9050919050565b5f615a7f338361635b565b615a87613c24565b9050919050565b60035f9054906101000a900473ffffffffffffffffffffffffffffffffffffffff1673ffffffffffffffffffffffffffffffffffffffff163373ffffffffffffffffffffffffffffffffffffffff161480615b35575060035f9054906101000a900473ffffffffffffffffffffffffffffffffffffffff1673ffffffffffffffffffffffffffffffffffffffff163273ffffffffffffffffffffffffffffffffffffffff16145b615b74576040517f08c379a0000000000000000000000000000000000000000000000000000000008152600401615b6b90617ef1565b60405180910390fd5b8060045f6101000a81548173ffffffffffffffffffffffffffffffffffffffff021916908373ffffffffffffffffffffffffffffffffffffffff16021790555050565b5f5f600c5442615bc79190617bca565b90505f64496cebb80082601054615bdc611198565b615be69190617949565b615bf09190617949565b615bfa91906179b7565b9050615c0581614bca565b92505f831115615c3b57615c3a60065f9054906101000a900473ffffffffffffffffffffffffffffffffffffffff1684616043565b5b42600c81905550505090565b60055f9054906101000a900473ffffffffffffffffffffffffffffffffffffffff1673ffffffffffffffffffffffffffffffffffffffff163373ffffffffffffffffffffffffffffffffffffffff161480615cee575060035f9054906101000a900473ffffffffffffffffffffffffffffffffffffffff1673ffffffffffffffffffffffffffffffffffffffff163373ffffffffffffffffffffffffffffffffffffffff16145b80615d45575060055f9054906101000a900473ffffffffffffffffffffffffffffffffffffffff1673ffffffffffffffffffffffffffffffffffffffff163273ffffffffffffffffffffffffffffffffffffffff16145b615d84576040517f08c379a0000000000000000000000000000000000000000000000000000000008152600401615d7b906178ce565b60405180910390fd5b60145f9054906101000a900460ff1615615dd3576040517f08c379a0000000000000000000000000000000000000000000000000000000008152600401615dca90617caf565b60405180910390fd5b5f615ddc611198565b90505f5f90505b83839050811015615edb575f5f858584818110615e0357615e026179e7565b5b9050602002810190615e159190617a20565b810190615e229190617b20565b915091505f8273ffffffffffffffffffffffffffffffffffffffff1682604051615e4c9190617bb4565b5f60405180830381855af49150503d805f8114615e84576040519150601f19603f3d011682016040523d82523d5f602084013e615e89565b606091505b5050905080615ecd576040517f08c379a0000000000000000000000000000000000000000000000000000000008152600401615ec490618e29565b60405180910390fd5b505050806001019050615de3565b50806064615ee7611198565b615ef191906179b7565b615ef9611198565b615f039190617851565b1015615f44576040517f08c379a0000000000000000000000000000000000000000000000000000000008152600401615f3b90618e91565b60405180910390fd5b505050565b8273ffffffffffffffffffffffffffffffffffffffff168282604051602401615f73929190618295565b6040516020818303038152906040527f095ea7b3000000000000000000000000000000000000000000000000000000007bffffffffffffffffffffffffffffffffffffffffffffffffffffffff19166020820180517bffffffffffffffffffffffffffffffffffffffffffffffffffffffff8381831617835250505050604051615ffd9190617bb4565b5f604051808303815f865af19150503d805f8114616036576040519150601f19603f3d011682016040523d82523d5f602084013e61603b565b606091505b505050505050565b8060095f8282546160549190617851565b925050819055508060155f8473ffffffffffffffffffffffffffffffffffffffff1673ffffffffffffffffffffffffffffffffffffffff1681526020019081526020015f205f82825401925050819055508173ffffffffffffffffffffffffffffffffffffffff165f73ffffffffffffffffffffffffffffffffffffffff167fddf252ad1be2c89b69c2b068fc378daa952ba7f163c4a11628f55a4df523b3ef8360405161610291906168be565b60405180910390a35050565b5f600260019054906101000a900473ffffffffffffffffffffffffffffffffffffffff1673ffffffffffffffffffffffffffffffffffffffff1663a9059cbb60e01b8484604051602401616163929190618295565b604051602081830303815290604052907bffffffffffffffffffffffffffffffffffffffffffffffffffffffff19166020820180517bffffffffffffffffffffffffffffffffffffffffffffffffffffffff83818316178352505050506040516161cd9190617bb4565b5f604051808303815f865af19150503d805f8114616206576040519150601f19603f3d011682016040523d82523d5f602084013e61620b565b606091505b505090508061624f576040517f08c379a000000000000000000000000000000000000000000000000000000000815260040161624690618ef9565b60405180910390fd5b505050565b8060155f8573ffffffffffffffffffffffffffffffffffffffff1673ffffffffffffffffffffffffffffffffffffffff1681526020019081526020015f205f8282546162a09190617bca565b925050819055508060155f8473ffffffffffffffffffffffffffffffffffffffff1673ffffffffffffffffffffffffffffffffffffffff1681526020019081526020015f205f82825401925050819055508173ffffffffffffffffffffffffffffffffffffffff168373ffffffffffffffffffffffffffffffffffffffff167fddf252ad1be2c89b69c2b068fc378daa952ba7f163c4a11628f55a4df523b3ef8360405161634e91906168be565b60405180910390a3505050565b5f600260019054906101000a900473ffffffffffffffffffffffffffffffffffffffff1673ffffffffffffffffffffffffffffffffffffffff166323b872dd60e01b8430856040516024016163b293929190618f17565b604051602081830303815290604052907bffffffffffffffffffffffffffffffffffffffffffffffffffffffff19166020820180517bffffffffffffffffffffffffffffffffffffffffffffffffffffffff838183161783525050505060405161641c9190617bb4565b5f604051808303815f865af19150503d805f8114616455576040519150601f19603f3d011682016040523d82523d5f602084013e61645a565b606091505b505090508061649e576040517f08c379a000000000000000000000000000000000000000000000000000000000815260040161649590618f96565b60405180910390fd5b505050565b5f816040516020016164b59190619028565b604051602081830303815290604052805190602001209050919050565b8173ffffffffffffffffffffffffffffffffffffffff168373ffffffffffffffffffffffffffffffffffffffff1614616710575f60165f8573ffffffffffffffffffffffffffffffffffffffff1673ffffffffffffffffffffffffffffffffffffffff1681526020019081526020015f205f8473ffffffffffffffffffffffffffffffffffffffff1673ffffffffffffffffffffffffffffffffffffffff1681526020019081526020015f205490507fffffffffffffffffffffffffffffffffffffffffffffffffffffffffffffffff811461670e5781816165b49190617bca565b60165f8673ffffffffffffffffffffffffffffffffffffffff1673ffffffffffffffffffffffffffffffffffffffff1681526020019081526020015f205f8573ffffffffffffffffffffffffffffffffffffffff1673ffffffffffffffffffffffffffffffffffffffff1681526020019081526020015f20819055508273ffffffffffffffffffffffffffffffffffffffff168473ffffffffffffffffffffffffffffffffffffffff167f8c5be1e5ebec7d5bd14f71427d1e84f3dd0314c0f7b2291e5b200ac8c7c3b92560165f8873ffffffffffffffffffffffffffffffffffffffff1673ffffffffffffffffffffffffffffffffffffffff1681526020019081526020015f205f8773ffffffffffffffffffffffffffffffffffffffff1673ffffffffffffffffffffffffffffffffffffffff1681526020019081526020015f205460405161670591906168be565b60405180910390a35b505b505050565b600d5460185f8373ffffffffffffffffffffffffffffffffffffffff1673ffffffffffffffffffffffffffffffffffffffff1681526020019081526020015f20546167609190617851565b4210158061679957508073ffffffffffffffffffffffffffffffffffffffff163273ffffffffffffffffffffffffffffffffffffffff16145b6167d8576040517f08c379a00000000000000000000000000000000000000000000000000000000081526004016167cf90619097565b60405180910390fd5b50565b8060155f8473ffffffffffffffffffffffffffffffffffffffff1673ffffffffffffffffffffffffffffffffffffffff1681526020019081526020015f205f8282546168279190617bca565b925050819055508060095f82825403925050819055505f73ffffffffffffffffffffffffffffffffffffffff168273ffffffffffffffffffffffffffffffffffffffff167fddf252ad1be2c89b69c2b068fc378daa952ba7f163c4a11628f55a4df523b3ef8360405161689a91906168be565b60405180910390a35050565b5f819050919050565b6168b8816168a6565b82525050565b5f6020820190506168d15f8301846168af565b92915050565b5f604051905090565b5f5ffd5b5f5ffd5b5f8115159050919050565b6168fc816168e8565b8114616906575f5ffd5b50565b5f81359050616917816168f3565b92915050565b5f60208284031215616932576169316168e0565b5b5f61693f84828501616909565b91505092915050565b5f81519050919050565b5f82825260208201905092915050565b8281835e5f83830152505050565b5f601f19601f8301169050919050565b5f61698a82616948565b6169948185616952565b93506169a4818560208601616962565b6169ad81616970565b840191505092915050565b5f6020820190508181035f8301526169d08184616980565b905092915050565b6169e1816168a6565b81146169eb575f5ffd5b50565b5f813590506169fc816169d8565b92915050565b5f60208284031215616a1757616a166168e0565b5b5f616a24848285016169ee565b91505092915050565b5f73ffffffffffffffffffffffffffffffffffffffff82169050919050565b5f616a5682616a2d565b9050919050565b616a6681616a4c565b8114616a70575f5ffd5b50565b5f81359050616a8181616a5d565b92915050565b5f5f60408385031215616a9d57616a9c6168e0565b5b5f616aaa85828601616a73565b9250506020616abb858286016169ee565b9150509250929050565b616ace816168e8565b82525050565b5f602082019050616ae75f830184616ac5565b92915050565b5f5ffd5b5f5ffd5b5f5ffd5b5f5f83601f840112616b0e57616b0d616aed565b5b8235905067ffffffffffffffff811115616b2b57616b2a616af1565b5b602083019150836020820283011115616b4757616b46616af5565b5b9250929050565b5f5f83601f840112616b6357616b62616aed565b5b8235905067ffffffffffffffff811115616b8057616b7f616af1565b5b602083019150836020820283011115616b9c57616b9b616af5565b5b9250929050565b5f5f5f5f5f60608688031215616bbc57616bbb6168e0565b5b5f86013567ffffffffffffffff811115616bd957616bd86168e4565b5b616be588828901616af9565b9550955050602086013567ffffffffffffffff811115616c0857616c076168e4565b5b616c1488828901616b4e565b93509350506040616c27888289016169ee565b9150509295509295909350565b5f60208284031215616c4957616c486168e0565b5b5f616c5684828501616a73565b91505092915050565b5f604082019050616c725f8301856168af565b616c7f60208301846168af565b9392505050565b5f616c9082616a2d565b9050919050565b616ca081616c86565b8114616caa575f5ffd5b50565b5f81359050616cbb81616c97565b92915050565b5f5f60408385031215616cd757616cd66168e0565b5b5f616ce485828601616cad565b9250506020616cf5858286016169ee565b9150509250929050565b5f5f83601f840112616d1457616d13616aed565b5b8235905067ffffffffffffffff811115616d3157616d30616af1565b5b602083019150836001820283011115616d4d57616d4c616af5565b5b9250929050565b5f5f5f5f60608587031215616d6c57616d6b6168e0565b5b5f616d7987828801616a73565b9450506020616d8a878288016169ee565b935050604085013567ffffffffffffffff811115616dab57616daa6168e4565b5b616db787828801616cff565b925092505092959194509250565b5f5f60208385031215616ddb57616dda6168e0565b5b5f83013567ffffffffffffffff811115616df857616df76168e4565b5b616e0485828601616b4e565b92509250509250929050565b5f81519050919050565b5f82825260208201905092915050565b5f819050602082019050919050565b5f81519050919050565b5f82825260208201905092915050565b5f616e5d82616e39565b616e678185616e43565b9350616e77818560208601616962565b616e8081616970565b840191505092915050565b5f616e968383616e53565b905092915050565b5f602082019050919050565b5f616eb482616e10565b616ebe8185616e1a565b935083602082028501616ed085616e2a565b805f5b85811015616f0b5784840389528151616eec8582616e8b565b9450616ef783616e9e565b925060208a01995050600181019050616ed3565b50829750879550505050505092915050565b5f6020820190508181035f830152616f358184616eaa565b905092915050565b5f5ffd5b7f4e487b71000000000000000000000000000000000000000000000000000000005f52604160045260245ffd5b616f7782616970565b810181811067ffffffffffffffff82111715616f9657616f95616f41565b5b80604052505050565b5f616fa86168d7565b9050616fb48282616f6e565b919050565b5f67ffffffffffffffff821115616fd357616fd2616f41565b5b616fdc82616970565b9050602081019050919050565b828183375f83830152505050565b5f61700961700484616fb9565b616f9f565b90508281526020810184848401111561702557617024616f3d565b5b617030848285616fe9565b509392505050565b5f82601f83011261704c5761704b616aed565b5b813561705c848260208601616ff7565b91505092915050565b5f5f5f5f6080858703121561707d5761707c6168e0565b5b5f61708a87828801616a73565b945050602061709b87828801616a73565b935050604085013567ffffffffffffffff8111156170bc576170bb6168e4565b5b6170c887828801617038565b925050606085013567ffffffffffffffff8111156170e9576170e86168e4565b5b6170f587828801617038565b91505092959194509250565b5f5f5f60608486031215617118576171176168e0565b5b5f61712586828701616a73565b935050602061713686828701616a73565b9250506040617147868287016169ee565b9150509250925092565b5f60ff82169050919050565b61716681617151565b82525050565b5f60208201905061717f5f83018461715d565b92915050565b5f819050919050565b5f6171a86171a361719e84616a2d565b617185565b616a2d565b9050919050565b5f6171b98261718e565b9050919050565b5f6171ca826171af565b9050919050565b6171da816171c0565b82525050565b5f6020820190506171f35f8301846171d1565b92915050565b5f61ffff82169050919050565b61720f816171f9565b82525050565b5f67ffffffffffffffff82169050919050565b61723181617215565b82525050565b5f60c08201905061724a5f830189616ac5565b6172576020830188616ac5565b6172646040830187617206565b6172716060830186617228565b61727e60808301856168af565b61728b60a08301846168af565b979650505050505050565b5f5f5f5f608085870312156172ae576172ad6168e0565b5b5f6172bb87828801616a73565b94505060206172cc87828801616a73565b93505060406172dd87828801616a73565b92505060606172ee87828801616a73565b91505092959194509250565b61730381616a4c565b82525050565b5f60208201905061731c5f8301846172fa565b92915050565b5f5f60408385031215617338576173376168e0565b5b5f617345858286016169ee565b925050602061735685828601616a73565b9150509250929050565b5f5f5f60608486031215617377576173766168e0565b5b5f617384868287016169ee565b935050602061739586828701616a73565b92505060406173a6868287016169ee565b9150509250925092565b6173b981617151565b81146173c3575f5ffd5b50565b5f813590506173d4816173b0565b92915050565b5f819050919050565b6173ec816173da565b81146173f6575f5ffd5b50565b5f81359050617407816173e3565b92915050565b5f5f5f5f5f60a08688031215617426576174256168e0565b5b5f617433888289016169ee565b9550506020617444888289016169ee565b9450506040617455888289016173c6565b9350506060617466888289016173f9565b9250506080617477888289016173f9565b9150509295509295909350565b5f5f5f5f5f6080868803121561749d5761749c6168e0565b5b5f6174aa888289016169ee565b95505060206174bb88828901616a73565b94505060406174cc88828901616a73565b935050606086013567ffffffffffffffff8111156174ed576174ec6168e4565b5b6174f988828901616cff565b92509250509295509295909350565b617511816171f9565b811461751b575f5ffd5b50565b5f8135905061752c81617508565b92915050565b5f5f5f60608486031215617549576175486168e0565b5b5f61755686828701616a73565b93505060206175678682870161751e565b925050604061757886828701616909565b9150509250925092565b5f5f5f60608486031215617599576175986168e0565b5b5f6175a6868287016169ee565b93505060206175b786828701616a73565b92505060406175c886828701616a73565b9150509250925092565b5f5f5f606084860312156175e9576175e86168e0565b5b5f6175f686828701616a73565b9350506020617607868287016169ee565b925050604061761886828701616a73565b9150509250925092565b5f5f5f5f5f5f5f60e0888a03121561763d5761763c6168e0565b5b5f61764a8a828b01616a73565b975050602061765b8a828b01616a73565b965050604061766c8a828b016169ee565b955050606061767d8a828b016169ee565b945050608061768e8a828b016173c6565b93505060a061769f8a828b016173f9565b92505060c06176b08a828b016173f9565b91505092959891949750929550565b5f5f5f5f606085870312156176d7576176d66168e0565b5b5f6176e487828801616a73565b94505060206176f587828801616a73565b935050604085013567ffffffffffffffff811115617716576177156168e4565b5b61772287828801616cff565b925092505092959194509250565b5f5f60408385031215617746576177456168e0565b5b5f61775385828601616a73565b925050602061776485828601616a73565b9150509250929050565b5f5f5f5f5f60a08688031215617787576177866168e0565b5b5f617794888289016169ee565b95505060206177a5888289016169ee565b94505060406177b6888289016169ee565b93505060606177c7888289016169ee565b92505060806177d8888289016169ee565b9150509295509295909350565b5f815190506177f3816169d8565b92915050565b5f6020828403121561780e5761780d6168e0565b5b5f61781b848285016177e5565b91505092915050565b7f4e487b71000000000000000000000000000000000000000000000000000000005f52601160045260245ffd5b5f61785b826168a6565b9150617866836168a6565b925082820190508082111561787e5761787d617824565b5b92915050565b7f4e4f545f4b4545504552000000000000000000000000000000000000000000005f82015250565b5f6178b8600a83616952565b91506178c382617884565b602082019050919050565b5f6020820190508181035f8301526178e5816178ac565b9050919050565b7f4e487b71000000000000000000000000000000000000000000000000000000005f52602260045260245ffd5b5f600282049050600182168061793057607f821691505b602082108103617943576179426178ec565b5b50919050565b5f617953826168a6565b915061795e836168a6565b925082820261796c816168a6565b9150828204841483151761798357617982617824565b5b5092915050565b7f4e487b71000000000000000000000000000000000000000000000000000000005f52601260045260245ffd5b5f6179c1826168a6565b91506179cc836168a6565b9250826179dc576179db61798a565b5b828204905092915050565b7f4e487b71000000000000000000000000000000000000000000000000000000005f52603260045260245ffd5b5f5ffd5b5f5ffd5b5f5ffd5b5f5f83356001602003843603038112617a3c57617a3b617a14565b5b80840192508235915067ffffffffffffffff821115617a5e57617a5d617a18565b5b602083019250600182023603831315617a7a57617a79617a1c565b5b509250929050565b5f67ffffffffffffffff821115617a9c57617a9b616f41565b5b617aa582616970565b9050602081019050919050565b5f617ac4617abf84617a82565b616f9f565b905082815260208101848484011115617ae057617adf616f3d565b5b617aeb848285616fe9565b509392505050565b5f82601f830112617b0757617b06616aed565b5b8135617b17848260208601617ab2565b91505092915050565b5f5f60408385031215617b3657617b356168e0565b5b5f617b4385828601616cad565b925050602083013567ffffffffffffffff811115617b6457617b636168e4565b5b617b7085828601617af3565b9150509250929050565b5f81905092915050565b5f617b8e82616e39565b617b988185617b7a565b9350617ba8818560208601616962565b80840191505092915050565b5f617bbf8284617b84565b915081905092915050565b5f617bd4826168a6565b9150617bdf836168a6565b9250828203905081811115617bf757617bf6617824565b5b92915050565b7f4c4f575f4f5554000000000000000000000000000000000000000000000000005f82015250565b5f617c31600783616952565b9150617c3c82617bfd565b602082019050919050565b5f6020820190508181035f830152617c5e81617c25565b9050919050565b7f50415553454400000000000000000000000000000000000000000000000000005f82015250565b5f617c99600683616952565b9150617ca482617c65565b602082019050919050565b5f6020820190508181035f830152617cc681617c8d565b9050919050565b7f494e4143544956450000000000000000000000000000000000000000000000005f82015250565b5f617d01600883616952565b9150617d0c82617ccd565b602082019050919050565b5f6020820190508181035f830152617d2e81617cf5565b9050919050565b5f606082019050617d485f8301866168af565b617d5560208301856168af565b617d6260408301846168af565b949350505050565b7f49444c45000000000000000000000000000000000000000000000000000000005f82015250565b5f617d9e600483616952565b9150617da982617d6a565b602082019050919050565b5f6020820190508181035f830152617dcb81617d92565b9050919050565b5f617ddd8385617b7a565b9350617dea838584616fe9565b82840190509392505050565b5f617e02828486617dd2565b91508190509392505050565b7f53545241544547595f43414c4c000000000000000000000000000000000000005f82015250565b5f617e42600d83616952565b9150617e4d82617e0e565b602082019050919050565b5f6020820190508181035f830152617e6f81617e36565b9050919050565b5f819050919050565b617e8881617e76565b82525050565b5f602082019050617ea15f830184617e7f565b92915050565b7f4e4f545f4f574e455200000000000000000000000000000000000000000000005f82015250565b5f617edb600983616952565b9150617ee682617ea7565b602082019050919050565b5f6020820190508181035f830152617f0881617ecf565b9050919050565b7f42415443480000000000000000000000000000000000000000000000000000005f82015250565b5f617f43600583616952565b9150617f4e82617f0f565b602082019050919050565b5f6020820190508181035f830152617f7081617f37565b9050919050565b5f819050815f5260205f209050919050565b5f6020601f8301049050919050565b5f82821b905092915050565b5f60088302617fd37fffffffffffffffffffffffffffffffffffffffffffffffffffffffffffffffff82617f98565b617fdd8683617f98565b95508019841693508086168417925050509392505050565b5f61800f61800a618005846168a6565b617185565b6168a6565b9050919050565b5f819050919050565b61802883617ff5565b61803c61803482618016565b848454617fa4565b825550505050565b5f5f905090565b618053618044565b61805e81848461801f565b505050565b5f5b82811015618084576180795f82840161804b565b600181019050618065565b505050565b601f8211156180d757828211156180d6576180a381617f77565b6180ac83617f89565b6180b585617f89565b60208610156180c2575f90505b8083016180d182840382618063565b505050505b5b505050565b5f82821c905092915050565b5f6180f75f19846008026180dc565b1980831691505092915050565b5f61810f83836180e8565b9150826002028217905092915050565b61812882616948565b67ffffffffffffffff81111561814157618140616f41565b5b61814b8254617919565b618156828285618089565b5f60209050601f831160018114618187575f8415618175578287015190505b61817f8582618104565b8655506181e6565b601f19841661819586617f77565b5f5b828110156181bc57848901518255600182019150602085019450602081019050618197565b868310156181d957848901516181d5601f8916826180e8565b8355505b6001600288020188555050505b505050505050565b5f815190506181fc816173b0565b92915050565b5f60208284031215618217576182166168e0565b5b5f618224848285016181ee565b91505092915050565b7f41535345545f53574545500000000000000000000000000000000000000000005f82015250565b5f618261600b83616952565b915061826c8261822d565b602082019050919050565b5f6020820190508181035f83015261828e81618255565b9050919050565b5f6040820190506182a85f8301856172fa565b6182b560208301846168af565b9392505050565b7f53574545500000000000000000000000000000000000000000000000000000005f82015250565b5f6182f0600583616952565b91506182fb826182bc565b602082019050919050565b5f6020820190508181035f83015261831d816182e4565b9050919050565b7f5a45524f5f4153534554530000000000000000000000000000000000000000005f82015250565b5f618358600b83616952565b915061836382618324565b602082019050919050565b5f6020820190508181035f8301526183858161834c565b9050919050565b7f43415000000000000000000000000000000000000000000000000000000000005f82015250565b5f6183c0600383616952565b91506183cb8261838c565b602082019050919050565b5f6020820190508181035f8301526183ed816183b4565b9050919050565b7f4e4f5f50454e44494e47000000000000000000000000000000000000000000005f82015250565b5f618428600a83616952565b9150618433826183f4565b602082019050919050565b5f6020820190508181035f8301526184558161841c565b9050919050565b7f4e4f5f4f5241434c4500000000000000000000000000000000000000000000005f82015250565b5f618490600983616952565b915061849b8261845c565b602082019050919050565b5f6020820190508181035f8301526184bd81618484565b9050919050565b5f5f604083850312156184da576184d96168e0565b5b5f6184e7858286016177e5565b92505060206184f8858286016177e5565b9150509250929050565b7f4f5241434c4500000000000000000000000000000000000000000000000000005f82015250565b5f618536600683616952565b915061854182618502565b602082019050919050565b5f6020820190508181035f8301526185638161852a565b9050919050565b7f534c4950504147450000000000000000000000000000000000000000000000005f82015250565b5f61859e600883616952565b91506185a98261856a565b602082019050919050565b5f6020820190508181035f8301526185cb81618592565b9050919050565b7f5a45524f5f5348415245530000000000000000000000000000000000000000005f82015250565b5f618606600b83616952565b9150618611826185d2565b602082019050919050565b5f6020820190508181035f830152618633816185fa565b9050919050565b7f45585049524544000000000000000000000000000000000000000000000000005f82015250565b5f61866e600783616952565b91506186798261863a565b602082019050919050565b5f6020820190508181035f83015261869b81618662565b9050919050565b5f8160601b9050919050565b5f6186b8826186a2565b9050919050565b5f6186c9826186ae565b9050919050565b6186e16186dc82616a4c565b6186bf565b82525050565b5f819050919050565b6187016186fc826168a6565b6186e7565b82525050565b5f61871282876186d0565b60148201915061872282866186d0565b60148201915061873282856186f0565b60208201915061874282846186f0565b60208201915081905095945050505050565b61875d816173da565b82525050565b5f6080820190506187765f830187618754565b618783602083018661715d565b6187906040830185618754565b61879d6060830184618754565b95945050505050565b7f4241445f534947000000000000000000000000000000000000000000000000005f82015250565b5f6187da600783616952565b91506187e5826187a6565b602082019050919050565b5f6020820190508181035f830152618807816187ce565b9050919050565b5f82825260208201905092915050565b5f618829838561880e565b9350618836838584616fe9565b61883f83616970565b840190509392505050565b5f60a08201905061885d5f8301896172fa565b61886a60208301886172fa565b61887760408301876168af565b61888460608301866168af565b818103608083015261889781848661881e565b9050979650505050505050565b7f5a45524f5f5354524154454759000000000000000000000000000000000000005f82015250565b5f6188d8600d83616952565b91506188e3826188a4565b602082019050919050565b5f6020820190508181035f830152618905816188cc565b9050919050565b7f54415247455400000000000000000000000000000000000000000000000000005f82015250565b5f618940600683616952565b915061894b8261890c565b602082019050919050565b5f6020820190508181035f83015261896d81618934565b9050919050565b5f6040820190506189875f830185617206565b6189946020830184616ac5565b9392505050565b50565b5f6189a95f8361880e565b91506189b48261899b565b5f82019050919050565b5f60a0820190506189d15f8301876172fa565b6189de60208301866172fa565b6189eb60408301856168af565b6189f860608301846168af565b8181036080830152618a098161899e565b905095945050505050565b5f604082019050618a275f8301856168af565b618a3460208301846172fa565b9392505050565b5f618a4582617e76565b91507f80000000000000000000000000000000000000000000000000000000000000008203618a7757618a76617824565b5b815f039050919050565b5f618a8b826168a6565b91507fffffffffffffffffffffffffffffffffffffffffffffffffffffffffffffffff8203618abd57618abc617824565b5b600182019050919050565b7f4f4c445f494e41435449564500000000000000000000000000000000000000005f82015250565b5f618afc600c83616952565b9150618b0782618ac8565b602082019050919050565b5f6020820190508181035f830152618b2981618af0565b9050919050565b7f5a45524f5f4e45570000000000000000000000000000000000000000000000005f82015250565b5f618b64600883616952565b9150618b6f82618b30565b602082019050919050565b5f6020820190508181035f830152618b9181618b58565b9050919050565b7f4d4947524154494f4e00000000000000000000000000000000000000000000005f82015250565b5f618bcc600983616952565b9150618bd782618b98565b602082019050919050565b5f6020820190508181035f830152618bf981618bc0565b9050919050565b7f4c495155494449545900000000000000000000000000000000000000000000005f82015250565b5f618c34600983616952565b9150618c3f82618c00565b602082019050919050565b5f6020820190508181035f830152618c6181618c28565b9050919050565b5f81519050618c76816173e3565b92915050565b5f60208284031215618c9157618c906168e0565b5b5f618c9e84828501618c68565b91505092915050565b7f43414c4c4241434b0000000000000000000000000000000000000000000000005f82015250565b5f618cdb600883616952565b9150618ce682618ca7565b602082019050919050565b5f6020820190508181035f830152618d0881618ccf565b9050919050565b7f4e4f545f524550414944000000000000000000000000000000000000000000005f82015250565b5f618d43600a83616952565b9150618d4e82618d0f565b602082019050919050565b5f6020820190508181035f830152618d7081618d37565b9050919050565b7f4645455f4c494d495400000000000000000000000000000000000000000000005f82015250565b5f618dab600983616952565b9150618db682618d77565b602082019050919050565b5f6020820190508181035f830152618dd881618d9f565b9050919050565b7f524542414c414e43455f535445500000000000000000000000000000000000005f82015250565b5f618e13600e83616952565b9150618e1e82618ddf565b602082019050919050565b5f6020820190508181035f830152618e4081618e07565b9050919050565b7f4241445f524542414c414e4345000000000000000000000000000000000000005f82015250565b5f618e7b600d83616952565b9150618e8682618e47565b602082019050919050565b5f6020820190508181035f830152618ea881618e6f565b9050919050565b7f5452414e534645520000000000000000000000000000000000000000000000005f82015250565b5f618ee3600883616952565b9150618eee82618eaf565b602082019050919050565b5f6020820190508181035f830152618f1081618ed7565b9050919050565b5f606082019050618f2a5f8301866172fa565b618f3760208301856172fa565b618f4460408301846168af565b949350505050565b7f5452414e534645525f46524f4d000000000000000000000000000000000000005f82015250565b5f618f80600d83616952565b9150618f8b82618f4c565b602082019050919050565b5f6020820190508181035f830152618fad81618f74565b9050919050565b5f81905092915050565b7f19457468657265756d205369676e6564204d6573736167653a0a3332000000005f82015250565b5f618ff2601c83618fb4565b9150618ffd82618fbe565b601c82019050919050565b5f819050919050565b61902261901d826173da565b619008565b82525050565b5f61903282618fe6565b915061903e8284619011565b60208201915081905092915050565b7f44454c41590000000000000000000000000000000000000000000000000000005f82015250565b5f619081600583616952565b915061908c8261904d565b602082019050919050565b5f6020820190508181035f8301526190ae81619075565b905091905056fea2646970667358221220e385c2e979627139e778ae183e95e506ff3d915ebe554e87a976643275e0826764736f6c63430008210033","linkReferences":{}},"methodIdentifiers":{"acceptOwnership()":"79ba5097","accountCredit(address)":"6f0b6ce0","accrueManagementFee()":"f34fd6c6","addStrategy(address,uint16,bool)":"b01a9550","allocate(address,uint256,bytes)":"1c75e369","allowance(address,address)":"dd62ed3e","approve(address,uint256)":"095ea7b3","asset()":"38d52e0f","autoRebalance(bytes[])":"f47e284c","balanceOf(address)":"70a08231","batch(bytes[])":"1e897afb","claimSignedCredit(uint256,uint256,uint8,bytes32,bytes32)":"a39506d4","compoundRewards(address[],bytes[],uint256)":"0b9af371","convertToAssets(uint256)":"07a2d13a","convertToShares(uint256)":"c6e6f592","creditScalar()":"508ffd38","decimals()":"313ce567","deposit(uint256,address)":"6e553f65","depositWithOracle(uint256,address,uint256)":"82290f0e","donate(uint256)":"f14faf6f","epochLength()":"57d775f8","flashFeeBps()":"66dfd489","flashLoan(address,uint256,bytes)":"e0232b42","harvest(address)":"0e5c011e","highWaterMark()":"1e8410da","initialize(address,address,string,string)":"2016a0d2","initialized()":"158ef93e","keeper()":"aced1661","lastAccountingUpdate()":"ec0aa002","lastDepositAt(address)":"c31295d4","managementFeeBps()":"3813c35a","maxTotalAssets()":"d820f492","maxWithdraw(address)":"ce96cb77","migrateStrategy(address,address,bytes)":"dbbfaa7a","mint(uint256,address)":"94bf804d","name()":"06fdde03","nonces(address)":"7ecebe00","oracle()":"7dc0d1d0","owner()":"8da5cb5b","pause(bool)":"02329a29","paused()":"5c975abb","pendingOwner()":"e30c3978","performanceFeeBps()":"b9d4e879","permit(address,address,uint256,uint256,uint8,bytes32,bytes32)":"d505accf","previewDeposit(uint256)":"ef8b30f7","previewMint(uint256)":"b3d7f6b9","previewRedeem(uint256)":"4cdad506","previewWithdraw(uint256)":"0a28a477","pricePerShare()":"99530b06","recall(address,uint256,address)":"bcd9ca3d","redeem(uint256,address,address)":"ba087652","rescueNative(address,uint256)":"1291f79d","rewardDebt(address)":"5873eb9b","setAddresses(address,address,address,address)":"4a945f8d","setRiskParameters(uint256,uint256,uint256,uint256,uint256)":"ee7ae20d","setStrategyLimit(address,uint256)":"801eab00","strategies(address)":"39ebf823","strategiesLength()":"3f74bb89","strategyList(uint256)":"a267526b","sweep(address,address,uint256)":"62c06767","symbol()":"95d89b41","totalAssets()":"01e1d114","totalManagedDebt()":"a5849ed0","totalSupply()":"18160ddd","transfer(address,uint256)":"a9059cbb","transferFrom(address,address,uint256)":"23b872dd","transferOwnership(address)":"f2fde38b","treasury()":"61d027b3","withdraw(uint256,address,address,bytes)":"a7b7e988","withdrawDelay()":"0288a39c","withdrawHook()":"d4766e57"},"id":0}