{"src/OrderBook.sol":{"OrderBook":{"abi":[{"type":"constructor","inputs":[{"name":"_asset","type":"address","internalType":"contract IERC20"},{"name":"_usdc","type":"address","internalType":"contract IERC20"}],"stateMutability":"nonpayable"},{"type":"function","name":"amendSellOrder","inputs":[{"name":"orderId","type":"uint256","internalType":"uint256"},{"name":"amountToSell","type":"uint256","internalType":"uint256"},{"name":"priceInUSDC","type":"uint256","internalType":"uint256"},{"name":"deadlineTimestamp","type":"uint256","internalType":"uint256"}],"outputs":[],"stateMutability":"nonpayable"},{"type":"function","name":"asset","inputs":[],"outputs":[{"name":"","type":"address","internalType":"contract IERC20"}],"stateMutability":"view"},{"type":"function","name":"buyOrder","inputs":[{"name":"orderId","type":"uint256","internalType":"uint256"}],"outputs":[],"stateMutability":"nonpayable"},{"type":"function","name":"cancelSellOrder","inputs":[{"name":"orderId","type":"uint256","internalType":"uint256"}],"outputs":[],"stateMutability":"nonpayable"},{"type":"function","name":"createSellOrder","inputs":[{"name":"amountToSell","type":"uint256","internalType":"uint256"},{"name":"priceInUSDC","type":"uint256","internalType":"uint256"},{"name":"deadlineTimestamp","type":"uint256","internalType":"uint256"}],"outputs":[{"name":"orderId","type":"uint256","internalType":"uint256"}],"stateMutability":"nonpayable"},{"type":"function","name":"feeBps","inputs":[],"outputs":[{"name":"","type":"uint256","internalType":"uint256"}],"stateMutability":"view"},{"type":"function","name":"nextOrderId","inputs":[],"outputs":[{"name":"","type":"uint256","internalType":"uint256"}],"stateMutability":"view"},{"type":"function","name":"orders","inputs":[{"name":"","type":"uint256","internalType":"uint256"}],"outputs":[{"name":"seller","type":"address","internalType":"address"},{"name":"amountToSell","type":"uint256","internalType":"uint256"},{"name":"priceInUSDC","type":"uint256","internalType":"uint256"},{"name":"deadlineTimestamp","type":"uint256","internalType":"uint256"},{"name":"isActive","type":"bool","internalType":"bool"}],"stateMutability":"view"},{"type":"function","name":"totalFees","inputs":[],"outputs":[{"name":"","type":"uint256","internalType":"uint256"}],"stateMutability":"view"},{"type":"function","name":"usdc","inputs":[],"outputs":[{"name":"","type":"address","internalType":"contract IERC20"}],"stateMutability":"view"}],"userdoc":{},"devdoc":{},"evm":{"bytecode":{"object":"60c060405260035f55348015610013575f5ffd5b5060405161153538038061153583398181016040528101906100359190610113565b8173ffffffffffffffffffffffffffffffffffffffff1660808173ffffffffffffffffffffffffffffffffffffffff16815250508073ffffffffffffffffffffffffffffffffffffffff1660a08173ffffffffffffffffffffffffffffffffffffffff16815250505050610151565b5f5ffd5b5f73ffffffffffffffffffffffffffffffffffffffff82169050919050565b5f6100d1826100a8565b9050919050565b5f6100e2826100c7565b9050919050565b6100f2816100d8565b81146100fc575f5ffd5b50565b5f8151905061010d816100e9565b92915050565b5f5f60408385031215610129576101286100a4565b5b5f610136858286016100ff565b9250506020610147858286016100ff565b9150509250929050565b60805160a0516113a06101955f395f81816106730152818161077c0152610b7e01525f818161045d01528181610858015281816109470152610a9b01526113a05ff3fe608060405234801561000f575f5ffd5b506004361061009c575f3560e01c80632a58b330116100645780632a58b3301461013057806338d52e0f1461014e5780633a219c291461016c5780633e413bee1461019c578063a85c38ef146101ba5761009c565b806313114a9d146100a0578063178ed045146100be5780631a46e42a146100da57806322f85eaa146100f657806324a9d85314610112575b5f5ffd5b6100a86101ee565b6040516100b59190610c15565b60405180910390f35b6100d860048036038101906100d39190610c5c565b6101f4565b005b6100f460048036038101906100ef9190610cc0565b61034c565b005b610110600480360381019061010b9190610cc0565b61055f565b005b61011a61093a565b6040516101279190610c15565b60405180910390f35b61013861093f565b6040516101459190610c15565b60405180910390f35b610156610945565b6040516101639190610d65565b60405180910390f35b61018660048036038101906101819190610d7e565b610969565b6040516101939190610c15565b60405180910390f35b6101a4610b7c565b6040516101b19190610d65565b60405180910390f35b6101d460048036038101906101cf9190610cc0565b610ba0565b6040516101e5959493929190610e08565b60405180910390f35b60015481565b5f60035f8681526020019081526020015f2090503373ffffffffffffffffffffffffffffffffffffffff16815f015f9054906101000a900473ffffffffffffffffffffffffffffffffffffffff1673ffffffffffffffffffffffffffffffffffffffff1614610298576040517f08c379a000000000000000000000000000000000000000000000000000000000815260040161028f90610eb3565b60405180910390fd5b806004015f9054906101000a900460ff166102e8576040517f08c379a00000000000000000000000000000000000000000000000000000000081526004016102df90610f1b565b60405180910390fd5b42821161032a576040517f08c379a000000000000000000000000000000000000000000000000000000000815260040161032190610f83565b60405180910390fd5b8381600101819055508281600201819055508181600301819055505050505050565b5f60035f8381526020019081526020015f2090503373ffffffffffffffffffffffffffffffffffffffff16815f015f9054906101000a900473ffffffffffffffffffffffffffffffffffffffff1673ffffffffffffffffffffffffffffffffffffffff16146103f0576040517f08c379a00000000000000000000000000000000000000000000000000000000081526004016103e790610eb3565b60405180910390fd5b806004015f9054906101000a900460ff16610440576040517f08c379a000000000000000000000000000000000000000000000000000000000815260040161043790610f1b565b60405180910390fd5b5f816004015f6101000a81548160ff0219169083151502179055507f000000000000000000000000000000000000000000000000000000000000000073ffffffffffffffffffffffffffffffffffffffff1663a9059cbb825f015f9054906101000a900473ffffffffffffffffffffffffffffffffffffffff1683600101546040518363ffffffff1660e01b81526004016104dc929190610fa1565b6020604051808303815f875af11580156104f8573d5f5f3e3d5ffd5b505050506040513d601f19601f8201168201806040525081019061051c9190610ff2565b61055b576040517f08c379a000000000000000000000000000000000000000000000000000000000815260040161055290611067565b60405180910390fd5b5050565b5f60035f8381526020019081526020015f209050806004015f9054906101000a900460ff166105c3576040517f08c379a00000000000000000000000000000000000000000000000000000000081526004016105ba90610f1b565b60405180910390fd5b806003015442111561060a576040517f08c379a000000000000000000000000000000000000000000000000000000000815260040161060190610f83565b60405180910390fd5b5f8160020154826001015461061f91906110b2565b90505f6127105f548361063291906110b2565b61063c9190611120565b90505f836004015f6101000a81548160ff0219169083151502179055508060015f82825461066a9190611150565b925050819055507f000000000000000000000000000000000000000000000000000000000000000073ffffffffffffffffffffffffffffffffffffffff166323b872dd33855f015f9054906101000a900473ffffffffffffffffffffffffffffffffffffffff1684866106dd9190611183565b6040518463ffffffff1660e01b81526004016106fb939291906111b6565b6020604051808303815f875af1158015610717573d5f5f3e3d5ffd5b505050506040513d601f19601f8201168201806040525081019061073b9190610ff2565b61077a576040517f08c379a000000000000000000000000000000000000000000000000000000000815260040161077190611235565b60405180910390fd5b7f000000000000000000000000000000000000000000000000000000000000000073ffffffffffffffffffffffffffffffffffffffff166323b872dd3330846040518463ffffffff1660e01b81526004016107d7939291906111b6565b6020604051808303815f875af11580156107f3573d5f5f3e3d5ffd5b505050506040513d601f19601f820116820180604052508101906108179190610ff2565b610856576040517f08c379a000000000000000000000000000000000000000000000000000000000815260040161084d9061129d565b60405180910390fd5b7f000000000000000000000000000000000000000000000000000000000000000073ffffffffffffffffffffffffffffffffffffffff1663a9059cbb3385600101546040518363ffffffff1660e01b81526004016108b5929190610fa1565b6020604051808303815f875af11580156108d1573d5f5f3e3d5ffd5b505050506040513d601f19601f820116820180604052508101906108f59190610ff2565b610934576040517f08c379a000000000000000000000000000000000000000000000000000000000815260040161092b90611305565b60405180910390fd5b50505050565b5f5481565b60025481565b7f000000000000000000000000000000000000000000000000000000000000000081565b5f4282116109ac576040517f08c379a00000000000000000000000000000000000000000000000000000000081526004016109a390610f83565b60405180910390fd5b60025f8154809291906109be90611323565b9190505590506040518060a001604052803373ffffffffffffffffffffffffffffffffffffffff1681526020018581526020018481526020018381526020016001151581525060035f8381526020019081526020015f205f820151815f015f6101000a81548173ffffffffffffffffffffffffffffffffffffffff021916908373ffffffffffffffffffffffffffffffffffffffff1602179055506020820151816001015560408201518160020155606082015181600301556080820151816004015f6101000a81548160ff0219169083151502179055509050507f000000000000000000000000000000000000000000000000000000000000000073ffffffffffffffffffffffffffffffffffffffff166323b872dd3330876040518463ffffffff1660e01b8152600401610af6939291906111b6565b6020604051808303815f875af1158015610b12573d5f5f3e3d5ffd5b505050506040513d601f19601f82011682018060405250810190610b369190610ff2565b610b75576040517f08c379a0000000000000000000000000000000000000000000000000000000008152600401610b6c90611067565b60405180910390fd5b9392505050565b7f000000000000000000000000000000000000000000000000000000000000000081565b6003602052805f5260405f205f91509050805f015f9054906101000a900473ffffffffffffffffffffffffffffffffffffffff1690806001015490806002015490806003015490806004015f9054906101000a900460ff16905085565b5f819050919050565b610c0f81610bfd565b82525050565b5f602082019050610c285f830184610c06565b92915050565b5f5ffd5b610c3b81610bfd565b8114610c45575f5ffd5b50565b5f81359050610c5681610c32565b92915050565b5f5f5f5f60808587031215610c7457610c73610c2e565b5b5f610c8187828801610c48565b9450506020610c9287828801610c48565b9350506040610ca387828801610c48565b9250506060610cb487828801610c48565b91505092959194509250565b5f60208284031215610cd557610cd4610c2e565b5b5f610ce284828501610c48565b91505092915050565b5f73ffffffffffffffffffffffffffffffffffffffff82169050919050565b5f819050919050565b5f610d2d610d28610d2384610ceb565b610d0a565b610ceb565b9050919050565b5f610d3e82610d13565b9050919050565b5f610d4f82610d34565b9050919050565b610d5f81610d45565b82525050565b5f602082019050610d785f830184610d56565b92915050565b5f5f5f60608486031215610d9557610d94610c2e565b5b5f610da286828701610c48565b9350506020610db386828701610c48565b9250506040610dc486828701610c48565b9150509250925092565b5f610dd882610ceb565b9050919050565b610de881610dce565b82525050565b5f8115159050919050565b610e0281610dee565b82525050565b5f60a082019050610e1b5f830188610ddf565b610e286020830187610c06565b610e356040830186610c06565b610e426060830185610c06565b610e4f6080830184610df9565b9695505050505050565b5f82825260208201905092915050565b7f6e6f742073656c6c6572000000000000000000000000000000000000000000005f82015250565b5f610e9d600a83610e59565b9150610ea882610e69565b602082019050919050565b5f6020820190508181035f830152610eca81610e91565b9050919050565b7f696e6163746976650000000000000000000000000000000000000000000000005f82015250565b5f610f05600883610e59565b9150610f1082610ed1565b602082019050919050565b5f6020820190508181035f830152610f3281610ef9565b9050919050565b7f65787069726564000000000000000000000000000000000000000000000000005f82015250565b5f610f6d600783610e59565b9150610f7882610f39565b602082019050919050565b5f6020820190508181035f830152610f9a81610f61565b9050919050565b5f604082019050610fb45f830185610ddf565b610fc16020830184610c06565b9392505050565b610fd181610dee565b8114610fdb575f5ffd5b50565b5f81519050610fec81610fc8565b92915050565b5f6020828403121561100757611006610c2e565b5b5f61101484828501610fde565b91505092915050565b7f6173736574207472616e73666572206661696c656400000000000000000000005f82015250565b5f611051601583610e59565b915061105c8261101d565b602082019050919050565b5f6020820190508181035f83015261107e81611045565b9050919050565b7f4e487b71000000000000000000000000000000000000000000000000000000005f52601160045260245ffd5b5f6110bc82610bfd565b91506110c783610bfd565b92508282026110d581610bfd565b915082820484148315176110ec576110eb611085565b5b5092915050565b7f4e487b71000000000000000000000000000000000000000000000000000000005f52601260045260245ffd5b5f61112a82610bfd565b915061113583610bfd565b925082611145576111446110f3565b5b828204905092915050565b5f61115a82610bfd565b915061116583610bfd565b925082820190508082111561117d5761117c611085565b5b92915050565b5f61118d82610bfd565b915061119883610bfd565b92508282039050818111156111b0576111af611085565b5b92915050565b5f6060820190506111c95f830186610ddf565b6111d66020830185610ddf565b6111e36040830184610c06565b949350505050565b7f7061792073656c6c6572206661696c65640000000000000000000000000000005f82015250565b5f61121f601183610e59565b915061122a826111eb565b602082019050919050565b5f6020820190508181035f83015261124c81611213565b9050919050565b7f70617920666565206661696c65640000000000000000000000000000000000005f82015250565b5f611287600e83610e59565b915061129282611253565b602082019050919050565b5f6020820190508181035f8301526112b48161127b565b9050919050565b7f73656e64206173736574206661696c65640000000000000000000000000000005f82015250565b5f6112ef601183610e59565b91506112fa826112bb565b602082019050919050565b5f6020820190508181035f83015261131c816112e3565b9050919050565b5f61132d82610bfd565b91507fffffffffffffffffffffffffffffffffffffffffffffffffffffffffffffffff820361135f5761135e611085565b5b60018201905091905056fea2646970667358221220ff334ce946e6b88476f0f121afa7a57cffb04007c51cddda56fb00db2b77791c64736f6c63430008210033","linkReferences":{}},"methodIdentifiers":{"amendSellOrder(uint256,uint256,uint256,uint256)":"178ed045","asset()":"38d52e0f","buyOrder(uint256)":"22f85eaa","cancelSellOrder(uint256)":"1a46e42a","createSellOrder(uint256,uint256,uint256)":"3a219c29","feeBps()":"24a9d853","nextOrderId()":"2a58b330","orders(uint256)":"a85c38ef","totalFees()":"13114a9d","usdc()":"3e413bee"}}}}}