{"src/SafeVault.sol":{"SafeVault":{"abi":[{"type":"function","name":"asset","inputs":[],"outputs":[{"name":"","type":"address","internalType":"contract IERC20SafeLike"}],"stateMutability":"view"},{"type":"function","name":"balanceOf","inputs":[{"name":"","type":"address","internalType":"address"}],"outputs":[{"name":"","type":"uint256","internalType":"uint256"}],"stateMutability":"view"},{"type":"function","name":"deposit","inputs":[{"name":"amount","type":"uint256","internalType":"uint256"}],"outputs":[],"stateMutability":"nonpayable"},{"type":"function","name":"depositWithOracle","inputs":[{"name":"amount","type":"uint256","internalType":"uint256"}],"outputs":[],"stateMutability":"nonpayable"},{"type":"function","name":"initialize","inputs":[{"name":"asset_","type":"address","internalType":"address"},{"name":"oracle_","type":"address","internalType":"address"}],"outputs":[],"stateMutability":"nonpayable"},{"type":"function","name":"initialized","inputs":[],"outputs":[{"name":"","type":"bool","internalType":"bool"}],"stateMutability":"view"},{"type":"function","name":"oracle","inputs":[],"outputs":[{"name":"","type":"address","internalType":"contract IOracleSafeLike"}],"stateMutability":"view"},{"type":"function","name":"owner","inputs":[],"outputs":[{"name":"","type":"address","internalType":"address"}],"stateMutability":"view"},{"type":"function","name":"sweep","inputs":[{"name":"token","type":"address","internalType":"address"},{"name":"to","type":"address","internalType":"address"},{"name":"amount","type":"uint256","internalType":"uint256"}],"outputs":[],"stateMutability":"nonpayable"},{"type":"function","name":"withdraw","inputs":[{"name":"amount","type":"uint256","internalType":"uint256"}],"outputs":[],"stateMutability":"nonpayable"}],"userdoc":{},"devdoc":{},"evm":{"bytecode":{"object":"6080604052348015600e575f5ffd5b5061120c8061001c5f395ff3fe608060405234801561000f575f5ffd5b506004361061009c575f3560e01c806370a082311161006457806370a08231146101305780637dc0d1d0146101605780638da5cb5b1461017e5780639ca7fe2d1461019c578063b6b55f25146101b85761009c565b8063158ef93e146100a05780632e1a7d4d146100be57806338d52e0f146100da578063485cc955146100f857806362c0676714610114575b5f5ffd5b6100a86101d4565b6040516100b59190610acd565b60405180910390f35b6100d860048036038101906100d39190610b1d565b6101e7565b005b6100e261039c565b6040516100ef9190610bc2565b60405180910390f35b610112600480360381019061010d9190610c16565b6103c0565b005b61012e60048036038101906101299190610c54565b6104ee565b005b61014a60048036038101906101459190610ca4565b6106ca565b6040516101579190610cde565b60405180910390f35b6101686106df565b6040516101759190610d17565b60405180910390f35b610186610704565b6040516101939190610d3f565b60405180910390f35b6101b660048036038101906101b19190610b1d565b610729565b005b6101d260048036038101906101cd9190610b1d565b610981565b005b600260149054906101000a900460ff1681565b600260159054906101000a900460ff1615610237576040517f08c379a000000000000000000000000000000000000000000000000000000000815260040161022e90610db2565b60405180910390fd5b6001600260156101000a81548160ff0219169083151502179055508060035f3373ffffffffffffffffffffffffffffffffffffffff1673ffffffffffffffffffffffffffffffffffffffff1681526020019081526020015f205f82825461029e9190610dfd565b925050819055505f5f9054906101000a900473ffffffffffffffffffffffffffffffffffffffff1673ffffffffffffffffffffffffffffffffffffffff1663a9059cbb33836040518363ffffffff1660e01b8152600401610300929190610e30565b6020604051808303815f875af115801561031c573d5f5f3e3d5ffd5b505050506040513d601f19601f820116820180604052508101906103409190610e81565b61037f576040517f08c379a000000000000000000000000000000000000000000000000000000000815260040161037690610ef6565b60405180910390fd5b5f600260156101000a81548160ff02191690831515021790555050565b5f5f9054906101000a900473ffffffffffffffffffffffffffffffffffffffff1681565b600260149054906101000a900460ff1615610410576040517f08c379a000000000000000000000000000000000000000000000000000000000815260040161040790610f5e565b60405180910390fd5b6001600260146101000a81548160ff0219169083151502179055503360025f6101000a81548173ffffffffffffffffffffffffffffffffffffffff021916908373ffffffffffffffffffffffffffffffffffffffff160217905550815f5f6101000a81548173ffffffffffffffffffffffffffffffffffffffff021916908373ffffffffffffffffffffffffffffffffffffffff1602179055508060015f6101000a81548173ffffffffffffffffffffffffffffffffffffffff021916908373ffffffffffffffffffffffffffffffffffffffff1602179055505050565b60025f9054906101000a900473ffffffffffffffffffffffffffffffffffffffff1673ffffffffffffffffffffffffffffffffffffffff163373ffffffffffffffffffffffffffffffffffffffff161461057d576040517f08c379a000000000000000000000000000000000000000000000000000000000815260040161057490610fc6565b60405180910390fd5b5f5f9054906101000a900473ffffffffffffffffffffffffffffffffffffffff1673ffffffffffffffffffffffffffffffffffffffff168373ffffffffffffffffffffffffffffffffffffffff160361060b576040517f08c379a00000000000000000000000000000000000000000000000000000000081526004016106029061102e565b60405180910390fd5b8273ffffffffffffffffffffffffffffffffffffffff1663a9059cbb83836040518363ffffffff1660e01b8152600401610646929190610e30565b6020604051808303815f875af1158015610662573d5f5f3e3d5ffd5b505050506040513d601f19601f820116820180604052508101906106869190610e81565b6106c5576040517f08c379a00000000000000000000000000000000000000000000000000000000081526004016106bc90610ef6565b60405180910390fd5b505050565b6003602052805f5260405f205f915090505481565b60015f9054906101000a900473ffffffffffffffffffffffffffffffffffffffff1681565b60025f9054906101000a900473ffffffffffffffffffffffffffffffffffffffff1681565b5f5f60015f9054906101000a900473ffffffffffffffffffffffffffffffffffffffff1673ffffffffffffffffffffffffffffffffffffffff1663aea910785f5f9054906101000a900473ffffffffffffffffffffffffffffffffffffffff166040518263ffffffff1660e01b81526004016107a59190610d3f565b6040805180830381865afa1580156107bf573d5f5f3e3d5ffd5b505050506040513d601f19601f820116820180604052508101906107e39190611060565b915091505f821180156107f657505f8114155b801561080e5750611c20814261080c9190610dfd565b105b61084d576040517f08c379a0000000000000000000000000000000000000000000000000000000008152600401610844906110e8565b60405180910390fd5b5f5f9054906101000a900473ffffffffffffffffffffffffffffffffffffffff1673ffffffffffffffffffffffffffffffffffffffff166323b872dd3330866040518463ffffffff1660e01b81526004016108aa93929190611106565b6020604051808303815f875af11580156108c6573d5f5f3e3d5ffd5b505050506040513d601f19601f820116820180604052508101906108ea9190610e81565b610929576040517f08c379a000000000000000000000000000000000000000000000000000000000815260040161092090611185565b60405180910390fd5b8260035f3373ffffffffffffffffffffffffffffffffffffffff1673ffffffffffffffffffffffffffffffffffffffff1681526020019081526020015f205f82825461097591906111a3565b92505081905550505050565b5f5f9054906101000a900473ffffffffffffffffffffffffffffffffffffffff1673ffffffffffffffffffffffffffffffffffffffff166323b872dd3330846040518463ffffffff1660e01b81526004016109de93929190611106565b6020604051808303815f875af11580156109fa573d5f5f3e3d5ffd5b505050506040513d601f19601f82011682018060405250810190610a1e9190610e81565b610a5d576040517f08c379a0000000000000000000000000000000000000000000000000000000008152600401610a5490611185565b60405180910390fd5b8060035f3373ffffffffffffffffffffffffffffffffffffffff1673ffffffffffffffffffffffffffffffffffffffff1681526020019081526020015f205f828254610aa991906111a3565b9250508190555050565b5f8115159050919050565b610ac781610ab3565b82525050565b5f602082019050610ae05f830184610abe565b92915050565b5f5ffd5b5f819050919050565b610afc81610aea565b8114610b06575f5ffd5b50565b5f81359050610b1781610af3565b92915050565b5f60208284031215610b3257610b31610ae6565b5b5f610b3f84828501610b09565b91505092915050565b5f73ffffffffffffffffffffffffffffffffffffffff82169050919050565b5f819050919050565b5f610b8a610b85610b8084610b48565b610b67565b610b48565b9050919050565b5f610b9b82610b70565b9050919050565b5f610bac82610b91565b9050919050565b610bbc81610ba2565b82525050565b5f602082019050610bd55f830184610bb3565b92915050565b5f610be582610b48565b9050919050565b610bf581610bdb565b8114610bff575f5ffd5b50565b5f81359050610c1081610bec565b92915050565b5f5f60408385031215610c2c57610c2b610ae6565b5b5f610c3985828601610c02565b9250506020610c4a85828601610c02565b9150509250929050565b5f5f5f60608486031215610c6b57610c6a610ae6565b5b5f610c7886828701610c02565b9350506020610c8986828701610c02565b9250506040610c9a86828701610b09565b9150509250925092565b5f60208284031215610cb957610cb8610ae6565b5b5f610cc684828501610c02565b91505092915050565b610cd881610aea565b82525050565b5f602082019050610cf15f830184610ccf565b92915050565b5f610d0182610b91565b9050919050565b610d1181610cf7565b82525050565b5f602082019050610d2a5f830184610d08565b92915050565b610d3981610bdb565b82525050565b5f602082019050610d525f830184610d30565b92915050565b5f82825260208201905092915050565b7f4c4f434b454400000000000000000000000000000000000000000000000000005f82015250565b5f610d9c600683610d58565b9150610da782610d68565b602082019050919050565b5f6020820190508181035f830152610dc981610d90565b9050919050565b7f4e487b71000000000000000000000000000000000000000000000000000000005f52601160045260245ffd5b5f610e0782610aea565b9150610e1283610aea565b9250828203905081811115610e2a57610e29610dd0565b5b92915050565b5f604082019050610e435f830185610d30565b610e506020830184610ccf565b9392505050565b610e6081610ab3565b8114610e6a575f5ffd5b50565b5f81519050610e7b81610e57565b92915050565b5f60208284031215610e9657610e95610ae6565b5b5f610ea384828501610e6d565b91505092915050565b7f5452414e534645520000000000000000000000000000000000000000000000005f82015250565b5f610ee0600883610d58565b9150610eeb82610eac565b602082019050919050565b5f6020820190508181035f830152610f0d81610ed4565b9050919050565b7f494e495449414c495a45440000000000000000000000000000000000000000005f82015250565b5f610f48600b83610d58565b9150610f5382610f14565b602082019050919050565b5f6020820190508181035f830152610f7581610f3c565b9050919050565b7f4e4f545f4f574e455200000000000000000000000000000000000000000000005f82015250565b5f610fb0600983610d58565b9150610fbb82610f7c565b602082019050919050565b5f6020820190508181035f830152610fdd81610fa4565b9050919050565b7f41535345540000000000000000000000000000000000000000000000000000005f82015250565b5f611018600583610d58565b915061102382610fe4565b602082019050919050565b5f6020820190508181035f8301526110458161100c565b9050919050565b5f8151905061105a81610af3565b92915050565b5f5f6040838503121561107657611075610ae6565b5b5f6110838582860161104c565b92505060206110948582860161104c565b9150509250929050565b7f4f5241434c4500000000000000000000000000000000000000000000000000005f82015250565b5f6110d2600683610d58565b91506110dd8261109e565b602082019050919050565b5f6020820190508181035f8301526110ff816110c6565b9050919050565b5f6060820190506111195f830186610d30565b6111266020830185610d30565b6111336040830184610ccf565b949350505050565b7f5452414e534645525f46524f4d000000000000000000000000000000000000005f82015250565b5f61116f600d83610d58565b915061117a8261113b565b602082019050919050565b5f6020820190508181035f83015261119c81611163565b9050919050565b5f6111ad82610aea565b91506111b883610aea565b92508282019050808211156111d0576111cf610dd0565b5b9291505056fea26469706673582212208370624000557eb8a025c9c11f1bc43d9ad90e381b73b4a383fe0ffedcbc116c64736f6c63430008210033","linkReferences":{}},"methodIdentifiers":{"asset()":"38d52e0f","balanceOf(address)":"70a08231","deposit(uint256)":"b6b55f25","depositWithOracle(uint256)":"9ca7fe2d","initialize(address,address)":"485cc955","initialized()":"158ef93e","oracle()":"7dc0d1d0","owner()":"8da5cb5b","sweep(address,address,uint256)":"62c06767","withdraw(uint256)":"2e1a7d4d"}}}}}