{"abi":[{"type":"constructor","inputs":[],"stateMutability":"nonpayable"},{"type":"function","name":"balances","inputs":[{"name":"","type":"address","internalType":"address"}],"outputs":[{"name":"","type":"uint256","internalType":"uint256"}],"stateMutability":"view"},{"type":"function","name":"deposit","inputs":[],"outputs":[],"stateMutability":"payable"},{"type":"function","name":"emergencyWithdraw","inputs":[{"name":"to","type":"address","internalType":"address payable"}],"outputs":[],"stateMutability":"nonpayable"},{"type":"function","name":"owner","inputs":[],"outputs":[{"name":"","type":"address","internalType":"address"}],"stateMutability":"view"}],"bytecode":{"object":"0x608060405234801561000f575f80fd5b50335f806101000a81548173ffffffffffffffffffffffffffffffffffffffff021916908373ffffffffffffffffffffffffffffffffffffffff16021790555061038c8061005c5f395ff3fe60806040526004361061003e575f3560e01c806327e235e3146100425780636ff1c9bc1461007e5780638da5cb5b146100a6578063d0e30db0146100d0575b5f80fd5b34801561004d575f80fd5b506100686004803603810190610063919061020c565b6100da565b604051610075919061024f565b60405180910390f35b348015610089575f80fd5b506100a4600480360381019061009f91906102a3565b6100ef565b005b3480156100b1575f80fd5b506100ba610136565b6040516100c791906102dd565b60405180910390f35b6100d8610159565b005b6001602052805f5260405f205f915090505481565b8073ffffffffffffffffffffffffffffffffffffffff166108fc4790811502906040515f60405180830381858888f19350505050158015610132573d5f803e3d5ffd5b5050565b5f8054906101000a900473ffffffffffffffffffffffffffffffffffffffff1681565b3460015f3373ffffffffffffffffffffffffffffffffffffffff1673ffffffffffffffffffffffffffffffffffffffff1681526020019081526020015f205f8282546101a59190610323565b92505081905550565b5f80fd5b5f73ffffffffffffffffffffffffffffffffffffffff82169050919050565b5f6101db826101b2565b9050919050565b6101eb816101d1565b81146101f5575f80fd5b50565b5f81359050610206816101e2565b92915050565b5f60208284031215610221576102206101ae565b5b5f61022e848285016101f8565b91505092915050565b5f819050919050565b61024981610237565b82525050565b5f6020820190506102625f830184610240565b92915050565b5f610272826101b2565b9050919050565b61028281610268565b811461028c575f80fd5b50565b5f8135905061029d81610279565b92915050565b5f602082840312156102b8576102b76101ae565b5b5f6102c58482850161028f565b91505092915050565b6102d7816101d1565b82525050565b5f6020820190506102f05f8301846102ce565b92915050565b7f4e487b71000000000000000000000000000000000000000000000000000000005f52601160045260245ffd5b5f61032d82610237565b915061033883610237565b92508282019050808211156103505761034f6102f6565b5b9291505056fea2646970667358221220a5cd01001f60404c93043771bc3403a493a157427467d0de60946e40ac7eff2a64736f6c63430008140033","linkReferences":{}},"methodIdentifiers":{"balances(address)":"27e235e3","deposit()":"d0e30db0","emergencyWithdraw(address)":"6ff1c9bc","owner()":"8da5cb5b"},"id":0}