{"abi":[{"type":"receive","stateMutability":"payable"},{"type":"function","name":"acceptOwnership","inputs":[],"outputs":[],"stateMutability":"nonpayable"},{"type":"function","name":"accountCredit","inputs":[{"name":"","type":"address","internalType":"address"}],"outputs":[{"name":"","type":"uint256","internalType":"uint256"}],"stateMutability":"view"},{"type":"function","name":"accrueManagementFee","inputs":[],"outputs":[{"name":"mintedShares","type":"uint256","internalType":"uint256"}],"stateMutability":"nonpayable"},{"type":"function","name":"addStrategy","inputs":[{"name":"strategy","type":"address","internalType":"address"},{"name":"targetBps","type":"uint16","internalType":"uint16"},{"name":"trusted","type":"bool","internalType":"bool"}],"outputs":[],"stateMutability":"nonpayable"},{"type":"function","name":"allocate","inputs":[{"name":"strategy","type":"address","internalType":"address"},{"name":"amount","type":"uint256","internalType":"uint256"},{"name":"data","type":"bytes","internalType":"bytes"}],"outputs":[],"stateMutability":"nonpayable"},{"type":"function","name":"allowance","inputs":[{"name":"","type":"address","internalType":"address"},{"name":"","type":"address","internalType":"address"}],"outputs":[{"name":"","type":"uint256","internalType":"uint256"}],"stateMutability":"view"},{"type":"function","name":"approve","inputs":[{"name":"spender","type":"address","internalType":"address"},{"name":"amount","type":"uint256","internalType":"uint256"}],"outputs":[{"name":"","type":"bool","internalType":"bool"}],"stateMutability":"nonpayable"},{"type":"function","name":"asset","inputs":[],"outputs":[{"name":"","type":"address","internalType":"contract IERC20Like"}],"stateMutability":"view"},{"type":"function","name":"autoRebalance","inputs":[{"name":"calls","type":"bytes[]","internalType":"bytes[]"}],"outputs":[],"stateMutability":"nonpayable"},{"type":"function","name":"balanceOf","inputs":[{"name":"","type":"address","internalType":"address"}],"outputs":[{"name":"","type":"uint256","internalType":"uint256"}],"stateMutability":"view"},{"type":"function","name":"batch","inputs":[{"name":"calls","type":"bytes[]","internalType":"bytes[]"}],"outputs":[{"name":"results","type":"bytes[]","internalType":"bytes[]"}],"stateMutability":"payable"},{"type":"function","name":"claimSignedCredit","inputs":[{"name":"assets","type":"uint256","internalType":"uint256"},{"name":"deadline","type":"uint256","internalType":"uint256"},{"name":"v","type":"uint8","internalType":"uint8"},{"name":"r","type":"bytes32","internalType":"bytes32"},{"name":"s","type":"bytes32","internalType":"bytes32"}],"outputs":[{"name":"shares","type":"uint256","internalType":"uint256"}],"stateMutability":"nonpayable"},{"type":"function","name":"compoundRewards","inputs":[{"name":"rewardTokens","type":"address[]","internalType":"address[]"},{"name":"swapCalls","type":"bytes[]","internalType":"bytes[]"},{"name":"minAssetsOut","type":"uint256","internalType":"uint256"}],"outputs":[],"stateMutability":"nonpayable"},{"type":"function","name":"convertToAssets","inputs":[{"name":"shares","type":"uint256","internalType":"uint256"}],"outputs":[{"name":"","type":"uint256","internalType":"uint256"}],"stateMutability":"view"},{"type":"function","name":"convertToShares","inputs":[{"name":"assets","type":"uint256","internalType":"uint256"}],"outputs":[{"name":"","type":"uint256","internalType":"uint256"}],"stateMutability":"view"},{"type":"function","name":"creditScalar","inputs":[],"outputs":[{"name":"","type":"uint256","internalType":"uint256"}],"stateMutability":"view"},{"type":"function","name":"decimals","inputs":[],"outputs":[{"name":"","type":"uint8","internalType":"uint8"}],"stateMutability":"view"},{"type":"function","name":"deposit","inputs":[{"name":"assets","type":"uint256","internalType":"uint256"},{"name":"receiver","type":"address","internalType":"address"}],"outputs":[{"name":"shares","type":"uint256","internalType":"uint256"}],"stateMutability":"nonpayable"},{"type":"function","name":"depositWithOracle","inputs":[{"name":"assets","type":"uint256","internalType":"uint256"},{"name":"receiver","type":"address","internalType":"address"},{"name":"minShares","type":"uint256","internalType":"uint256"}],"outputs":[{"name":"shares","type":"uint256","internalType":"uint256"}],"stateMutability":"nonpayable"},{"type":"function","name":"donate","inputs":[{"name":"assets","type":"uint256","internalType":"uint256"}],"outputs":[{"name":"newPps","type":"uint256","internalType":"uint256"}],"stateMutability":"nonpayable"},{"type":"function","name":"epochLength","inputs":[],"outputs":[{"name":"","type":"uint256","internalType":"uint256"}],"stateMutability":"view"},{"type":"function","name":"flashFeeBps","inputs":[],"outputs":[{"name":"","type":"uint256","internalType":"uint256"}],"stateMutability":"view"},{"type":"function","name":"flashLoan","inputs":[{"name":"receiver","type":"address","internalType":"address"},{"name":"amount","type":"uint256","internalType":"uint256"},{"name":"data","type":"bytes","internalType":"bytes"}],"outputs":[{"name":"","type":"bool","internalType":"bool"}],"stateMutability":"nonpayable"},{"type":"function","name":"harvest","inputs":[{"name":"strategy","type":"address","internalType":"address"}],"outputs":[{"name":"reported","type":"uint256","internalType":"uint256"},{"name":"keeperRewardShares","type":"uint256","internalType":"uint256"}],"stateMutability":"nonpayable"},{"type":"function","name":"highWaterMark","inputs":[],"outputs":[{"name":"","type":"uint256","internalType":"uint256"}],"stateMutability":"view"},{"type":"function","name":"initialize","inputs":[{"name":"asset_","type":"address","internalType":"address"},{"name":"treasury_","type":"address","internalType":"address"},{"name":"name_","type":"string","internalType":"string"},{"name":"symbol_","type":"string","internalType":"string"}],"outputs":[],"stateMutability":"nonpayable"},{"type":"function","name":"initialized","inputs":[],"outputs":[{"name":"","type":"bool","internalType":"bool"}],"stateMutability":"view"},{"type":"function","name":"keeper","inputs":[],"outputs":[{"name":"","type":"address","internalType":"address"}],"stateMutability":"view"},{"type":"function","name":"lastAccountingUpdate","inputs":[],"outputs":[{"name":"","type":"uint256","internalType":"uint256"}],"stateMutability":"view"},{"type":"function","name":"lastDepositAt","inputs":[{"name":"","type":"address","internalType":"address"}],"outputs":[{"name":"","type":"uint256","internalType":"uint256"}],"stateMutability":"view"},{"type":"function","name":"managementFeeBps","inputs":[],"outputs":[{"name":"","type":"uint256","internalType":"uint256"}],"stateMutability":"view"},{"type":"function","name":"maxTotalAssets","inputs":[],"outputs":[{"name":"","type":"uint256","internalType":"uint256"}],"stateMutability":"view"},{"type":"function","name":"maxWithdraw","inputs":[{"name":"owner_","type":"address","internalType":"address"}],"outputs":[{"name":"","type":"uint256","internalType":"uint256"}],"stateMutability":"view"},{"type":"function","name":"migrateStrategy","inputs":[{"name":"oldStrategy","type":"address","internalType":"address"},{"name":"newStrategy","type":"address","internalType":"address"},{"name":"migrationData","type":"bytes","internalType":"bytes"}],"outputs":[],"stateMutability":"nonpayable"},{"type":"function","name":"mint","inputs":[{"name":"shares","type":"uint256","internalType":"uint256"},{"name":"receiver","type":"address","internalType":"address"}],"outputs":[{"name":"assets","type":"uint256","internalType":"uint256"}],"stateMutability":"nonpayable"},{"type":"function","name":"name","inputs":[],"outputs":[{"name":"","type":"string","internalType":"string"}],"stateMutability":"view"},{"type":"function","name":"nonces","inputs":[{"name":"","type":"address","internalType":"address"}],"outputs":[{"name":"","type":"uint256","internalType":"uint256"}],"stateMutability":"view"},{"type":"function","name":"oracle","inputs":[],"outputs":[{"name":"","type":"address","internalType":"address"}],"stateMutability":"view"},{"type":"function","name":"owner","inputs":[],"outputs":[{"name":"","type":"address","internalType":"address"}],"stateMutability":"view"},{"type":"function","name":"pause","inputs":[{"name":"status","type":"bool","internalType":"bool"}],"outputs":[],"stateMutability":"nonpayable"},{"type":"function","name":"paused","inputs":[],"outputs":[{"name":"","type":"bool","internalType":"bool"}],"stateMutability":"view"},{"type":"function","name":"pendingOwner","inputs":[],"outputs":[{"name":"","type":"address","internalType":"address"}],"stateMutability":"view"},{"type":"function","name":"performanceFeeBps","inputs":[],"outputs":[{"name":"","type":"uint256","internalType":"uint256"}],"stateMutability":"view"},{"type":"function","name":"permit","inputs":[{"name":"owner_","type":"address","internalType":"address"},{"name":"spender","type":"address","internalType":"address"},{"name":"value","type":"uint256","internalType":"uint256"},{"name":"deadline","type":"uint256","internalType":"uint256"},{"name":"v","type":"uint8","internalType":"uint8"},{"name":"r","type":"bytes32","internalType":"bytes32"},{"name":"s","type":"bytes32","internalType":"bytes32"}],"outputs":[],"stateMutability":"nonpayable"},{"type":"function","name":"previewDeposit","inputs":[{"name":"assets","type":"uint256","internalType":"uint256"}],"outputs":[{"name":"","type":"uint256","internalType":"uint256"}],"stateMutability":"view"},{"type":"function","name":"previewMint","inputs":[{"name":"shares","type":"uint256","internalType":"uint256"}],"outputs":[{"name":"","type":"uint256","internalType":"uint256"}],"stateMutability":"view"},{"type":"function","name":"previewRedeem","inputs":[{"name":"shares","type":"uint256","internalType":"uint256"}],"outputs":[{"name":"","type":"uint256","internalType":"uint256"}],"stateMutability":"view"},{"type":"function","name":"previewWithdraw","inputs":[{"name":"assets","type":"uint256","internalType":"uint256"}],"outputs":[{"name":"","type":"uint256","internalType":"uint256"}],"stateMutability":"view"},{"type":"function","name":"pricePerShare","inputs":[],"outputs":[{"name":"","type":"uint256","internalType":"uint256"}],"stateMutability":"view"},{"type":"function","name":"recall","inputs":[{"name":"strategy","type":"address","internalType":"address"},{"name":"amount","type":"uint256","internalType":"uint256"},{"name":"receiver","type":"address","internalType":"address"}],"outputs":[{"name":"returnedAmount","type":"uint256","internalType":"uint256"}],"stateMutability":"nonpayable"},{"type":"function","name":"redeem","inputs":[{"name":"shares","type":"uint256","internalType":"uint256"},{"name":"receiver","type":"address","internalType":"address"},{"name":"owner_","type":"address","internalType":"address"}],"outputs":[{"name":"assets","type":"uint256","internalType":"uint256"}],"stateMutability":"nonpayable"},{"type":"function","name":"rescueNative","inputs":[{"name":"to","type":"address","internalType":"address payable"},{"name":"amount","type":"uint256","internalType":"uint256"}],"outputs":[],"stateMutability":"nonpayable"},{"type":"function","name":"rewardDebt","inputs":[{"name":"","type":"address","internalType":"address"}],"outputs":[{"name":"","type":"uint256","internalType":"uint256"}],"stateMutability":"view"},{"type":"function","name":"setAddresses","inputs":[{"name":"keeper_","type":"address","internalType":"address"},{"name":"treasury_","type":"address","internalType":"address"},{"name":"oracle_","type":"address","internalType":"address"},{"name":"withdrawHook_","type":"address","internalType":"address"}],"outputs":[],"stateMutability":"nonpayable"},{"type":"function","name":"setRiskParameters","inputs":[{"name":"managementFeeBps_","type":"uint256","internalType":"uint256"},{"name":"performanceFeeBps_","type":"uint256","internalType":"uint256"},{"name":"flashFeeBps_","type":"uint256","internalType":"uint256"},{"name":"withdrawDelay_","type":"uint256","internalType":"uint256"},{"name":"maxTotalAssets_","type":"uint256","internalType":"uint256"}],"outputs":[],"stateMutability":"nonpayable"},{"type":"function","name":"setStrategyLimit","inputs":[{"name":"strategy","type":"address","internalType":"address"},{"name":"idleLimit","type":"uint256","internalType":"uint256"}],"outputs":[],"stateMutability":"nonpayable"},{"type":"function","name":"strategies","inputs":[{"name":"","type":"address","internalType":"address"}],"outputs":[{"name":"active","type":"bool","internalType":"bool"},{"name":"trusted","type":"bool","internalType":"bool"},{"name":"targetBps","type":"uint16","internalType":"uint16"},{"name":"lastReport","type":"uint64","internalType":"uint64"},{"name":"debt","type":"uint256","internalType":"uint256"},{"name":"idleLimit","type":"uint256","internalType":"uint256"}],"stateMutability":"view"},{"type":"function","name":"strategiesLength","inputs":[],"outputs":[{"name":"","type":"uint256","internalType":"uint256"}],"stateMutability":"view"},{"type":"function","name":"strategyList","inputs":[{"name":"","type":"uint256","internalType":"uint256"}],"outputs":[{"name":"","type":"address","internalType":"address"}],"stateMutability":"view"},{"type":"function","name":"sweep","inputs":[{"name":"token","type":"address","internalType":"address"},{"name":"to","type":"address","internalType":"address"},{"name":"amount","type":"uint256","internalType":"uint256"}],"outputs":[],"stateMutability":"nonpayable"},{"type":"function","name":"symbol","inputs":[],"outputs":[{"name":"","type":"string","internalType":"string"}],"stateMutability":"view"},{"type":"function","name":"totalAssets","inputs":[],"outputs":[{"name":"","type":"uint256","internalType":"uint256"}],"stateMutability":"view"},{"type":"function","name":"totalManagedDebt","inputs":[],"outputs":[{"name":"","type":"uint256","internalType":"uint256"}],"stateMutability":"view"},{"type":"function","name":"totalSupply","inputs":[],"outputs":[{"name":"","type":"uint256","internalType":"uint256"}],"stateMutability":"view"},{"type":"function","name":"transfer","inputs":[{"name":"to","type":"address","internalType":"address"},{"name":"amount","type":"uint256","internalType":"uint256"}],"outputs":[{"name":"","type":"bool","internalType":"bool"}],"stateMutability":"nonpayable"},{"type":"function","name":"transferFrom","inputs":[{"name":"from","type":"address","internalType":"address"},{"name":"to","type":"address","internalType":"address"},{"name":"amount","type":"uint256","internalType":"uint256"}],"outputs":[{"name":"","type":"bool","internalType":"bool"}],"stateMutability":"nonpayable"},{"type":"function","name":"transferOwnership","inputs":[{"name":"newPendingOwner","type":"address","internalType":"address"}],"outputs":[],"stateMutability":"nonpayable"},{"type":"function","name":"treasury","inputs":[],"outputs":[{"name":"","type":"address","internalType":"address"}],"stateMutability":"view"},{"type":"function","name":"withdraw","inputs":[{"name":"assets","type":"uint256","internalType":"uint256"},{"name":"receiver","type":"address","internalType":"address"},{"name":"owner_","type":"address","internalType":"address"},{"name":"hookData","type":"bytes","internalType":"bytes"}],"outputs":[{"name":"shares","type":"uint256","internalType":"uint256"}],"stateMutability":"nonpayable"},{"type":"function","name":"withdrawDelay","inputs":[],"outputs":[{"name":"","type":"uint256","internalType":"uint256"}],"stateMutability":"view"},{"type":"function","name":"withdrawHook","inputs":[],"outputs":[{"name":"","type":"address","internalType":"address"}],"stateMutability":"view"},{"type":"event","name":"Approval","inputs":[{"name":"owner","type":"address","indexed":true,"internalType":"address"},{"name":"spender","type":"address","indexed":true,"internalType":"address"},{"name":"value","type":"uint256","indexed":false,"internalType":"uint256"}],"anonymous":false},{"type":"event","name":"Deposit","inputs":[{"name":"caller","type":"address","indexed":true,"internalType":"address"},{"name":"owner","type":"address","indexed":true,"internalType":"address"},{"name":"assets","type":"uint256","indexed":false,"internalType":"uint256"},{"name":"shares","type":"uint256","indexed":false,"internalType":"uint256"}],"anonymous":false},{"type":"event","name":"FlashLoan","inputs":[{"name":"borrower","type":"address","indexed":true,"internalType":"address"},{"name":"amount","type":"uint256","indexed":false,"internalType":"uint256"},{"name":"fee","type":"uint256","indexed":false,"internalType":"uint256"}],"anonymous":false},{"type":"event","name":"Paused","inputs":[{"name":"status","type":"bool","indexed":false,"internalType":"bool"}],"anonymous":false},{"type":"event","name":"Rebalanced","inputs":[{"name":"strategy","type":"address","indexed":true,"internalType":"address"},{"name":"amountDelta","type":"int256","indexed":false,"internalType":"int256"}],"anonymous":false},{"type":"event","name":"StrategyAdded","inputs":[{"name":"strategy","type":"address","indexed":true,"internalType":"address"},{"name":"targetBps","type":"uint16","indexed":false,"internalType":"uint16"},{"name":"trusted","type":"bool","indexed":false,"internalType":"bool"}],"anonymous":false},{"type":"event","name":"StrategyReported","inputs":[{"name":"strategy","type":"address","indexed":true,"internalType":"address"},{"name":"oldDebt","type":"uint256","indexed":false,"internalType":"uint256"},{"name":"newDebt","type":"uint256","indexed":false,"internalType":"uint256"},{"name":"keeperRewardShares","type":"uint256","indexed":false,"internalType":"uint256"}],"anonymous":false},{"type":"event","name":"Transfer","inputs":[{"name":"from","type":"address","indexed":true,"internalType":"address"},{"name":"to","type":"address","indexed":true,"internalType":"address"},{"name":"value","type":"uint256","indexed":false,"internalType":"uint256"}],"anonymous":false},{"type":"event","name":"Withdraw","inputs":[{"name":"caller","type":"address","indexed":true,"internalType":"address"},{"name":"receiver","type":"address","indexed":true,"internalType":"address"},{"name":"owner","type":"address","indexed":true,"internalType":"address"},{"name":"assets","type":"uint256","indexed":false,"internalType":"uint256"},{"name":"shares","type":"uint256","indexed":false,"internalType":"uint256"}],"anonymous":false}],"bytecode":{"object":"0x6080604052348015600e575f80fd5b506190c88061001c5f395ff3fe608060405260043610610413575f3560e01c80637dc0d1d01161021d578063bcd9ca3d11610122578063e0232b42116100aa578063ef8b30f711610079578063ef8b30f7146110a6578063f14faf6f146110e2578063f2fde38b1461111e578063f34fd6c614611146578063f47e284c146111705761041a565b8063e0232b4214610fee578063e30c39781461102a578063ec0aa00214611054578063ee7ae20d1461107e5761041a565b8063d4766e57116100f1578063d4766e5714610f0e578063d505accf14610f38578063d820f49214610f60578063dbbfaa7a14610f8a578063dd62ed3e14610fb25761041a565b8063bcd9ca3d14610e1e578063c31295d414610e5a578063c6e6f59214610e96578063ce96cb7714610ed25761041a565b8063a39506d4116101a5578063aced166111610174578063aced166114610d2a578063b01a955014610d54578063b3d7f6b914610d7c578063b9d4e87914610db8578063ba08765214610de25761041a565b8063a39506d414610c4c578063a5849ed014610c88578063a7b7e98814610cb2578063a9059cbb14610cee5761041a565b80638da5cb5b116101ec5780638da5cb5b14610b5657806394bf804d14610b8057806395d89b4114610bbc57806399530b0614610be6578063a267526b14610c105761041a565b80637dc0d1d014610a8c5780637ecebe0014610ab6578063801eab0014610af257806382290f0e14610b1a5761041a565b8063313ce567116103235780635873eb9b116102ab57806366dfd4891161027a57806366dfd489146109985780636e553f65146109c25780636f0b6ce0146109fe57806370a0823114610a3a57806379ba509714610a765761041a565b80635873eb9b146108e05780635c975abb1461091c57806361d027b31461094657806362c06767146109705761041a565b80633f74bb89116102f25780633f74bb89146107fe5780634a945f8d146108285780634cdad50614610850578063508ffd381461088c57806357d775f8146108b65761041a565b8063313ce5671461073f5780633813c35a1461076957806338d52e0f1461079357806339ebf823146107bd5761041a565b80630e5c011e116103a65780631c75e369116103755780631c75e369146106595780631e8410da146106815780631e897afb146106ab5780632016a0d2146106db57806323b872dd146107035761041a565b80630e5c011e146105a05780631291f79d146105dd578063158ef93e1461060557806318160ddd1461062f5761041a565b806307a2d13a116103e257806307a2d13a146104c4578063095ea7b3146105005780630a28a4771461053c5780630b9af371146105785761041a565b806301e1d1141461041e57806302329a29146104485780630288a39c1461047057806306fdde031461049a5761041a565b3661041a57005b5f80fd5b348015610429575f80fd5b50610432611198565b60405161043f91906168af565b60405180910390f35b348015610453575f80fd5b5061046e6004803603810190610469919061690e565b611245565b005b34801561047b575f80fd5b506104846113d5565b60405161049191906168af565b60405180910390f35b3480156104a5575f80fd5b506104ae6113db565b6040516104bb91906169a9565b60405180910390f35b3480156104cf575f80fd5b506104ea60048036038101906104e591906169f3565b611466565b6040516104f791906168af565b60405180910390f35b34801561050b575f80fd5b5061052660048036038101906105219190616a78565b6114a4565b6040516105339190616ac5565b60405180910390f35b348015610547575f80fd5b50610562600480360381019061055d91906169f3565b611591565b60405161056f91906168af565b60405180910390f35b348015610583575f80fd5b5061059e60048036038101906105999190616b94565b6115cf565b005b3480156105ab575f80fd5b506105c660048036038101906105c19190616c25565b611a47565b6040516105d4929190616c50565b60405180910390f35b3480156105e8575f80fd5b5061060360048036038101906105fe9190616cb2565b611eb2565b005b348015610610575f80fd5b50610619612037565b6040516106269190616ac5565b60405180910390f35b34801561063a575f80fd5b5061064361204a565b60405161065091906168af565b60405180910390f35b348015610664575f80fd5b5061067f600480360381019061067a9190616d45565b612050565b005b34801561068c575f80fd5b5061069561249b565b6040516106a291906168af565b60405180910390f35b6106c560048036038101906106c09190616db6565b6124a1565b6040516106d29190616f0e565b60405180910390f35b3480156106e6575f80fd5b5061070160048036038101906106fc9190617056565b6126ea565b005b34801561070e575f80fd5b50610729600480360381019061072491906170f2565b61294b565b6040516107369190616ac5565b60405180910390f35b34801561074a575f80fd5b50610753612b6c565b604051610760919061715d565b60405180910390f35b348015610774575f80fd5b5061077d612b7e565b60405161078a91906168af565b60405180910390f35b34801561079e575f80fd5b506107a7612b84565b6040516107b491906171d1565b60405180910390f35b3480156107c8575f80fd5b506107e360048036038101906107de9190616c25565b612baa565b6040516107f596959493929190617228565b60405180910390f35b348015610809575f80fd5b50610812612c1a565b60405161081f91906168af565b60405180910390f35b348015610833575f80fd5b5061084e60048036038101906108499190617287565b612c26565b005b34801561085b575f80fd5b50610876600480360381019061087191906169f3565b612e12565b60405161088391906168af565b60405180910390f35b348015610897575f80fd5b506108a0612e23565b6040516108ad91906168af565b60405180910390f35b3480156108c1575f80fd5b506108ca612e29565b6040516108d791906168af565b60405180910390f35b3480156108eb575f80fd5b5061090660048036038101906109019190616c25565b612e2f565b60405161091391906168af565b60405180910390f35b348015610927575f80fd5b50610930612e44565b60405161093d9190616ac5565b60405180910390f35b348015610951575f80fd5b5061095a612e56565b60405161096791906172fa565b60405180910390f35b34801561097b575f80fd5b50610996600480360381019061099191906170f2565b612e7b565b005b3480156109a3575f80fd5b506109ac61312d565b6040516109b991906168af565b60405180910390f35b3480156109cd575f80fd5b506109e860048036038101906109e39190617313565b613133565b6040516109f591906168af565b60405180910390f35b348015610a09575f80fd5b50610a246004803603810190610a1f9190616c25565b61338e565b604051610a3191906168af565b60405180910390f35b348015610a45575f80fd5b50610a606004803603810190610a5b9190616c25565b6133a3565b604051610a6d91906168af565b60405180910390f35b348015610a81575f80fd5b50610a8a6133b8565b005b348015610a97575f80fd5b50610aa06134c9565b604051610aad91906172fa565b60405180910390f35b348015610ac1575f80fd5b50610adc6004803603810190610ad79190616c25565b6134ee565b604051610ae991906168af565b60405180910390f35b348015610afd575f80fd5b50610b186004803603810190610b139190616a78565b613503565b005b348015610b25575f80fd5b50610b406004803603810190610b3b9190617351565b613689565b604051610b4d91906168af565b60405180910390f35b348015610b61575f80fd5b50610b6a6139b3565b604051610b7791906172fa565b60405180910390f35b348015610b8b575f80fd5b50610ba66004803603810190610ba19190617313565b6139d8565b604051610bb391906168af565b60405180910390f35b348015610bc7575f80fd5b50610bd0613b8f565b604051610bdd91906169a9565b60405180910390f35b348015610bf1575f80fd5b50610bfa613c1b565b604051610c0791906168af565b60405180910390f35b348015610c1b575f80fd5b50610c366004803603810190610c3191906169f3565b613c63565b604051610c4391906172fa565b60405180910390f35b348015610c57575f80fd5b50610c726004803603810190610c6d91906173fe565b613c9e565b604051610c7f91906168af565b60405180910390f35b348015610c93575f80fd5b50610c9c613f28565b604051610ca991906168af565b60405180910390f35b348015610cbd575f80fd5b50610cd86004803603810190610cd39190617475565b613f2e565b604051610ce591906168af565b60405180910390f35b348015610cf9575f80fd5b50610d146004803603810190610d0f9190616a78565b614204565b604051610d219190616ac5565b60405180910390f35b348015610d35575f80fd5b50610d3e61421a565b604051610d4b91906172fa565b60405180910390f35b348015610d5f575f80fd5b50610d7a6004803603810190610d759190617523565b61423f565b005b348015610d87575f80fd5b50610da26004803603810190610d9d91906169f3565b614565565b604051610daf91906168af565b60405180910390f35b348015610dc3575f80fd5b50610dcc6145a3565b604051610dd991906168af565b60405180910390f35b348015610ded575f80fd5b50610e086004803603810190610e039190617573565b6145a9565b604051610e1591906168af565b60405180910390f35b348015610e29575f80fd5b50610e446004803603810190610e3f91906175c3565b614879565b604051610e5191906168af565b60405180910390f35b348015610e65575f80fd5b50610e806004803603810190610e7b9190616c25565b614bac565b604051610e8d91906168af565b60405180910390f35b348015610ea1575f80fd5b50610ebc6004803603810190610eb791906169f3565b614bc1565b604051610ec991906168af565b60405180910390f35b348015610edd575f80fd5b50610ef86004803603810190610ef39190616c25565b614bff565b604051610f0591906168af565b60405180910390f35b348015610f19575f80fd5b50610f22614c4d565b604051610f2f91906172fa565b60405180910390f35b348015610f43575f80fd5b50610f5e6004803603810190610f599190617613565b614c72565b005b348015610f6b575f80fd5b50610f74614f21565b604051610f8191906168af565b60405180910390f35b348015610f95575f80fd5b50610fb06004803603810190610fab91906176b0565b614f27565b005b348015610fbd575f80fd5b50610fd86004803603810190610fd39190617721565b6154b5565b604051610fe591906168af565b60405180910390f35b348015610ff9575f80fd5b50611014600480360381019061100f9190616d45565b6154d5565b6040516110219190616ac5565b60405180910390f35b348015611035575f80fd5b5061103e6158be565b60405161104b91906172fa565b60405180910390f35b34801561105f575f80fd5b506110686158e3565b60405161107591906168af565b60405180910390f35b348015611089575f80fd5b506110a4600480360381019061109f919061775f565b6158e9565b005b3480156110b1575f80fd5b506110cc60048036038101906110c791906169f3565b615a57565b6040516110d991906168af565b60405180910390f35b3480156110ed575f80fd5b50611108600480360381019061110391906169f3565b615a68565b60405161111591906168af565b60405180910390f35b348015611129575f80fd5b50611144600480360381019061113f9190616c25565b615a82565b005b348015611151575f80fd5b5061115a615bab565b60405161116791906168af565b60405180910390f35b34801561117b575f80fd5b5061119660048036038101906111919190616db6565b615c3b565b005b5f600a54600260019054906101000a900473ffffffffffffffffffffffffffffffffffffffff1673ffffffffffffffffffffffffffffffffffffffff166370a08231306040518263ffffffff1660e01b81526004016111f791906172fa565b602060405180830381865afa158015611212573d5f803e3d5ffd5b505050506040513d601f19601f8201168201806040525081019061123691906177ea565b6112409190617842565b905090565b60055f9054906101000a900473ffffffffffffffffffffffffffffffffffffffff1673ffffffffffffffffffffffffffffffffffffffff163373ffffffffffffffffffffffffffffffffffffffff1614806112ec575060035f9054906101000a900473ffffffffffffffffffffffffffffffffffffffff1673ffffffffffffffffffffffffffffffffffffffff163373ffffffffffffffffffffffffffffffffffffffff16145b80611343575060055f9054906101000a900473ffffffffffffffffffffffffffffffffffffffff1673ffffffffffffffffffffffffffffffffffffffff163273ffffffffffffffffffffffffffffffffffffffff16145b611382576040517f08c379a0000000000000000000000000000000000000000000000000000000008152600401611379906178bf565b60405180910390fd5b8060145f6101000a81548160ff0219169083151502179055507f0e2fb031ee032dc02d8011dc50b816eb450cf856abd8261680dac74f72165bd2816040516113ca9190616ac5565b60405180910390a150565b600d5481565b5f80546113e79061790a565b80601f01602080910402602001604051908101604052809291908181526020018280546114139061790a565b801561145e5780601f106114355761010080835404028352916020019161145e565b820191905f5260205f20905b81548152906001019060200180831161144157829003601f168201915b505050505081565b5f8060095490505f810361147d578291505061149f565b80611486611198565b84611491919061793a565b61149b91906179a8565b9150505b919050565b5f8160165f3373ffffffffffffffffffffffffffffffffffffffff1673ffffffffffffffffffffffffffffffffffffffff1681526020019081526020015f205f8573ffffffffffffffffffffffffffffffffffffffff1673ffffffffffffffffffffffffffffffffffffffff1681526020019081526020015f20819055508273ffffffffffffffffffffffffffffffffffffffff163373ffffffffffffffffffffffffffffffffffffffff167f8c5be1e5ebec7d5bd14f71427d1e84f3dd0314c0f7b2291e5b200ac8c7c3b9258460405161157f91906168af565b60405180910390a36001905092915050565b5f8060095490505f81036115a857829150506115ca565b6115b0611198565b81846115bc919061793a565b6115c691906179a8565b9150505b919050565b60055f9054906101000a900473ffffffffffffffffffffffffffffffffffffffff1673ffffffffffffffffffffffffffffffffffffffff163373ffffffffffffffffffffffffffffffffffffffff161480611676575060035f9054906101000a900473ffffffffffffffffffffffffffffffffffffffff1673ffffffffffffffffffffffffffffffffffffffff163373ffffffffffffffffffffffffffffffffffffffff16145b806116cd575060055f9054906101000a900473ffffffffffffffffffffffffffffffffffffffff1673ffffffffffffffffffffffffffffffffffffffff163273ffffffffffffffffffffffffffffffffffffffff16145b61170c576040517f08c379a0000000000000000000000000000000000000000000000000000000008152600401611703906178bf565b60405180910390fd5b5f600260019054906101000a900473ffffffffffffffffffffffffffffffffffffffff1673ffffffffffffffffffffffffffffffffffffffff166370a08231306040518263ffffffff1660e01b815260040161176891906172fa565b602060405180830381865afa158015611783573d5f803e3d5ffd5b505050506040513d601f19601f820116820180604052508101906117a791906177ea565b90505f5b8686905081101561189e575f8787838181106117ca576117c96179d8565b5b90506020020160208101906117df9190616c25565b73ffffffffffffffffffffffffffffffffffffffff166370a08231306040518263ffffffff1660e01b815260040161181791906172fa565b602060405180830381865afa158015611832573d5f803e3d5ffd5b505050506040513d601f19601f8201168201806040525081019061185691906177ea565b90505f811461189257611891888884818110611875576118746179d8565b5b905060200201602081019061188a9190616c25565b3083615f3a565b5b508060010190506117ab565b505f5b84849050811015611957575f808686848181106118c1576118c06179d8565b5b90506020028101906118d39190617a11565b8101906118e09190617b11565b915091508173ffffffffffffffffffffffffffffffffffffffff16816040516119099190617ba5565b5f604051808303815f865af19150503d805f8114611942576040519150601f19603f3d011682016040523d82523d5f602084013e611947565b606091505b50505050508060010190506118a1565b508181600260019054906101000a900473ffffffffffffffffffffffffffffffffffffffff1673ffffffffffffffffffffffffffffffffffffffff166370a08231306040518263ffffffff1660e01b81526004016119b591906172fa565b602060405180830381865afa1580156119d0573d5f803e3d5ffd5b505050506040513d601f19601f820116820180604052508101906119f491906177ea565b6119fe9190617bbb565b1015611a3f576040517f08c379a0000000000000000000000000000000000000000000000000000000008152600401611a3690617c38565b60405180910390fd5b505050505050565b5f8060055f9054906101000a900473ffffffffffffffffffffffffffffffffffffffff1673ffffffffffffffffffffffffffffffffffffffff163373ffffffffffffffffffffffffffffffffffffffff161480611af0575060035f9054906101000a900473ffffffffffffffffffffffffffffffffffffffff1673ffffffffffffffffffffffffffffffffffffffff163373ffffffffffffffffffffffffffffffffffffffff16145b80611b47575060055f9054906101000a900473ffffffffffffffffffffffffffffffffffffffff1673ffffffffffffffffffffffffffffffffffffffff163273ffffffffffffffffffffffffffffffffffffffff16145b611b86576040517f08c379a0000000000000000000000000000000000000000000000000000000008152600401611b7d906178bf565b60405180910390fd5b60145f9054906101000a900460ff1615611bd5576040517f08c379a0000000000000000000000000000000000000000000000000000000008152600401611bcc90617ca0565b60405180910390fd5b5f601b5f8573ffffffffffffffffffffffffffffffffffffffff1673ffffffffffffffffffffffffffffffffffffffff1681526020019081526020015f209050805f015f9054906101000a900460ff16611c64576040517f08c379a0000000000000000000000000000000000000000000000000000000008152600401611c5b90617d08565b60405180910390fd5b5f816001015490508473ffffffffffffffffffffffffffffffffffffffff1663efbb5cb06040518163ffffffff1660e01b81526004016020604051808303815f875af1158015611cb6573d5f803e3d5ffd5b505050506040513d601f19601f82011682018060405250810190611cda91906177ea565b935080841115611de8575f8185611cf19190617bbb565b90505f61271060115483611d05919061793a565b611d0f91906179a8565b90505f64496cebb800600c5442611d269190617bbb565b601054611d31611198565b611d3b919061793a565b611d45919061793a565b611d4f91906179a8565b90505f611d668284611d619190617842565b614bc1565b9050600881611d7591906179a8565b96505f811115611dab57611daa60065f9054906101000a900473ffffffffffffffffffffffffffffffffffffffff1682616034565b5b5f871115611dbe57611dbd3388616034565b5b83600a5f828254611dcf9190617842565b9250508190555087866001018190555050505050611e1a565b5f8482611df59190617bbb565b905084836001018190555080600a5f828254611e119190617bbb565b92505081905550505b611e22613c1b565b600b8190555042825f0160046101000a81548167ffffffffffffffff021916908367ffffffffffffffff16021790555042600c819055508473ffffffffffffffffffffffffffffffffffffffff167f6fbdf847c78f04eac7a7a77e1073af6eeec604ee0b495240579dccf57fcf2d88828686604051611ea393929190617d26565b60405180910390a25050915091565b60055f9054906101000a900473ffffffffffffffffffffffffffffffffffffffff1673ffffffffffffffffffffffffffffffffffffffff163373ffffffffffffffffffffffffffffffffffffffff161480611f59575060035f9054906101000a900473ffffffffffffffffffffffffffffffffffffffff1673ffffffffffffffffffffffffffffffffffffffff163373ffffffffffffffffffffffffffffffffffffffff16145b80611fb0575060055f9054906101000a900473ffffffffffffffffffffffffffffffffffffffff1673ffffffffffffffffffffffffffffffffffffffff163273ffffffffffffffffffffffffffffffffffffffff16145b611fef576040517f08c379a0000000000000000000000000000000000000000000000000000000008152600401611fe6906178bf565b60405180910390fd5b8173ffffffffffffffffffffffffffffffffffffffff166108fc8290811502906040515f60405180830381858888f19350505050158015612032573d5f803e3d5ffd5b505050565b601460019054906101000a900460ff1681565b60095481565b60055f9054906101000a900473ffffffffffffffffffffffffffffffffffffffff1673ffffffffffffffffffffffffffffffffffffffff163373ffffffffffffffffffffffffffffffffffffffff1614806120f7575060035f9054906101000a900473ffffffffffffffffffffffffffffffffffffffff1673ffffffffffffffffffffffffffffffffffffffff163373ffffffffffffffffffffffffffffffffffffffff16145b8061214e575060055f9054906101000a900473ffffffffffffffffffffffffffffffffffffffff1673ffffffffffffffffffffffffffffffffffffffff163273ffffffffffffffffffffffffffffffffffffffff16145b61218d576040517f08c379a0000000000000000000000000000000000000000000000000000000008152600401612184906178bf565b60405180910390fd5b60145f9054906101000a900460ff16156121dc576040517f08c379a00000000000000000000000000000000000000000000000000000000081526004016121d390617ca0565b60405180910390fd5b5f601b5f8673ffffffffffffffffffffffffffffffffffffffff1673ffffffffffffffffffffffffffffffffffffffff1681526020019081526020015f209050805f015f9054906101000a900460ff1661226b576040517f08c379a000000000000000000000000000000000000000000000000000000000815260040161226290617d08565b60405180910390fd5b600260019054906101000a900473ffffffffffffffffffffffffffffffffffffffff1673ffffffffffffffffffffffffffffffffffffffff166370a08231306040518263ffffffff1660e01b81526004016122c691906172fa565b602060405180830381865afa1580156122e1573d5f803e3d5ffd5b505050506040513d601f19601f8201168201806040525081019061230591906177ea565b841115612347576040517f08c379a000000000000000000000000000000000000000000000000000000000815260040161233e90617da5565b60405180910390fd5b83816001015f82825461235a9190617842565b9250508190555083600a5f8282546123729190617842565b9250508190555061238385856160ff565b5f8573ffffffffffffffffffffffffffffffffffffffff1684846040516123ab929190617de7565b5f604051808303815f865af19150503d805f81146123e4576040519150601f19603f3d011682016040523d82523d5f602084013e6123e9565b606091505b5050905080806124065750815f0160019054906101000a900460ff165b612445576040517f08c379a000000000000000000000000000000000000000000000000000000000815260040161243c90617e49565b60405180910390fd5b8573ffffffffffffffffffffffffffffffffffffffff167f0ac6e50dd9423aee4a70f11c10413c95f8808258de937f3d605c46277a1be3208660405161248b9190617e7f565b60405180910390a2505050505050565b600b5481565b606060035f9054906101000a900473ffffffffffffffffffffffffffffffffffffffff1673ffffffffffffffffffffffffffffffffffffffff163373ffffffffffffffffffffffffffffffffffffffff16148061254a575060035f9054906101000a900473ffffffffffffffffffffffffffffffffffffffff1673ffffffffffffffffffffffffffffffffffffffff163273ffffffffffffffffffffffffffffffffffffffff16145b612589576040517f08c379a000000000000000000000000000000000000000000000000000000000815260040161258090617ee2565b60405180910390fd5b8282905067ffffffffffffffff8111156125a6576125a5616f32565b5b6040519080825280602002602001820160405280156125d957816020015b60608152602001906001900390816125c45790505b5090505f5b838390508110156126e3575f803073ffffffffffffffffffffffffffffffffffffffff16868685818110612615576126146179d8565b5b90506020028101906126279190617a11565b604051612635929190617de7565b5f60405180830381855af49150503d805f811461266d576040519150601f19603f3d011682016040523d82523d5f602084013e612672565b606091505b5091509150816126b7576040517f08c379a00000000000000000000000000000000000000000000000000000000081526004016126ae90617f4a565b60405180910390fd5b808484815181106126cb576126ca6179d8565b5b602002602001018190525050508060010190506125de565b5092915050565b83600260016101000a81548173ffffffffffffffffffffffffffffffffffffffff021916908373ffffffffffffffffffffffffffffffffffffffff1602179055508260065f6101000a81548173ffffffffffffffffffffffffffffffffffffffff021916908373ffffffffffffffffffffffffffffffffffffffff1602179055503360035f6101000a81548173ffffffffffffffffffffffffffffffffffffffff021916908373ffffffffffffffffffffffffffffffffffffffff1602179055503360055f6101000a81548173ffffffffffffffffffffffffffffffffffffffff021916908373ffffffffffffffffffffffffffffffffffffffff160217905550815f90816127f991906180fc565b50806001908161280991906180fc565b5062015180600d81905550615460600e819055506008600f8190555060326010819055506105dc6011819055507fffffffffffffffffffffffffffffffffffffffffffffffffffffffffffffffff601281905550670de0b6b3a764000060138190555042600c81905550670de0b6b3a7640000600b819055508373ffffffffffffffffffffffffffffffffffffffff1663313ce5676040518163ffffffff1660e01b8152600401602060405180830381865afa9250505080156128ea57506040513d601f19601f820116820180604052508101906128e791906181df565b60015b61290e57601260025f6101000a81548160ff021916908360ff16021790555061292a565b8060025f6101000a81548160ff021916908360ff160217905550505b6001601460016101000a81548160ff02191690831515021790555050505050565b5f8060165f8673ffffffffffffffffffffffffffffffffffffffff1673ffffffffffffffffffffffffffffffffffffffff1681526020019081526020015f205f3373ffffffffffffffffffffffffffffffffffffffff1673ffffffffffffffffffffffffffffffffffffffff1681526020019081526020015f205490507fffffffffffffffffffffffffffffffffffffffffffffffffffffffffffffffff8114612b555782816129fb9190617bbb565b60165f8773ffffffffffffffffffffffffffffffffffffffff1673ffffffffffffffffffffffffffffffffffffffff1681526020019081526020015f205f3373ffffffffffffffffffffffffffffffffffffffff1673ffffffffffffffffffffffffffffffffffffffff1681526020019081526020015f20819055503373ffffffffffffffffffffffffffffffffffffffff168573ffffffffffffffffffffffffffffffffffffffff167f8c5be1e5ebec7d5bd14f71427d1e84f3dd0314c0f7b2291e5b200ac8c7c3b92560165f8973ffffffffffffffffffffffffffffffffffffffff1673ffffffffffffffffffffffffffffffffffffffff1681526020019081526020015f205f3373ffffffffffffffffffffffffffffffffffffffff1673ffffffffffffffffffffffffffffffffffffffff1681526020019081526020015f2054604051612b4c91906168af565b60405180910390a35b612b60858585616245565b60019150509392505050565b60025f9054906101000a900460ff1681565b60105481565b600260019054906101000a900473ffffffffffffffffffffffffffffffffffffffff1681565b601b602052805f5260405f205f91509050805f015f9054906101000a900460ff1690805f0160019054906101000a900460ff1690805f0160029054906101000a900461ffff1690805f0160049054906101000a900467ffffffffffffffff16908060010154908060020154905086565b5f601c80549050905090565b60035f9054906101000a900473ffffffffffffffffffffffffffffffffffffffff1673ffffffffffffffffffffffffffffffffffffffff163373ffffffffffffffffffffffffffffffffffffffff161480612ccd575060035f9054906101000a900473ffffffffffffffffffffffffffffffffffffffff1673ffffffffffffffffffffffffffffffffffffffff163273ffffffffffffffffffffffffffffffffffffffff16145b612d0c576040517f08c379a0000000000000000000000000000000000000000000000000000000008152600401612d0390617ee2565b60405180910390fd5b8360055f6101000a81548173ffffffffffffffffffffffffffffffffffffffff021916908373ffffffffffffffffffffffffffffffffffffffff1602179055508260065f6101000a81548173ffffffffffffffffffffffffffffffffffffffff021916908373ffffffffffffffffffffffffffffffffffffffff1602179055508160075f6101000a81548173ffffffffffffffffffffffffffffffffffffffff021916908373ffffffffffffffffffffffffffffffffffffffff1602179055508060085f6101000a81548173ffffffffffffffffffffffffffffffffffffffff021916908373ffffffffffffffffffffffffffffffffffffffff16021790555050505050565b5f612e1c82611466565b9050919050565b60135481565b600e5481565b6019602052805f5260405f205f915090505481565b60145f9054906101000a900460ff1681565b60065f9054906101000a900473ffffffffffffffffffffffffffffffffffffffff1681565b60035f9054906101000a900473ffffffffffffffffffffffffffffffffffffffff1673ffffffffffffffffffffffffffffffffffffffff163373ffffffffffffffffffffffffffffffffffffffff161480612f22575060035f9054906101000a900473ffffffffffffffffffffffffffffffffffffffff1673ffffffffffffffffffffffffffffffffffffffff163273ffffffffffffffffffffffffffffffffffffffff16145b612f61576040517f08c379a0000000000000000000000000000000000000000000000000000000008152600401612f5890617ee2565b60405180910390fd5b600260019054906101000a900473ffffffffffffffffffffffffffffffffffffffff1673ffffffffffffffffffffffffffffffffffffffff168373ffffffffffffffffffffffffffffffffffffffff16141580612fc9575060145f9054906101000a900460ff165b613008576040517f08c379a0000000000000000000000000000000000000000000000000000000008152600401612fff90618254565b60405180910390fd5b5f8373ffffffffffffffffffffffffffffffffffffffff1663a9059cbb60e01b848460405160240161303b929190618272565b604051602081830303815290604052907bffffffffffffffffffffffffffffffffffffffffffffffffffffffff19166020820180517bffffffffffffffffffffffffffffffffffffffffffffffffffffffff83818316178352505050506040516130a59190617ba5565b5f604051808303815f865af19150503d805f81146130de576040519150601f19603f3d011682016040523d82523d5f602084013e6130e3565b606091505b5050905080613127576040517f08c379a000000000000000000000000000000000000000000000000000000000815260040161311e906182e3565b60405180910390fd5b50505050565b600f5481565b5f60145f9054906101000a900460ff1615613183576040517f08c379a000000000000000000000000000000000000000000000000000000000815260040161317a90617ca0565b60405180910390fd5b5f83116131c5576040517f08c379a00000000000000000000000000000000000000000000000000000000081526004016131bc9061834b565b60405180910390fd5b601254836131d1611198565b6131db9190617842565b111561321c576040517f08c379a0000000000000000000000000000000000000000000000000000000008152600401613213906183b3565b60405180910390fd5b61322583614bc1565b90506132318282616034565b4260185f8473ffffffffffffffffffffffffffffffffffffffff1673ffffffffffffffffffffffffffffffffffffffff1681526020019081526020015f2081905550670de0b6b3a7640000613284613c1b565b60155f8573ffffffffffffffffffffffffffffffffffffffff1673ffffffffffffffffffffffffffffffffffffffff1681526020019081526020015f20546132cc919061793a565b6132d691906179a8565b60195f8473ffffffffffffffffffffffffffffffffffffffff1673ffffffffffffffffffffffffffffffffffffffff1681526020019081526020015f2081905550613321338461634c565b8173ffffffffffffffffffffffffffffffffffffffff163373ffffffffffffffffffffffffffffffffffffffff167fdcbc1c05240f31ff3ad067ef1ee35ce4997762752e3a095284754544f4c709d78584604051613380929190616c50565b60405180910390a392915050565b601a602052805f5260405f205f915090505481565b6015602052805f5260405f205f915090505481565b5f73ffffffffffffffffffffffffffffffffffffffff1660045f9054906101000a900473ffffffffffffffffffffffffffffffffffffffff1673ffffffffffffffffffffffffffffffffffffffff1603613447576040517f08c379a000000000000000000000000000000000000000000000000000000000815260040161343e9061841b565b60405180910390fd5b3360035f6101000a81548173ffffffffffffffffffffffffffffffffffffffff021916908373ffffffffffffffffffffffffffffffffffffffff1602179055505f60045f6101000a81548173ffffffffffffffffffffffffffffffffffffffff021916908373ffffffffffffffffffffffffffffffffffffffff160217905550565b60075f9054906101000a900473ffffffffffffffffffffffffffffffffffffffff1681565b6017602052805f5260405f205f915090505481565b60055f9054906101000a900473ffffffffffffffffffffffffffffffffffffffff1673ffffffffffffffffffffffffffffffffffffffff163373ffffffffffffffffffffffffffffffffffffffff1614806135aa575060035f9054906101000a900473ffffffffffffffffffffffffffffffffffffffff1673ffffffffffffffffffffffffffffffffffffffff163373ffffffffffffffffffffffffffffffffffffffff16145b80613601575060055f9054906101000a900473ffffffffffffffffffffffffffffffffffffffff1673ffffffffffffffffffffffffffffffffffffffff163273ffffffffffffffffffffffffffffffffffffffff16145b613640576040517f08c379a0000000000000000000000000000000000000000000000000000000008152600401613637906178bf565b60405180910390fd5b80601b5f8473ffffffffffffffffffffffffffffffffffffffff1673ffffffffffffffffffffffffffffffffffffffff1681526020019081526020015f20600201819055505050565b5f60145f9054906101000a900460ff16156136d9576040517f08c379a00000000000000000000000000000000000000000000000000000000081526004016136d090617ca0565b60405180910390fd5b5f73ffffffffffffffffffffffffffffffffffffffff1660075f9054906101000a900473ffffffffffffffffffffffffffffffffffffffff1673ffffffffffffffffffffffffffffffffffffffff1603613768576040517f08c379a000000000000000000000000000000000000000000000000000000000815260040161375f90618483565b60405180910390fd5b5f8060075f9054906101000a900473ffffffffffffffffffffffffffffffffffffffff1673ffffffffffffffffffffffffffffffffffffffff1663aea91078600260019054906101000a900473ffffffffffffffffffffffffffffffffffffffff166040518263ffffffff1660e01b81526004016137e691906172fa565b6040805180830381865afa158015613800573d5f803e3d5ffd5b505050506040513d601f19601f8201168201806040525081019061382491906184a1565b915091505f8211806138425750611c2081426138409190617bbb565b105b613881576040517f08c379a000000000000000000000000000000000000000000000000000000000815260040161387890618529565b60405180910390fd5b670de0b6b3a76400008261389488614bc1565b61389e919061793a565b6138a891906179a8565b9250838310156138ed576040517f08c379a00000000000000000000000000000000000000000000000000000000081526004016138e490618591565b60405180910390fd5b6138f78584616034565b4260185f8773ffffffffffffffffffffffffffffffffffffffff1673ffffffffffffffffffffffffffffffffffffffff1681526020019081526020015f2081905550613943338761634c565b8473ffffffffffffffffffffffffffffffffffffffff163373ffffffffffffffffffffffffffffffffffffffff167fdcbc1c05240f31ff3ad067ef1ee35ce4997762752e3a095284754544f4c709d788866040516139a2929190616c50565b60405180910390a350509392505050565b60035f9054906101000a900473ffffffffffffffffffffffffffffffffffffffff1681565b5f60145f9054906101000a900460ff1615613a28576040517f08c379a0000000000000000000000000000000000000000000000000000000008152600401613a1f90617ca0565b60405180910390fd5b5f8311613a6a576040517f08c379a0000000000000000000000000000000000000000000000000000000008152600401613a61906185f9565b60405180910390fd5b613a7383614565565b905060125481613a81611198565b613a8b9190617842565b1115613acc576040517f08c379a0000000000000000000000000000000000000000000000000000000008152600401613ac3906183b3565b60405180910390fd5b613ad68284616034565b4260185f8473ffffffffffffffffffffffffffffffffffffffff1673ffffffffffffffffffffffffffffffffffffffff1681526020019081526020015f2081905550613b22338261634c565b8173ffffffffffffffffffffffffffffffffffffffff163373ffffffffffffffffffffffffffffffffffffffff167fdcbc1c05240f31ff3ad067ef1ee35ce4997762752e3a095284754544f4c709d78386604051613b81929190616c50565b60405180910390a392915050565b60018054613b9c9061790a565b80601f0160208091040260200160405190810160405280929190818152602001828054613bc89061790a565b8015613c135780601f10613bea57610100808354040283529160200191613c13565b820191905f5260205f20905b815481529060010190602001808311613bf657829003601f168201915b505050505081565b5f8060095403613c3557670de0b6b3a76400009050613c60565b600954670de0b6b3a7640000613c49611198565b613c53919061793a565b613c5d91906179a8565b90505b90565b601c8181548110613c72575f80fd5b905f5260205f20015f915054906101000a900473ffffffffffffffffffffffffffffffffffffffff1681565b5f60145f9054906101000a900460ff1615613cee576040517f08c379a0000000000000000000000000000000000000000000000000000000008152600401613ce590617ca0565b60405180910390fd5b42851015613d31576040517f08c379a0000000000000000000000000000000000000000000000000000000008152600401613d2890618661565b60405180910390fd5b5f30338888604051602001613d4994939291906186e4565b6040516020818303038152906040528051906020012090505f6001613d6d83616494565b8787876040515f8152602001604052604051613d8c9493929190618740565b6020604051602081039080840390855afa158015613dac573d5f803e3d5ffd5b50505060206040510351905060035f9054906101000a900473ffffffffffffffffffffffffffffffffffffffff1673ffffffffffffffffffffffffffffffffffffffff168173ffffffffffffffffffffffffffffffffffffffff161480613e5f575060055f9054906101000a900473ffffffffffffffffffffffffffffffffffffffff1673ffffffffffffffffffffffffffffffffffffffff168173ffffffffffffffffffffffffffffffffffffffff16145b613e9e576040517f08c379a0000000000000000000000000000000000000000000000000000000008152600401613e95906187cd565b60405180910390fd5b87601a5f3373ffffffffffffffffffffffffffffffffffffffff1673ffffffffffffffffffffffffffffffffffffffff1681526020019081526020015f205f828254613eea9190617842565b92505081905550613ef9613c1b565b60135489613f07919061793a565b613f1191906179a8565b9250613f1d3384616034565b505095945050505050565b600a5481565b5f60145f9054906101000a900460ff1615613f7e576040517f08c379a0000000000000000000000000000000000000000000000000000000008152600401613f7590617ca0565b60405180910390fd5b5f8611613fc0576040517f08c379a0000000000000000000000000000000000000000000000000000000008152600401613fb79061834b565b60405180910390fd5b613fc986611591565b9050613fd68433836164c3565b613fdf84616706565b5f73ffffffffffffffffffffffffffffffffffffffff1660085f9054906101000a900473ffffffffffffffffffffffffffffffffffffffff1673ffffffffffffffffffffffffffffffffffffffff16146140c55760085f9054906101000a900473ffffffffffffffffffffffffffffffffffffffff1673ffffffffffffffffffffffffffffffffffffffff1663694d3f353386898588886040518763ffffffff1660e01b815260040161409796959493929190618827565b5f604051808303815f87803b1580156140ae575f80fd5b505af11580156140c0573d5f803e3d5ffd5b505050505b6140cf85876160ff565b6140d984826167cc565b670de0b6b3a76400006140ea613c1b565b60155f8773ffffffffffffffffffffffffffffffffffffffff1673ffffffffffffffffffffffffffffffffffffffff1681526020019081526020015f2054614132919061793a565b61413c91906179a8565b60195f8673ffffffffffffffffffffffffffffffffffffffff1673ffffffffffffffffffffffffffffffffffffffff1681526020019081526020015f20819055508373ffffffffffffffffffffffffffffffffffffffff168573ffffffffffffffffffffffffffffffffffffffff163373ffffffffffffffffffffffffffffffffffffffff167ffbde797d201c681b91056529119e0b02407c7bb96a4a2c75c01fc9667232c8db89856040516141f3929190616c50565b60405180910390a495945050505050565b5f614210338484616245565b6001905092915050565b60055f9054906101000a900473ffffffffffffffffffffffffffffffffffffffff1681565b60035f9054906101000a900473ffffffffffffffffffffffffffffffffffffffff1673ffffffffffffffffffffffffffffffffffffffff163373ffffffffffffffffffffffffffffffffffffffff1614806142e6575060035f9054906101000a900473ffffffffffffffffffffffffffffffffffffffff1673ffffffffffffffffffffffffffffffffffffffff163273ffffffffffffffffffffffffffffffffffffffff16145b614325576040517f08c379a000000000000000000000000000000000000000000000000000000000815260040161431c90617ee2565b60405180910390fd5b5f73ffffffffffffffffffffffffffffffffffffffff168373ffffffffffffffffffffffffffffffffffffffff1603614393576040517f08c379a000000000000000000000000000000000000000000000000000000000815260040161438a906188cb565b60405180910390fd5b6127108261ffff1611156143dc576040517f08c379a00000000000000000000000000000000000000000000000000000000081526004016143d390618933565b60405180910390fd5b5f601b5f8573ffffffffffffffffffffffffffffffffffffffff1673ffffffffffffffffffffffffffffffffffffffff1681526020019081526020015f209050805f015f9054906101000a900460ff1661449157601c84908060018154018082558091505060019003905f5260205f20015f9091909190916101000a81548173ffffffffffffffffffffffffffffffffffffffff021916908373ffffffffffffffffffffffffffffffffffffffff1602179055505b6001815f015f6101000a81548160ff02191690831515021790555081815f0160016101000a81548160ff02191690831515021790555082815f0160026101000a81548161ffff021916908361ffff16021790555042815f0160046101000a81548167ffffffffffffffff021916908367ffffffffffffffff1602179055508373ffffffffffffffffffffffffffffffffffffffff167f6ade9b926aca65c360a4d56031d81d51e736159ebb1353a0421ce930d8e83b3a8484604051614557929190618951565b60405180910390a250505050565b5f8060095490505f810361457c578291505061459e565b80614585611198565b84614590919061793a565b61459a91906179a8565b9150505b919050565b60115481565b5f60145f9054906101000a900460ff16156145f9576040517f08c379a00000000000000000000000000000000000000000000000000000000081526004016145f090617ca0565b60405180910390fd5b5f841161463b576040517f08c379a0000000000000000000000000000000000000000000000000000000008152600401614632906185f9565b60405180910390fd5b6146468233866164c3565b61464f84611466565b905061465a82616706565b5f73ffffffffffffffffffffffffffffffffffffffff1660085f9054906101000a900473ffffffffffffffffffffffffffffffffffffffff1673ffffffffffffffffffffffffffffffffffffffff161461473c5760085f9054906101000a900473ffffffffffffffffffffffffffffffffffffffff1673ffffffffffffffffffffffffffffffffffffffff1663694d3f35338484886040518563ffffffff1660e01b815260040161470e949392919061899b565b5f604051808303815f87803b158015614725575f80fd5b505af1158015614737573d5f803e3d5ffd5b505050505b61474683826160ff565b61475082856167cc565b670de0b6b3a7640000614761613c1b565b60155f8573ffffffffffffffffffffffffffffffffffffffff1673ffffffffffffffffffffffffffffffffffffffff1681526020019081526020015f20546147a9919061793a565b6147b391906179a8565b60195f8473ffffffffffffffffffffffffffffffffffffffff1673ffffffffffffffffffffffffffffffffffffffff1681526020019081526020015f20819055508173ffffffffffffffffffffffffffffffffffffffff168373ffffffffffffffffffffffffffffffffffffffff163373ffffffffffffffffffffffffffffffffffffffff167ffbde797d201c681b91056529119e0b02407c7bb96a4a2c75c01fc9667232c8db848860405161486a929190616c50565b60405180910390a49392505050565b5f60055f9054906101000a900473ffffffffffffffffffffffffffffffffffffffff1673ffffffffffffffffffffffffffffffffffffffff163373ffffffffffffffffffffffffffffffffffffffff161480614921575060035f9054906101000a900473ffffffffffffffffffffffffffffffffffffffff1673ffffffffffffffffffffffffffffffffffffffff163373ffffffffffffffffffffffffffffffffffffffff16145b80614978575060055f9054906101000a900473ffffffffffffffffffffffffffffffffffffffff1673ffffffffffffffffffffffffffffffffffffffff163273ffffffffffffffffffffffffffffffffffffffff16145b6149b7576040517f08c379a00000000000000000000000000000000000000000000000000000000081526004016149ae906178bf565b60405180910390fd5b5f601b5f8673ffffffffffffffffffffffffffffffffffffffff1673ffffffffffffffffffffffffffffffffffffffff1681526020019081526020015f209050805f015f9054906101000a900460ff16614a46576040517f08c379a0000000000000000000000000000000000000000000000000000000008152600401614a3d90617d08565b60405180910390fd5b8473ffffffffffffffffffffffffffffffffffffffff1662f714ce85306040518363ffffffff1660e01b8152600401614a809291906189f1565b6020604051808303815f875af1158015614a9c573d5f803e3d5ffd5b505050506040513d601f19601f82011682018060405250810190614ac091906177ea565b91508060010154841115614adc575f8160010181905550614af7565b83816001015f828254614aef9190617bbb565b925050819055505b83600a5f828254614b089190617bbb565b925050819055503073ffffffffffffffffffffffffffffffffffffffff168373ffffffffffffffffffffffffffffffffffffffff1614614b4d57614b4c83856160ff565b5b8473ffffffffffffffffffffffffffffffffffffffff167f0ac6e50dd9423aee4a70f11c10413c95f8808258de937f3d605c46277a1be32085614b8f90618a18565b604051614b9c9190617e7f565b60405180910390a2509392505050565b6018602052805f5260405f205f915090505481565b5f8060095490505f8103614bd85782915050614bfa565b614be0611198565b8184614bec919061793a565b614bf691906179a8565b9150505b919050565b5f614c4660155f8473ffffffffffffffffffffffffffffffffffffffff1673ffffffffffffffffffffffffffffffffffffffff1681526020019081526020015f2054611466565b9050919050565b60085f9054906101000a900473ffffffffffffffffffffffffffffffffffffffff1681565b83421115614cb5576040517f08c379a0000000000000000000000000000000000000000000000000000000008152600401614cac90618661565b60405180910390fd5b5f87878787604051602001614ccd94939291906186e4565b6040516020818303038152906040528051906020012090505f6001614cf183616494565b8686866040515f8152602001604052604051614d109493929190618740565b6020604051602081039080840390855afa158015614d30573d5f803e3d5ffd5b5050506020604051035190508873ffffffffffffffffffffffffffffffffffffffff168173ffffffffffffffffffffffffffffffffffffffff16148015614da357505f73ffffffffffffffffffffffffffffffffffffffff168173ffffffffffffffffffffffffffffffffffffffff1614155b614de2576040517f08c379a0000000000000000000000000000000000000000000000000000000008152600401614dd9906187cd565b60405180910390fd5b8660165f8b73ffffffffffffffffffffffffffffffffffffffff1673ffffffffffffffffffffffffffffffffffffffff1681526020019081526020015f205f8a73ffffffffffffffffffffffffffffffffffffffff1673ffffffffffffffffffffffffffffffffffffffff1681526020019081526020015f208190555060175f8a73ffffffffffffffffffffffffffffffffffffffff1673ffffffffffffffffffffffffffffffffffffffff1681526020019081526020015f205f815480929190614eac90618a5e565b91905055508773ffffffffffffffffffffffffffffffffffffffff168973ffffffffffffffffffffffffffffffffffffffff167f8c5be1e5ebec7d5bd14f71427d1e84f3dd0314c0f7b2291e5b200ac8c7c3b92589604051614f0e91906168af565b60405180910390a3505050505050505050565b60125481565b60035f9054906101000a900473ffffffffffffffffffffffffffffffffffffffff1673ffffffffffffffffffffffffffffffffffffffff163373ffffffffffffffffffffffffffffffffffffffff161480614fce575060035f9054906101000a900473ffffffffffffffffffffffffffffffffffffffff1673ffffffffffffffffffffffffffffffffffffffff163273ffffffffffffffffffffffffffffffffffffffff16145b61500d576040517f08c379a000000000000000000000000000000000000000000000000000000000815260040161500490617ee2565b60405180910390fd5b5f601b5f8673ffffffffffffffffffffffffffffffffffffffff1673ffffffffffffffffffffffffffffffffffffffff1681526020019081526020015f206040518060c00160405290815f82015f9054906101000a900460ff161515151581526020015f820160019054906101000a900460ff161515151581526020015f820160029054906101000a900461ffff1661ffff1661ffff1681526020015f820160049054906101000a900467ffffffffffffffff1667ffffffffffffffff1667ffffffffffffffff168152602001600182015481526020016002820154815250509050805f0151615132576040517f08c379a000000000000000000000000000000000000000000000000000000000815260040161512990618aef565b60405180910390fd5b5f73ffffffffffffffffffffffffffffffffffffffff168473ffffffffffffffffffffffffffffffffffffffff16036151a0576040517f08c379a000000000000000000000000000000000000000000000000000000000815260040161519790618b57565b60405180910390fd5b5f8473ffffffffffffffffffffffffffffffffffffffff1684846040516151c8929190617de7565b5f60405180830381855af49150503d805f8114615200576040519150601f19603f3d011682016040523d82523d5f602084013e615205565b606091505b5050905080615249576040517f08c379a000000000000000000000000000000000000000000000000000000000815260040161524090618bbf565b60405180910390fd5b81601b5f8773ffffffffffffffffffffffffffffffffffffffff1673ffffffffffffffffffffffffffffffffffffffff1681526020019081526020015f205f820151815f015f6101000a81548160ff0219169083151502179055506020820151815f0160016101000a81548160ff0219169083151502179055506040820151815f0160026101000a81548161ffff021916908361ffff1602179055506060820151815f0160046101000a81548167ffffffffffffffff021916908367ffffffffffffffff1602179055506080820151816001015560a082015181600201559050505f601b5f8873ffffffffffffffffffffffffffffffffffffffff1673ffffffffffffffffffffffffffffffffffffffff1681526020019081526020015f205f015f6101000a81548160ff0219169083151502179055505f601b5f8873ffffffffffffffffffffffffffffffffffffffff1673ffffffffffffffffffffffffffffffffffffffff1681526020019081526020015f20600101819055505f5b601c805490508110156154ac578673ffffffffffffffffffffffffffffffffffffffff16601c82815481106153ff576153fe6179d8565b5b905f5260205f20015f9054906101000a900473ffffffffffffffffffffffffffffffffffffffff1673ffffffffffffffffffffffffffffffffffffffff16036154a15785601c8281548110615457576154566179d8565b5b905f5260205f20015f6101000a81548173ffffffffffffffffffffffffffffffffffffffff021916908373ffffffffffffffffffffffffffffffffffffffff1602179055506154ac565b8060010190506153c7565b50505050505050565b6016602052815f5260405f20602052805f5260405f205f91509150505481565b5f60145f9054906101000a900460ff1615615525576040517f08c379a000000000000000000000000000000000000000000000000000000000815260040161551c90617ca0565b60405180910390fd5b5f600260019054906101000a900473ffffffffffffffffffffffffffffffffffffffff1673ffffffffffffffffffffffffffffffffffffffff166370a08231306040518263ffffffff1660e01b815260040161558191906172fa565b602060405180830381865afa15801561559c573d5f803e3d5ffd5b505050506040513d601f19601f820116820180604052508101906155c091906177ea565b905080851115615605576040517f08c379a00000000000000000000000000000000000000000000000000000000081526004016155fc90618c27565b60405180910390fd5b5f612710600f5487615617919061793a565b61562191906179a8565b905061562d87876160ff565b7f439148f0bbc682ca079e46d6e2c2f0c1e3b820f1a291b069d8882abf8cf18dd98773ffffffffffffffffffffffffffffffffffffffff166323e30c8b33600260019054906101000a900473ffffffffffffffffffffffffffffffffffffffff168a868b8b6040518763ffffffff1660e01b81526004016156b396959493929190618827565b6020604051808303815f875af11580156156cf573d5f803e3d5ffd5b505050506040513d601f19601f820116820180604052508101906156f39190618c59565b14615733576040517f08c379a000000000000000000000000000000000000000000000000000000000815260040161572a90618cce565b60405180910390fd5b5f600260019054906101000a900473ffffffffffffffffffffffffffffffffffffffff1673ffffffffffffffffffffffffffffffffffffffff166370a08231306040518263ffffffff1660e01b815260040161578f91906172fa565b602060405180830381865afa1580156157aa573d5f803e3d5ffd5b505050506040513d601f19601f820116820180604052508101906157ce91906177ea565b905081836157dc9190617842565b81101561581e576040517f08c379a000000000000000000000000000000000000000000000000000000000815260040161581590618d36565b60405180910390fd5b5f61582883614bc1565b90505f81111561585e5761585d60065f9054906101000a900473ffffffffffffffffffffffffffffffffffffffff1682616034565b5b8873ffffffffffffffffffffffffffffffffffffffff167f31aaad38f00845a242d16ae90d7bd72fc68f0e22581470f9dc0de241210c288689856040516158a6929190616c50565b60405180910390a26001945050505050949350505050565b60045f9054906101000a900473ffffffffffffffffffffffffffffffffffffffff1681565b600c5481565b60035f9054906101000a900473ffffffffffffffffffffffffffffffffffffffff1673ffffffffffffffffffffffffffffffffffffffff163373ffffffffffffffffffffffffffffffffffffffff161480615990575060035f9054906101000a900473ffffffffffffffffffffffffffffffffffffffff1673ffffffffffffffffffffffffffffffffffffffff163273ffffffffffffffffffffffffffffffffffffffff16145b6159cf576040517f08c379a00000000000000000000000000000000000000000000000000000000081526004016159c690617ee2565b60405180910390fd5b6101f4851115806159e25750610bb88411155b806159ee575060648311155b615a2d576040517f08c379a0000000000000000000000000000000000000000000000000000000008152600401615a2490618d9e565b60405180910390fd5b846010819055508360118190555082600f8190555081600d81905550806012819055505050505050565b5f615a6182614bc1565b9050919050565b5f615a73338361634c565b615a7b613c1b565b9050919050565b60035f9054906101000a900473ffffffffffffffffffffffffffffffffffffffff1673ffffffffffffffffffffffffffffffffffffffff163373ffffffffffffffffffffffffffffffffffffffff161480615b29575060035f9054906101000a900473ffffffffffffffffffffffffffffffffffffffff1673ffffffffffffffffffffffffffffffffffffffff163273ffffffffffffffffffffffffffffffffffffffff16145b615b68576040517f08c379a0000000000000000000000000000000000000000000000000000000008152600401615b5f90617ee2565b60405180910390fd5b8060045f6101000a81548173ffffffffffffffffffffffffffffffffffffffff021916908373ffffffffffffffffffffffffffffffffffffffff16021790555050565b5f80600c5442615bbb9190617bbb565b90505f64496cebb80082601054615bd0611198565b615bda919061793a565b615be4919061793a565b615bee91906179a8565b9050615bf981614bc1565b92505f831115615c2f57615c2e60065f9054906101000a900473ffffffffffffffffffffffffffffffffffffffff1684616034565b5b42600c81905550505090565b60055f9054906101000a900473ffffffffffffffffffffffffffffffffffffffff1673ffffffffffffffffffffffffffffffffffffffff163373ffffffffffffffffffffffffffffffffffffffff161480615ce2575060035f9054906101000a900473ffffffffffffffffffffffffffffffffffffffff1673ffffffffffffffffffffffffffffffffffffffff163373ffffffffffffffffffffffffffffffffffffffff16145b80615d39575060055f9054906101000a900473ffffffffffffffffffffffffffffffffffffffff1673ffffffffffffffffffffffffffffffffffffffff163273ffffffffffffffffffffffffffffffffffffffff16145b615d78576040517f08c379a0000000000000000000000000000000000000000000000000000000008152600401615d6f906178bf565b60405180910390fd5b60145f9054906101000a900460ff1615615dc7576040517f08c379a0000000000000000000000000000000000000000000000000000000008152600401615dbe90617ca0565b60405180910390fd5b5f615dd0611198565b90505f5b83839050811015615ecc575f80858584818110615df457615df36179d8565b5b9050602002810190615e069190617a11565b810190615e139190617b11565b915091505f8273ffffffffffffffffffffffffffffffffffffffff1682604051615e3d9190617ba5565b5f60405180830381855af49150503d805f8114615e75576040519150601f19603f3d011682016040523d82523d5f602084013e615e7a565b606091505b5050905080615ebe576040517f08c379a0000000000000000000000000000000000000000000000000000000008152600401615eb590618e06565b60405180910390fd5b505050806001019050615dd4565b50806064615ed8611198565b615ee291906179a8565b615eea611198565b615ef49190617842565b1015615f35576040517f08c379a0000000000000000000000000000000000000000000000000000000008152600401615f2c90618e6e565b60405180910390fd5b505050565b8273ffffffffffffffffffffffffffffffffffffffff168282604051602401615f64929190618272565b6040516020818303038152906040527f095ea7b3000000000000000000000000000000000000000000000000000000007bffffffffffffffffffffffffffffffffffffffffffffffffffffffff19166020820180517bffffffffffffffffffffffffffffffffffffffffffffffffffffffff8381831617835250505050604051615fee9190617ba5565b5f604051808303815f865af19150503d805f8114616027576040519150601f19603f3d011682016040523d82523d5f602084013e61602c565b606091505b505050505050565b8060095f8282546160459190617842565b925050819055508060155f8473ffffffffffffffffffffffffffffffffffffffff1673ffffffffffffffffffffffffffffffffffffffff1681526020019081526020015f205f82825401925050819055508173ffffffffffffffffffffffffffffffffffffffff165f73ffffffffffffffffffffffffffffffffffffffff167fddf252ad1be2c89b69c2b068fc378daa952ba7f163c4a11628f55a4df523b3ef836040516160f391906168af565b60405180910390a35050565b5f600260019054906101000a900473ffffffffffffffffffffffffffffffffffffffff1673ffffffffffffffffffffffffffffffffffffffff1663a9059cbb60e01b8484604051602401616154929190618272565b604051602081830303815290604052907bffffffffffffffffffffffffffffffffffffffffffffffffffffffff19166020820180517bffffffffffffffffffffffffffffffffffffffffffffffffffffffff83818316178352505050506040516161be9190617ba5565b5f604051808303815f865af19150503d805f81146161f7576040519150601f19603f3d011682016040523d82523d5f602084013e6161fc565b606091505b5050905080616240576040517f08c379a000000000000000000000000000000000000000000000000000000000815260040161623790618ed6565b60405180910390fd5b505050565b8060155f8573ffffffffffffffffffffffffffffffffffffffff1673ffffffffffffffffffffffffffffffffffffffff1681526020019081526020015f205f8282546162919190617bbb565b925050819055508060155f8473ffffffffffffffffffffffffffffffffffffffff1673ffffffffffffffffffffffffffffffffffffffff1681526020019081526020015f205f82825401925050819055508173ffffffffffffffffffffffffffffffffffffffff168373ffffffffffffffffffffffffffffffffffffffff167fddf252ad1be2c89b69c2b068fc378daa952ba7f163c4a11628f55a4df523b3ef8360405161633f91906168af565b60405180910390a3505050565b5f600260019054906101000a900473ffffffffffffffffffffffffffffffffffffffff1673ffffffffffffffffffffffffffffffffffffffff166323b872dd60e01b8430856040516024016163a393929190618ef4565b604051602081830303815290604052907bffffffffffffffffffffffffffffffffffffffffffffffffffffffff19166020820180517bffffffffffffffffffffffffffffffffffffffffffffffffffffffff838183161783525050505060405161640d9190617ba5565b5f604051808303815f865af19150503d805f8114616446576040519150601f19603f3d011682016040523d82523d5f602084013e61644b565b606091505b505090508061648f576040517f08c379a000000000000000000000000000000000000000000000000000000000815260040161648690618f73565b60405180910390fd5b505050565b5f816040516020016164a69190619005565b604051602081830303815290604052805190602001209050919050565b8173ffffffffffffffffffffffffffffffffffffffff168373ffffffffffffffffffffffffffffffffffffffff1614616701575f60165f8573ffffffffffffffffffffffffffffffffffffffff1673ffffffffffffffffffffffffffffffffffffffff1681526020019081526020015f205f8473ffffffffffffffffffffffffffffffffffffffff1673ffffffffffffffffffffffffffffffffffffffff1681526020019081526020015f205490507fffffffffffffffffffffffffffffffffffffffffffffffffffffffffffffffff81146166ff5781816165a59190617bbb565b60165f8673ffffffffffffffffffffffffffffffffffffffff1673ffffffffffffffffffffffffffffffffffffffff1681526020019081526020015f205f8573ffffffffffffffffffffffffffffffffffffffff1673ffffffffffffffffffffffffffffffffffffffff1681526020019081526020015f20819055508273ffffffffffffffffffffffffffffffffffffffff168473ffffffffffffffffffffffffffffffffffffffff167f8c5be1e5ebec7d5bd14f71427d1e84f3dd0314c0f7b2291e5b200ac8c7c3b92560165f8873ffffffffffffffffffffffffffffffffffffffff1673ffffffffffffffffffffffffffffffffffffffff1681526020019081526020015f205f8773ffffffffffffffffffffffffffffffffffffffff1673ffffffffffffffffffffffffffffffffffffffff1681526020019081526020015f20546040516166f691906168af565b60405180910390a35b505b505050565b600d5460185f8373ffffffffffffffffffffffffffffffffffffffff1673ffffffffffffffffffffffffffffffffffffffff1681526020019081526020015f20546167519190617842565b4210158061678a57508073ffffffffffffffffffffffffffffffffffffffff163273ffffffffffffffffffffffffffffffffffffffff16145b6167c9576040517f08c379a00000000000000000000000000000000000000000000000000000000081526004016167c090619074565b60405180910390fd5b50565b8060155f8473ffffffffffffffffffffffffffffffffffffffff1673ffffffffffffffffffffffffffffffffffffffff1681526020019081526020015f205f8282546168189190617bbb565b925050819055508060095f82825403925050819055505f73ffffffffffffffffffffffffffffffffffffffff168273ffffffffffffffffffffffffffffffffffffffff167fddf252ad1be2c89b69c2b068fc378daa952ba7f163c4a11628f55a4df523b3ef8360405161688b91906168af565b60405180910390a35050565b5f819050919050565b6168a981616897565b82525050565b5f6020820190506168c25f8301846168a0565b92915050565b5f604051905090565b5f80fd5b5f80fd5b5f8115159050919050565b6168ed816168d9565b81146168f7575f80fd5b50565b5f81359050616908816168e4565b92915050565b5f60208284031215616923576169226168d1565b5b5f616930848285016168fa565b91505092915050565b5f81519050919050565b5f82825260208201905092915050565b8281835e5f83830152505050565b5f601f19601f8301169050919050565b5f61697b82616939565b6169858185616943565b9350616995818560208601616953565b61699e81616961565b840191505092915050565b5f6020820190508181035f8301526169c18184616971565b905092915050565b6169d281616897565b81146169dc575f80fd5b50565b5f813590506169ed816169c9565b92915050565b5f60208284031215616a0857616a076168d1565b5b5f616a15848285016169df565b91505092915050565b5f73ffffffffffffffffffffffffffffffffffffffff82169050919050565b5f616a4782616a1e565b9050919050565b616a5781616a3d565b8114616a61575f80fd5b50565b5f81359050616a7281616a4e565b92915050565b5f8060408385031215616a8e57616a8d6168d1565b5b5f616a9b85828601616a64565b9250506020616aac858286016169df565b9150509250929050565b616abf816168d9565b82525050565b5f602082019050616ad85f830184616ab6565b92915050565b5f80fd5b5f80fd5b5f80fd5b5f8083601f840112616aff57616afe616ade565b5b8235905067ffffffffffffffff811115616b1c57616b1b616ae2565b5b602083019150836020820283011115616b3857616b37616ae6565b5b9250929050565b5f8083601f840112616b5457616b53616ade565b5b8235905067ffffffffffffffff811115616b7157616b70616ae2565b5b602083019150836020820283011115616b8d57616b8c616ae6565b5b9250929050565b5f805f805f60608688031215616bad57616bac6168d1565b5b5f86013567ffffffffffffffff811115616bca57616bc96168d5565b5b616bd688828901616aea565b9550955050602086013567ffffffffffffffff811115616bf957616bf86168d5565b5b616c0588828901616b3f565b93509350506040616c18888289016169df565b9150509295509295909350565b5f60208284031215616c3a57616c396168d1565b5b5f616c4784828501616a64565b91505092915050565b5f604082019050616c635f8301856168a0565b616c7060208301846168a0565b9392505050565b5f616c8182616a1e565b9050919050565b616c9181616c77565b8114616c9b575f80fd5b50565b5f81359050616cac81616c88565b92915050565b5f8060408385031215616cc857616cc76168d1565b5b5f616cd585828601616c9e565b9250506020616ce6858286016169df565b9150509250929050565b5f8083601f840112616d0557616d04616ade565b5b8235905067ffffffffffffffff811115616d2257616d21616ae2565b5b602083019150836001820283011115616d3e57616d3d616ae6565b5b9250929050565b5f805f8060608587031215616d5d57616d5c6168d1565b5b5f616d6a87828801616a64565b9450506020616d7b878288016169df565b935050604085013567ffffffffffffffff811115616d9c57616d9b6168d5565b5b616da887828801616cf0565b925092505092959194509250565b5f8060208385031215616dcc57616dcb6168d1565b5b5f83013567ffffffffffffffff811115616de957616de86168d5565b5b616df585828601616b3f565b92509250509250929050565b5f81519050919050565b5f82825260208201905092915050565b5f819050602082019050919050565b5f81519050919050565b5f82825260208201905092915050565b5f616e4e82616e2a565b616e588185616e34565b9350616e68818560208601616953565b616e7181616961565b840191505092915050565b5f616e878383616e44565b905092915050565b5f602082019050919050565b5f616ea582616e01565b616eaf8185616e0b565b935083602082028501616ec185616e1b565b805f5b85811015616efc5784840389528151616edd8582616e7c565b9450616ee883616e8f565b925060208a01995050600181019050616ec4565b50829750879550505050505092915050565b5f6020820190508181035f830152616f268184616e9b565b905092915050565b5f80fd5b7f4e487b71000000000000000000000000000000000000000000000000000000005f52604160045260245ffd5b616f6882616961565b810181811067ffffffffffffffff82111715616f8757616f86616f32565b5b80604052505050565b5f616f996168c8565b9050616fa58282616f5f565b919050565b5f67ffffffffffffffff821115616fc457616fc3616f32565b5b616fcd82616961565b9050602081019050919050565b828183375f83830152505050565b5f616ffa616ff584616faa565b616f90565b90508281526020810184848401111561701657617015616f2e565b5b617021848285616fda565b509392505050565b5f82601f83011261703d5761703c616ade565b5b813561704d848260208601616fe8565b91505092915050565b5f805f806080858703121561706e5761706d6168d1565b5b5f61707b87828801616a64565b945050602061708c87828801616a64565b935050604085013567ffffffffffffffff8111156170ad576170ac6168d5565b5b6170b987828801617029565b925050606085013567ffffffffffffffff8111156170da576170d96168d5565b5b6170e687828801617029565b91505092959194509250565b5f805f60608486031215617109576171086168d1565b5b5f61711686828701616a64565b935050602061712786828701616a64565b9250506040617138868287016169df565b9150509250925092565b5f60ff82169050919050565b61715781617142565b82525050565b5f6020820190506171705f83018461714e565b92915050565b5f819050919050565b5f61719961719461718f84616a1e565b617176565b616a1e565b9050919050565b5f6171aa8261717f565b9050919050565b5f6171bb826171a0565b9050919050565b6171cb816171b1565b82525050565b5f6020820190506171e45f8301846171c2565b92915050565b5f61ffff82169050919050565b617200816171ea565b82525050565b5f67ffffffffffffffff82169050919050565b61722281617206565b82525050565b5f60c08201905061723b5f830189616ab6565b6172486020830188616ab6565b61725560408301876171f7565b6172626060830186617219565b61726f60808301856168a0565b61727c60a08301846168a0565b979650505050505050565b5f805f806080858703121561729f5761729e6168d1565b5b5f6172ac87828801616a64565b94505060206172bd87828801616a64565b93505060406172ce87828801616a64565b92505060606172df87828801616a64565b91505092959194509250565b6172f481616a3d565b82525050565b5f60208201905061730d5f8301846172eb565b92915050565b5f8060408385031215617329576173286168d1565b5b5f617336858286016169df565b925050602061734785828601616a64565b9150509250929050565b5f805f60608486031215617368576173676168d1565b5b5f617375868287016169df565b935050602061738686828701616a64565b9250506040617397868287016169df565b9150509250925092565b6173aa81617142565b81146173b4575f80fd5b50565b5f813590506173c5816173a1565b92915050565b5f819050919050565b6173dd816173cb565b81146173e7575f80fd5b50565b5f813590506173f8816173d4565b92915050565b5f805f805f60a08688031215617417576174166168d1565b5b5f617424888289016169df565b9550506020617435888289016169df565b9450506040617446888289016173b7565b9350506060617457888289016173ea565b9250506080617468888289016173ea565b9150509295509295909350565b5f805f805f6080868803121561748e5761748d6168d1565b5b5f61749b888289016169df565b95505060206174ac88828901616a64565b94505060406174bd88828901616a64565b935050606086013567ffffffffffffffff8111156174de576174dd6168d5565b5b6174ea88828901616cf0565b92509250509295509295909350565b617502816171ea565b811461750c575f80fd5b50565b5f8135905061751d816174f9565b92915050565b5f805f6060848603121561753a576175396168d1565b5b5f61754786828701616a64565b93505060206175588682870161750f565b9250506040617569868287016168fa565b9150509250925092565b5f805f6060848603121561758a576175896168d1565b5b5f617597868287016169df565b93505060206175a886828701616a64565b92505060406175b986828701616a64565b9150509250925092565b5f805f606084860312156175da576175d96168d1565b5b5f6175e786828701616a64565b93505060206175f8868287016169df565b925050604061760986828701616a64565b9150509250925092565b5f805f805f805f60e0888a03121561762e5761762d6168d1565b5b5f61763b8a828b01616a64565b975050602061764c8a828b01616a64565b965050604061765d8a828b016169df565b955050606061766e8a828b016169df565b945050608061767f8a828b016173b7565b93505060a06176908a828b016173ea565b92505060c06176a18a828b016173ea565b91505092959891949750929550565b5f805f80606085870312156176c8576176c76168d1565b5b5f6176d587828801616a64565b94505060206176e687828801616a64565b935050604085013567ffffffffffffffff811115617707576177066168d5565b5b61771387828801616cf0565b925092505092959194509250565b5f8060408385031215617737576177366168d1565b5b5f61774485828601616a64565b925050602061775585828601616a64565b9150509250929050565b5f805f805f60a08688031215617778576177776168d1565b5b5f617785888289016169df565b9550506020617796888289016169df565b94505060406177a7888289016169df565b93505060606177b8888289016169df565b92505060806177c9888289016169df565b9150509295509295909350565b5f815190506177e4816169c9565b92915050565b5f602082840312156177ff576177fe6168d1565b5b5f61780c848285016177d6565b91505092915050565b7f4e487b71000000000000000000000000000000000000000000000000000000005f52601160045260245ffd5b5f61784c82616897565b915061785783616897565b925082820190508082111561786f5761786e617815565b5b92915050565b7f4e4f545f4b4545504552000000000000000000000000000000000000000000005f82015250565b5f6178a9600a83616943565b91506178b482617875565b602082019050919050565b5f6020820190508181035f8301526178d68161789d565b9050919050565b7f4e487b71000000000000000000000000000000000000000000000000000000005f52602260045260245ffd5b5f600282049050600182168061792157607f821691505b602082108103617934576179336178dd565b5b50919050565b5f61794482616897565b915061794f83616897565b925082820261795d81616897565b9150828204841483151761797457617973617815565b5b5092915050565b7f4e487b71000000000000000000000000000000000000000000000000000000005f52601260045260245ffd5b5f6179b282616897565b91506179bd83616897565b9250826179cd576179cc61797b565b5b828204905092915050565b7f4e487b71000000000000000000000000000000000000000000000000000000005f52603260045260245ffd5b5f80fd5b5f80fd5b5f80fd5b5f8083356001602003843603038112617a2d57617a2c617a05565b5b80840192508235915067ffffffffffffffff821115617a4f57617a4e617a09565b5b602083019250600182023603831315617a6b57617a6a617a0d565b5b509250929050565b5f67ffffffffffffffff821115617a8d57617a8c616f32565b5b617a9682616961565b9050602081019050919050565b5f617ab5617ab084617a73565b616f90565b905082815260208101848484011115617ad157617ad0616f2e565b5b617adc848285616fda565b509392505050565b5f82601f830112617af857617af7616ade565b5b8135617b08848260208601617aa3565b91505092915050565b5f8060408385031215617b2757617b266168d1565b5b5f617b3485828601616c9e565b925050602083013567ffffffffffffffff811115617b5557617b546168d5565b5b617b6185828601617ae4565b9150509250929050565b5f81905092915050565b5f617b7f82616e2a565b617b898185617b6b565b9350617b99818560208601616953565b80840191505092915050565b5f617bb08284617b75565b915081905092915050565b5f617bc582616897565b9150617bd083616897565b9250828203905081811115617be857617be7617815565b5b92915050565b7f4c4f575f4f5554000000000000000000000000000000000000000000000000005f82015250565b5f617c22600783616943565b9150617c2d82617bee565b602082019050919050565b5f6020820190508181035f830152617c4f81617c16565b9050919050565b7f50415553454400000000000000000000000000000000000000000000000000005f82015250565b5f617c8a600683616943565b9150617c9582617c56565b602082019050919050565b5f6020820190508181035f830152617cb781617c7e565b9050919050565b7f494e4143544956450000000000000000000000000000000000000000000000005f82015250565b5f617cf2600883616943565b9150617cfd82617cbe565b602082019050919050565b5f6020820190508181035f830152617d1f81617ce6565b9050919050565b5f606082019050617d395f8301866168a0565b617d4660208301856168a0565b617d5360408301846168a0565b949350505050565b7f49444c45000000000000000000000000000000000000000000000000000000005f82015250565b5f617d8f600483616943565b9150617d9a82617d5b565b602082019050919050565b5f6020820190508181035f830152617dbc81617d83565b9050919050565b5f617dce8385617b6b565b9350617ddb838584616fda565b82840190509392505050565b5f617df3828486617dc3565b91508190509392505050565b7f53545241544547595f43414c4c000000000000000000000000000000000000005f82015250565b5f617e33600d83616943565b9150617e3e82617dff565b602082019050919050565b5f6020820190508181035f830152617e6081617e27565b9050919050565b5f819050919050565b617e7981617e67565b82525050565b5f602082019050617e925f830184617e70565b92915050565b7f4e4f545f4f574e455200000000000000000000000000000000000000000000005f82015250565b5f617ecc600983616943565b9150617ed782617e98565b602082019050919050565b5f6020820190508181035f830152617ef981617ec0565b9050919050565b7f42415443480000000000000000000000000000000000000000000000000000005f82015250565b5f617f34600583616943565b9150617f3f82617f00565b602082019050919050565b5f6020820190508181035f830152617f6181617f28565b9050919050565b5f819050815f5260205f209050919050565b5f6020601f8301049050919050565b5f82821b905092915050565b5f60088302617fc47fffffffffffffffffffffffffffffffffffffffffffffffffffffffffffffffff82617f89565b617fce8683617f89565b95508019841693508086168417925050509392505050565b5f618000617ffb617ff684616897565b617176565b616897565b9050919050565b5f819050919050565b61801983617fe6565b61802d61802582618007565b848454617f95565b825550505050565b5f90565b618041618035565b61804c818484618010565b505050565b5b8181101561806f576180645f82618039565b600181019050618052565b5050565b601f8211156180b45761808581617f68565b61808e84617f7a565b8101602085101561809d578190505b6180b16180a985617f7a565b830182618051565b50505b505050565b5f82821c905092915050565b5f6180d45f19846008026180b9565b1980831691505092915050565b5f6180ec83836180c5565b9150826002028217905092915050565b61810582616939565b67ffffffffffffffff81111561811e5761811d616f32565b5b618128825461790a565b618133828285618073565b5f60209050601f831160018114618164575f8415618152578287015190505b61815c85826180e1565b8655506181c3565b601f19841661817286617f68565b5f5b8281101561819957848901518255600182019150602085019450602081019050618174565b868310156181b657848901516181b2601f8916826180c5565b8355505b6001600288020188555050505b505050505050565b5f815190506181d9816173a1565b92915050565b5f602082840312156181f4576181f36168d1565b5b5f618201848285016181cb565b91505092915050565b7f41535345545f53574545500000000000000000000000000000000000000000005f82015250565b5f61823e600b83616943565b91506182498261820a565b602082019050919050565b5f6020820190508181035f83015261826b81618232565b9050919050565b5f6040820190506182855f8301856172eb565b61829260208301846168a0565b9392505050565b7f53574545500000000000000000000000000000000000000000000000000000005f82015250565b5f6182cd600583616943565b91506182d882618299565b602082019050919050565b5f6020820190508181035f8301526182fa816182c1565b9050919050565b7f5a45524f5f4153534554530000000000000000000000000000000000000000005f82015250565b5f618335600b83616943565b915061834082618301565b602082019050919050565b5f6020820190508181035f83015261836281618329565b9050919050565b7f43415000000000000000000000000000000000000000000000000000000000005f82015250565b5f61839d600383616943565b91506183a882618369565b602082019050919050565b5f6020820190508181035f8301526183ca81618391565b9050919050565b7f4e4f5f50454e44494e47000000000000000000000000000000000000000000005f82015250565b5f618405600a83616943565b9150618410826183d1565b602082019050919050565b5f6020820190508181035f830152618432816183f9565b9050919050565b7f4e4f5f4f5241434c4500000000000000000000000000000000000000000000005f82015250565b5f61846d600983616943565b915061847882618439565b602082019050919050565b5f6020820190508181035f83015261849a81618461565b9050919050565b5f80604083850312156184b7576184b66168d1565b5b5f6184c4858286016177d6565b92505060206184d5858286016177d6565b9150509250929050565b7f4f5241434c4500000000000000000000000000000000000000000000000000005f82015250565b5f618513600683616943565b915061851e826184df565b602082019050919050565b5f6020820190508181035f83015261854081618507565b9050919050565b7f534c4950504147450000000000000000000000000000000000000000000000005f82015250565b5f61857b600883616943565b915061858682618547565b602082019050919050565b5f6020820190508181035f8301526185a88161856f565b9050919050565b7f5a45524f5f5348415245530000000000000000000000000000000000000000005f82015250565b5f6185e3600b83616943565b91506185ee826185af565b602082019050919050565b5f6020820190508181035f830152618610816185d7565b9050919050565b7f45585049524544000000000000000000000000000000000000000000000000005f82015250565b5f61864b600783616943565b915061865682618617565b602082019050919050565b5f6020820190508181035f8301526186788161863f565b9050919050565b5f8160601b9050919050565b5f6186958261867f565b9050919050565b5f6186a68261868b565b9050919050565b6186be6186b982616a3d565b61869c565b82525050565b5f819050919050565b6186de6186d982616897565b6186c4565b82525050565b5f6186ef82876186ad565b6014820191506186ff82866186ad565b60148201915061870f82856186cd565b60208201915061871f82846186cd565b60208201915081905095945050505050565b61873a816173cb565b82525050565b5f6080820190506187535f830187618731565b618760602083018661714e565b61876d6040830185618731565b61877a6060830184618731565b95945050505050565b7f4241445f534947000000000000000000000000000000000000000000000000005f82015250565b5f6187b7600783616943565b91506187c282618783565b602082019050919050565b5f6020820190508181035f8301526187e4816187ab565b9050919050565b5f82825260208201905092915050565b5f61880683856187eb565b9350618813838584616fda565b61881c83616961565b840190509392505050565b5f60a08201905061883a5f8301896172eb565b61884760208301886172eb565b61885460408301876168a0565b61886160608301866168a0565b81810360808301526188748184866187fb565b9050979650505050505050565b7f5a45524f5f5354524154454759000000000000000000000000000000000000005f82015250565b5f6188b5600d83616943565b91506188c082618881565b602082019050919050565b5f6020820190508181035f8301526188e2816188a9565b9050919050565b7f54415247455400000000000000000000000000000000000000000000000000005f82015250565b5f61891d600683616943565b9150618928826188e9565b602082019050919050565b5f6020820190508181035f83015261894a81618911565b9050919050565b5f6040820190506189645f8301856171f7565b6189716020830184616ab6565b9392505050565b50565b5f6189865f836187eb565b915061899182618978565b5f82019050919050565b5f60a0820190506189ae5f8301876172eb565b6189bb60208301866172eb565b6189c860408301856168a0565b6189d560608301846168a0565b81810360808301526189e68161897b565b905095945050505050565b5f604082019050618a045f8301856168a0565b618a1160208301846172eb565b9392505050565b5f618a2282617e67565b91507f80000000000000000000000000000000000000000000000000000000000000008203618a5457618a53617815565b5b815f039050919050565b5f618a6882616897565b91507fffffffffffffffffffffffffffffffffffffffffffffffffffffffffffffffff8203618a9a57618a99617815565b5b600182019050919050565b7f4f4c445f494e41435449564500000000000000000000000000000000000000005f82015250565b5f618ad9600c83616943565b9150618ae482618aa5565b602082019050919050565b5f6020820190508181035f830152618b0681618acd565b9050919050565b7f5a45524f5f4e45570000000000000000000000000000000000000000000000005f82015250565b5f618b41600883616943565b9150618b4c82618b0d565b602082019050919050565b5f6020820190508181035f830152618b6e81618b35565b9050919050565b7f4d4947524154494f4e00000000000000000000000000000000000000000000005f82015250565b5f618ba9600983616943565b9150618bb482618b75565b602082019050919050565b5f6020820190508181035f830152618bd681618b9d565b9050919050565b7f4c495155494449545900000000000000000000000000000000000000000000005f82015250565b5f618c11600983616943565b9150618c1c82618bdd565b602082019050919050565b5f6020820190508181035f830152618c3e81618c05565b9050919050565b5f81519050618c53816173d4565b92915050565b5f60208284031215618c6e57618c6d6168d1565b5b5f618c7b84828501618c45565b91505092915050565b7f43414c4c4241434b0000000000000000000000000000000000000000000000005f82015250565b5f618cb8600883616943565b9150618cc382618c84565b602082019050919050565b5f6020820190508181035f830152618ce581618cac565b9050919050565b7f4e4f545f524550414944000000000000000000000000000000000000000000005f82015250565b5f618d20600a83616943565b9150618d2b82618cec565b602082019050919050565b5f6020820190508181035f830152618d4d81618d14565b9050919050565b7f4645455f4c494d495400000000000000000000000000000000000000000000005f82015250565b5f618d88600983616943565b9150618d9382618d54565b602082019050919050565b5f6020820190508181035f830152618db581618d7c565b9050919050565b7f524542414c414e43455f535445500000000000000000000000000000000000005f82015250565b5f618df0600e83616943565b9150618dfb82618dbc565b602082019050919050565b5f6020820190508181035f830152618e1d81618de4565b9050919050565b7f4241445f524542414c414e4345000000000000000000000000000000000000005f82015250565b5f618e58600d83616943565b9150618e6382618e24565b602082019050919050565b5f6020820190508181035f830152618e8581618e4c565b9050919050565b7f5452414e534645520000000000000000000000000000000000000000000000005f82015250565b5f618ec0600883616943565b9150618ecb82618e8c565b602082019050919050565b5f6020820190508181035f830152618eed81618eb4565b9050919050565b5f606082019050618f075f8301866172eb565b618f1460208301856172eb565b618f2160408301846168a0565b949350505050565b7f5452414e534645525f46524f4d000000000000000000000000000000000000005f82015250565b5f618f5d600d83616943565b9150618f6882618f29565b602082019050919050565b5f6020820190508181035f830152618f8a81618f51565b9050919050565b5f81905092915050565b7f19457468657265756d205369676e6564204d6573736167653a0a3332000000005f82015250565b5f618fcf601c83618f91565b9150618fda82618f9b565b601c82019050919050565b5f819050919050565b618fff618ffa826173cb565b618fe5565b82525050565b5f61900f82618fc3565b915061901b8284618fee565b60208201915081905092915050565b7f44454c41590000000000000000000000000000000000000000000000000000005f82015250565b5f61905e600583616943565b91506190698261902a565b602082019050919050565b5f6020820190508181035f83015261908b81619052565b905091905056fea2646970667358221220cbd7f7cebd90710140ed12df5a5c84b6efecff5996411f8ffd5f830b10a2a0a264736f6c63430008190033","linkReferences":{}},"methodIdentifiers":{"acceptOwnership()":"79ba5097","accountCredit(address)":"6f0b6ce0","accrueManagementFee()":"f34fd6c6","addStrategy(address,uint16,bool)":"b01a9550","allocate(address,uint256,bytes)":"1c75e369","allowance(address,address)":"dd62ed3e","approve(address,uint256)":"095ea7b3","asset()":"38d52e0f","autoRebalance(bytes[])":"f47e284c","balanceOf(address)":"70a08231","batch(bytes[])":"1e897afb","claimSignedCredit(uint256,uint256,uint8,bytes32,bytes32)":"a39506d4","compoundRewards(address[],bytes[],uint256)":"0b9af371","convertToAssets(uint256)":"07a2d13a","convertToShares(uint256)":"c6e6f592","creditScalar()":"508ffd38","decimals()":"313ce567","deposit(uint256,address)":"6e553f65","depositWithOracle(uint256,address,uint256)":"82290f0e","donate(uint256)":"f14faf6f","epochLength()":"57d775f8","flashFeeBps()":"66dfd489","flashLoan(address,uint256,bytes)":"e0232b42","harvest(address)":"0e5c011e","highWaterMark()":"1e8410da","initialize(address,address,string,string)":"2016a0d2","initialized()":"158ef93e","keeper()":"aced1661","lastAccountingUpdate()":"ec0aa002","lastDepositAt(address)":"c31295d4","managementFeeBps()":"3813c35a","maxTotalAssets()":"d820f492","maxWithdraw(address)":"ce96cb77","migrateStrategy(address,address,bytes)":"dbbfaa7a","mint(uint256,address)":"94bf804d","name()":"06fdde03","nonces(address)":"7ecebe00","oracle()":"7dc0d1d0","owner()":"8da5cb5b","pause(bool)":"02329a29","paused()":"5c975abb","pendingOwner()":"e30c3978","performanceFeeBps()":"b9d4e879","permit(address,address,uint256,uint256,uint8,bytes32,bytes32)":"d505accf","previewDeposit(uint256)":"ef8b30f7","previewMint(uint256)":"b3d7f6b9","previewRedeem(uint256)":"4cdad506","previewWithdraw(uint256)":"0a28a477","pricePerShare()":"99530b06","recall(address,uint256,address)":"bcd9ca3d","redeem(uint256,address,address)":"ba087652","rescueNative(address,uint256)":"1291f79d","rewardDebt(address)":"5873eb9b","setAddresses(address,address,address,address)":"4a945f8d","setRiskParameters(uint256,uint256,uint256,uint256,uint256)":"ee7ae20d","setStrategyLimit(address,uint256)":"801eab00","strategies(address)":"39ebf823","strategiesLength()":"3f74bb89","strategyList(uint256)":"a267526b","sweep(address,address,uint256)":"62c06767","symbol()":"95d89b41","totalAssets()":"01e1d114","totalManagedDebt()":"a5849ed0","totalSupply()":"18160ddd","transfer(address,uint256)":"a9059cbb","transferFrom(address,address,uint256)":"23b872dd","transferOwnership(address)":"f2fde38b","treasury()":"61d027b3","withdraw(uint256,address,address,bytes)":"a7b7e988","withdrawDelay()":"0288a39c","withdrawHook()":"d4766e57"},"id":0}