{"abi":[{"type":"function","name":"asset","inputs":[],"outputs":[{"name":"","type":"address","internalType":"contract IERC20SafeLike"}],"stateMutability":"view"},{"type":"function","name":"balanceOf","inputs":[{"name":"","type":"address","internalType":"address"}],"outputs":[{"name":"","type":"uint256","internalType":"uint256"}],"stateMutability":"view"},{"type":"function","name":"deposit","inputs":[{"name":"amount","type":"uint256","internalType":"uint256"}],"outputs":[],"stateMutability":"nonpayable"},{"type":"function","name":"depositWithOracle","inputs":[{"name":"amount","type":"uint256","internalType":"uint256"}],"outputs":[],"stateMutability":"nonpayable"},{"type":"function","name":"initialize","inputs":[{"name":"asset_","type":"address","internalType":"address"},{"name":"oracle_","type":"address","internalType":"address"}],"outputs":[],"stateMutability":"nonpayable"},{"type":"function","name":"initialized","inputs":[],"outputs":[{"name":"","type":"bool","internalType":"bool"}],"stateMutability":"view"},{"type":"function","name":"oracle","inputs":[],"outputs":[{"name":"","type":"address","internalType":"contract IOracleSafeLike"}],"stateMutability":"view"},{"type":"function","name":"owner","inputs":[],"outputs":[{"name":"","type":"address","internalType":"address"}],"stateMutability":"view"},{"type":"function","name":"sweep","inputs":[{"name":"token","type":"address","internalType":"address"},{"name":"to","type":"address","internalType":"address"},{"name":"amount","type":"uint256","internalType":"uint256"}],"outputs":[],"stateMutability":"nonpayable"},{"type":"function","name":"withdraw","inputs":[{"name":"amount","type":"uint256","internalType":"uint256"}],"outputs":[],"stateMutability":"nonpayable"}],"bytecode":{"object":"0x6080604052348015600e575f80fd5b506112068061001c5f395ff3fe608060405234801561000f575f80fd5b506004361061009c575f3560e01c806370a082311161006457806370a08231146101305780637dc0d1d0146101605780638da5cb5b1461017e5780639ca7fe2d1461019c578063b6b55f25146101b85761009c565b8063158ef93e146100a05780632e1a7d4d146100be57806338d52e0f146100da578063485cc955146100f857806362c0676714610114575b5f80fd5b6100a86101d4565b6040516100b59190610ac7565b60405180910390f35b6100d860048036038101906100d39190610b17565b6101e7565b005b6100e261039b565b6040516100ef9190610bbc565b60405180910390f35b610112600480360381019061010d9190610c10565b6103be565b005b61012e60048036038101906101299190610c4e565b6104ec565b005b61014a60048036038101906101459190610c9e565b6106c7565b6040516101579190610cd8565b60405180910390f35b6101686106dc565b6040516101759190610d11565b60405180910390f35b610186610701565b6040516101939190610d39565b60405180910390f35b6101b660048036038101906101b19190610b17565b610726565b005b6101d260048036038101906101cd9190610b17565b61097c565b005b600260149054906101000a900460ff1681565b600260159054906101000a900460ff1615610237576040517f08c379a000000000000000000000000000000000000000000000000000000000815260040161022e90610dac565b60405180910390fd5b6001600260156101000a81548160ff0219169083151502179055508060035f3373ffffffffffffffffffffffffffffffffffffffff1673ffffffffffffffffffffffffffffffffffffffff1681526020019081526020015f205f82825461029e9190610df7565b925050819055505f8054906101000a900473ffffffffffffffffffffffffffffffffffffffff1673ffffffffffffffffffffffffffffffffffffffff1663a9059cbb33836040518363ffffffff1660e01b81526004016102ff929190610e2a565b6020604051808303815f875af115801561031b573d5f803e3d5ffd5b505050506040513d601f19601f8201168201806040525081019061033f9190610e7b565b61037e576040517f08c379a000000000000000000000000000000000000000000000000000000000815260040161037590610ef0565b60405180910390fd5b5f600260156101000a81548160ff02191690831515021790555050565b5f8054906101000a900473ffffffffffffffffffffffffffffffffffffffff1681565b600260149054906101000a900460ff161561040e576040517f08c379a000000000000000000000000000000000000000000000000000000000815260040161040590610f58565b60405180910390fd5b6001600260146101000a81548160ff0219169083151502179055503360025f6101000a81548173ffffffffffffffffffffffffffffffffffffffff021916908373ffffffffffffffffffffffffffffffffffffffff160217905550815f806101000a81548173ffffffffffffffffffffffffffffffffffffffff021916908373ffffffffffffffffffffffffffffffffffffffff1602179055508060015f6101000a81548173ffffffffffffffffffffffffffffffffffffffff021916908373ffffffffffffffffffffffffffffffffffffffff1602179055505050565b60025f9054906101000a900473ffffffffffffffffffffffffffffffffffffffff1673ffffffffffffffffffffffffffffffffffffffff163373ffffffffffffffffffffffffffffffffffffffff161461057b576040517f08c379a000000000000000000000000000000000000000000000000000000000815260040161057290610fc0565b60405180910390fd5b5f8054906101000a900473ffffffffffffffffffffffffffffffffffffffff1673ffffffffffffffffffffffffffffffffffffffff168373ffffffffffffffffffffffffffffffffffffffff1603610608576040517f08c379a00000000000000000000000000000000000000000000000000000000081526004016105ff90611028565b60405180910390fd5b8273ffffffffffffffffffffffffffffffffffffffff1663a9059cbb83836040518363ffffffff1660e01b8152600401610643929190610e2a565b6020604051808303815f875af115801561065f573d5f803e3d5ffd5b505050506040513d601f19601f820116820180604052508101906106839190610e7b565b6106c2576040517f08c379a00000000000000000000000000000000000000000000000000000000081526004016106b990610ef0565b60405180910390fd5b505050565b6003602052805f5260405f205f915090505481565b60015f9054906101000a900473ffffffffffffffffffffffffffffffffffffffff1681565b60025f9054906101000a900473ffffffffffffffffffffffffffffffffffffffff1681565b5f8060015f9054906101000a900473ffffffffffffffffffffffffffffffffffffffff1673ffffffffffffffffffffffffffffffffffffffff1663aea910785f8054906101000a900473ffffffffffffffffffffffffffffffffffffffff166040518263ffffffff1660e01b81526004016107a19190610d39565b6040805180830381865afa1580156107bb573d5f803e3d5ffd5b505050506040513d601f19601f820116820180604052508101906107df919061105a565b915091505f821180156107f257505f8114155b801561080a5750611c2081426108089190610df7565b105b610849576040517f08c379a0000000000000000000000000000000000000000000000000000000008152600401610840906110e2565b60405180910390fd5b5f8054906101000a900473ffffffffffffffffffffffffffffffffffffffff1673ffffffffffffffffffffffffffffffffffffffff166323b872dd3330866040518463ffffffff1660e01b81526004016108a593929190611100565b6020604051808303815f875af11580156108c1573d5f803e3d5ffd5b505050506040513d601f19601f820116820180604052508101906108e59190610e7b565b610924576040517f08c379a000000000000000000000000000000000000000000000000000000000815260040161091b9061117f565b60405180910390fd5b8260035f3373ffffffffffffffffffffffffffffffffffffffff1673ffffffffffffffffffffffffffffffffffffffff1681526020019081526020015f205f828254610970919061119d565b92505081905550505050565b5f8054906101000a900473ffffffffffffffffffffffffffffffffffffffff1673ffffffffffffffffffffffffffffffffffffffff166323b872dd3330846040518463ffffffff1660e01b81526004016109d893929190611100565b6020604051808303815f875af11580156109f4573d5f803e3d5ffd5b505050506040513d601f19601f82011682018060405250810190610a189190610e7b565b610a57576040517f08c379a0000000000000000000000000000000000000000000000000000000008152600401610a4e9061117f565b60405180910390fd5b8060035f3373ffffffffffffffffffffffffffffffffffffffff1673ffffffffffffffffffffffffffffffffffffffff1681526020019081526020015f205f828254610aa3919061119d565b9250508190555050565b5f8115159050919050565b610ac181610aad565b82525050565b5f602082019050610ada5f830184610ab8565b92915050565b5f80fd5b5f819050919050565b610af681610ae4565b8114610b00575f80fd5b50565b5f81359050610b1181610aed565b92915050565b5f60208284031215610b2c57610b2b610ae0565b5b5f610b3984828501610b03565b91505092915050565b5f73ffffffffffffffffffffffffffffffffffffffff82169050919050565b5f819050919050565b5f610b84610b7f610b7a84610b42565b610b61565b610b42565b9050919050565b5f610b9582610b6a565b9050919050565b5f610ba682610b8b565b9050919050565b610bb681610b9c565b82525050565b5f602082019050610bcf5f830184610bad565b92915050565b5f610bdf82610b42565b9050919050565b610bef81610bd5565b8114610bf9575f80fd5b50565b5f81359050610c0a81610be6565b92915050565b5f8060408385031215610c2657610c25610ae0565b5b5f610c3385828601610bfc565b9250506020610c4485828601610bfc565b9150509250929050565b5f805f60608486031215610c6557610c64610ae0565b5b5f610c7286828701610bfc565b9350506020610c8386828701610bfc565b9250506040610c9486828701610b03565b9150509250925092565b5f60208284031215610cb357610cb2610ae0565b5b5f610cc084828501610bfc565b91505092915050565b610cd281610ae4565b82525050565b5f602082019050610ceb5f830184610cc9565b92915050565b5f610cfb82610b8b565b9050919050565b610d0b81610cf1565b82525050565b5f602082019050610d245f830184610d02565b92915050565b610d3381610bd5565b82525050565b5f602082019050610d4c5f830184610d2a565b92915050565b5f82825260208201905092915050565b7f4c4f434b454400000000000000000000000000000000000000000000000000005f82015250565b5f610d96600683610d52565b9150610da182610d62565b602082019050919050565b5f6020820190508181035f830152610dc381610d8a565b9050919050565b7f4e487b71000000000000000000000000000000000000000000000000000000005f52601160045260245ffd5b5f610e0182610ae4565b9150610e0c83610ae4565b9250828203905081811115610e2457610e23610dca565b5b92915050565b5f604082019050610e3d5f830185610d2a565b610e4a6020830184610cc9565b9392505050565b610e5a81610aad565b8114610e64575f80fd5b50565b5f81519050610e7581610e51565b92915050565b5f60208284031215610e9057610e8f610ae0565b5b5f610e9d84828501610e67565b91505092915050565b7f5452414e534645520000000000000000000000000000000000000000000000005f82015250565b5f610eda600883610d52565b9150610ee582610ea6565b602082019050919050565b5f6020820190508181035f830152610f0781610ece565b9050919050565b7f494e495449414c495a45440000000000000000000000000000000000000000005f82015250565b5f610f42600b83610d52565b9150610f4d82610f0e565b602082019050919050565b5f6020820190508181035f830152610f6f81610f36565b9050919050565b7f4e4f545f4f574e455200000000000000000000000000000000000000000000005f82015250565b5f610faa600983610d52565b9150610fb582610f76565b602082019050919050565b5f6020820190508181035f830152610fd781610f9e565b9050919050565b7f41535345540000000000000000000000000000000000000000000000000000005f82015250565b5f611012600583610d52565b915061101d82610fde565b602082019050919050565b5f6020820190508181035f83015261103f81611006565b9050919050565b5f8151905061105481610aed565b92915050565b5f80604083850312156110705761106f610ae0565b5b5f61107d85828601611046565b925050602061108e85828601611046565b9150509250929050565b7f4f5241434c4500000000000000000000000000000000000000000000000000005f82015250565b5f6110cc600683610d52565b91506110d782611098565b602082019050919050565b5f6020820190508181035f8301526110f9816110c0565b9050919050565b5f6060820190506111135f830186610d2a565b6111206020830185610d2a565b61112d6040830184610cc9565b949350505050565b7f5452414e534645525f46524f4d000000000000000000000000000000000000005f82015250565b5f611169600d83610d52565b915061117482611135565b602082019050919050565b5f6020820190508181035f8301526111968161115d565b9050919050565b5f6111a782610ae4565b91506111b283610ae4565b92508282019050808211156111ca576111c9610dca565b5b9291505056fea2646970667358221220a2d201389549f1b6a0eaacc030d9d71b3ce9e3f70fa1b63abc2952daf5a4f42464736f6c63430008190033","linkReferences":{}},"methodIdentifiers":{"asset()":"38d52e0f","balanceOf(address)":"70a08231","deposit(uint256)":"b6b55f25","depositWithOracle(uint256)":"9ca7fe2d","initialize(address,address)":"485cc955","initialized()":"158ef93e","oracle()":"7dc0d1d0","owner()":"8da5cb5b","sweep(address,address,uint256)":"62c06767","withdraw(uint256)":"2e1a7d4d"},"id":0}